:100000000C94C3010C94E0010C94E0010C94E00109
:100010000C94E0010C941A020C94E0010C94E001A1
:100020000C94E0010C94E0010C94E0010C94E001CC
:100030000C94E0010C94E0010C94E0010C94E001BC
:100040000C94830A0C94E0010C94E0010C94E00100
:100050000C9496090C9454090C94E0010C94E00162
:100060000C94E0010C94E0010C94E0010C94E0018C
:100070000C94E0010C94E0010C94E0015072657363
:1000800073206120627574746F6E206F7220277305
:10009000272F27532720746F207374617274206197
:1000A000206E65772067616D650047414D45204FA3
:1000B0005645520043535345323031302F3732309A
:1000C0003120413220627920204361696C696E20C1
:1000D00044656C6761646F202D20343830323739C5
:1000E000343200205C24242020205C242420202082
:1000F00020205C2420202020205C24242020205C40
:100100002424202020202020205C24242020205C67
:10011000242420205C24242424242424205C24243B
:1001200020202020202020205C242424242424009B
:100130007C20242420207C202424202020205C24B7
:1001400024242020207C20242420207C20242420DF
:1001500020202020207C20242420207C20242420D7
:100160005C242420202020205C7C202424202020AB
:10017000202020205C2424202020202424007C20F7
:10018000242420207C2024242020205C24242024BB
:100190002420207C20242420207C20242420202093
:1001A0002020207C20242420207C2024247C202427
:1001B000242424242424247C2024242020202020BF
:1001C000207C2024245F5F2F202424007C202424F2
:1001D00024242424242420205C24245C202024247F
:1001E000207C20242424242424245C20202020205B
:1001F000207C2024242424242424247C202424201F
:1002000020202024247C2024242020205C24247CE2
:1002100020242420207C202424007C20242420202E
:1002200020202424205C24245C202F202024247CD3
:100230002024242020202024242020202020207C52
:100240002024242020202024247C20202424242432
:1002500024245C7C20202424242424245C7C20204E
:100260002424242424245C007C2024245F5F7C201C
:1002700024247C2024242020207C2024247C20244E
:10028000245F5F7C2024242020202020207C202428
:10029000245F5F7C202424202F2020202020205C2D
:1002A00020202F2020202020205C20202F202020F4
:1002B0002020205C007C20202424242424245C7C16
:1002C0002024242020207C2024247C202424242456
:1002D0002424245C2020202020207C202424202072
:1002E0007C20242420205F5F5F5F5F5F2020202030
:1002F0005F5F5F5F5F5F202020205F5F5F5F5F5F0A
:1003000000202F2020202020205C207C20205C202A
:1003100020207C20205C7C202020202020205C20AD
:100320002020202020207C20205C20207C20205C9D
:100330000020205F5F5F5F5F5F2020205F5F2020E5
:100340002020205F5F20205F5F5F5F5F5F5F202076
:10035000202020202020205F5F202020205F5F00C1
:100360001B5B3F323568001B5B3F32356C001B5B0B
:1003700025646D001B5B4B001B5B324A001B5B2539
:10038000643B2564480011241FBECFEFD8E0DEBFD8
:10039000CDBF12E0A0E0B1E0E8E8FCE102C00590CA
:1003A0000D92A230B107D9F723E0A2E0B2E001C07C
:1003B0001D92A033B207E1F70E948C080C94420E04
:1003C0000C940000E8E6F0E08081826080838BB3CB
:1003D00082608BBBECE6F0E080818F6080831092BE
:1003E0000202089580910202181614F5809103020A
:1003F0006FB7F89491E009C0F901ED5FFD4F4081BE
:10040000F901EE5FFD4F40839F5F292F30E040915F
:100410000202042E000C550B241735076CF3909143
:10042000020291509093020266231CF4789408957E
:100430008FEF08951F920F920FB60F9211242F93F2
:100440003F934F938F939F93EF93FF9343B14F70DD
:1004500080E026C09091020294300CF5242F30E009
:10046000082E02C0359527950A94E2F720FF17C0A1
:100470002091070230E0082E02C0359527950A9496
:10048000E2F720FD0CC0E091020291E09E0F9093F4
:1004900002020E2E000CFF0BED5FFD4F80838F5F7D
:1004A0008430C0F240930702FF91EF919F918F91AA
:1004B0004F913F912F910F900FBE0F901F90189565
:1004C0001F93CF93DF93182FD4E036C0CE3011F4B2
:1004D0004FEF01C040E02C2F30E0205E3F4F211B4A
:1004E0003109ED2FF0E0BF016250710981E090E029
:1004F000DC0102C0AA0FBB1F6A95E2F7BD01615083
:10050000710926233723339702C0880F991FEA9574
:10051000E2F701972817390729F4CE3010F44FE09D
:1005200001C040EF6D2F8C2F0E94F705CF5F01C0F7
:10053000CBE0C03158F2DF5FD830D0F3DF91CF91FC
:100540001F9108951F93CF93DF93CDB7DEB7289700
:100550000FB6F894DEBF0FBECDBF0E94330610E089
:1005600031C0E12FF0E0E15FFE4F908180E021C0DB
:10057000282F30E0492F50E0082E02C055954795AE
:100580000A94E2F740FF0DC0843010F44FE001C040
:1005900040EFE1E0F0E0EC0FFD1FE20FF31F4083BE
:1005A00007C0E1E0F0E0EC0FFD1FE20FF31F108247
:1005B0008F5F8830E8F2BE016F5F7F4F812F0E940E
:1005C00016061F5F103168F280E00E9460022896D4
:1005D0000FB6F894DEBF0FBECDBFDF91CF911F9154
:1005E0000895CF93DF93CDB7DEB728970FB6F89471
:1005F000DEBF0FBECDBF0E94330680E009C0E1E040
:10060000F0E0EC0FFD1FE80FF11D9FEF90838F5F6F
:100610008830A8F3BE016F5F7F4F8DE00E94160601
:1006200080E009C0E1E0F0E0EC0FFD1FE80FF11DF4
:1006300095E590838F5F8830A8F3BE016F5F7F4F91
:100640008CE00E941606BE016F5F7F4F8EE00E9415
:10065000160680E009C0E1E0F0E0EC0FFD1FE80FB6
:10066000F11D91E190838F5F8830A8F3BE016F5F29
:100670007F4F8BE00E941606BE016F5F7F4F8FE0B9
:100680000E94160628960FB6F894DEBF0FBECDBFA7
:10069000DF91CF9108956EE070E08AE090E00E94D3
:1006A0001B0A0E94350A80911002909111028A3033
:1006B000910534F49C01275F3F4F2930310568F4E0
:1006C0009F938F938FE191E09F938F930E943E0BB6
:1006D0000F900F900F900F9008958436910534F489
:1006E0009C012E593F4F2935310568F49F938F9314
:1006F00080E391E09F938F930E943E0B0F900F90A9
:100700000F900F9008958D392FEF92076CF49F93FF
:100710008F9380E491E09F938F930E943E0B0F9004
:100720000F900F900F9008959F938F938FE491E017
:100730009F938F930E943E0B0F900F900F900F90FE
:1007400008950E94F10210921302109212020E9468
:100750004B0308951F93CF93DF93D82FCBE07DC039
:100760008FE08C1B4091120250911302480F511DD3
:100770009A01ADECBCEC0E94CF0AFC01F695E7951E
:10078000F695E795CF01880F991F880F991F8E0F57
:100790009F1F4817590709F05FC0FF27EF59FE4F09
:1007A000808190E00D2E02C0959587950A94E2F71E
:1007B00080FF47C080910001D8130CC080911002C7
:1007C00090911102019790931102809310020E9460
:1007D0004B0346C0D093000140EF1D2F110F612F36
:1007E0008C2F0E94F70561E0610F40EF8C2F0E9473
:1007F000F705CB3011F0CF3051F480911002909179
:1008000011020196909311028093100223C0CC3004
:1008100011F0CE3051F480911002909111020296A5
:10082000909311028093100215C0CD3099F48091FD
:10083000100290911102039690931102809310027E
:1008400009C08091100290911102019790931102BA
:10085000809310020E944B03CF5FC03108F480CF19
:10086000DF91CF911F910895DF92EF92FF920F9346
:100870001F93CF93DF9310E0E9C08FE0811BE091DD
:100880001202F0911302AF01480F511D9A01ADEC15
:10089000BCEC0E94CF0AEC01D695C795D695C795BA
:1008A0000C2F9F01215F3F4F0E94CF0A969587959D
:1008B000969587958F5F08C0E82FF0E0EF59FE4FBF
:1008C00090819F7019F48F5F8138B0F3E82FF0E0CA
:1008D000EF59FE4FF080013820F081E0809308024C
:1008E000B8C09A01ADECBCEC0E94CF0A96958795F2
:1008F000969587959C01220F331F220F331F820F7D
:10090000931F4817590709F0A0C000E09BC091E071
:10091000F91290E081E0011180E0892371F041E05B
:10092000E02EEE0C6E2D80E00E94F70561E06E0D6A
:1009300041E080E00E94F70547C091E082E0F812B4
:1009400090E081E0013009F080E0892371F041E01E
:10095000E02EEE0C6E2D80E00E94F70561E06E0D3A
:1009600041E080E00E94F7052FC091E084E0F8129A
:1009700090E081E0023009F080E0892371F041E0ED
:10098000E02EEE0C6E2D80E00E94F70561E06E0D0A
:1009900041E080E00E94F70517C091E088E0F8127E
:1009A00090E081E0033009F080E0892369F041E0C4
:1009B000E02EEE0C6E2D80E00E94F70561E06E0DDA
:1009C00041E080E00E94F705FE01FF27EF59FE4F4E
:1009D000808190E0002E02C0959587950A94E2F7F9
:1009E00080FF2FC01B3059F01F3071F01C3089F090
:1009F0001E30A1F01D30B9F4DD24DA9415C00F2E9D
:100A0000F1E1DF2EF02D10C00F2EF1E1DF2EF02DE1
:100A10000BC00F2EF5E5DF2EF02D06C00F2EF5E5ED
:100A2000DF2EF02D01C0D12C4D2DE02EEE0C6E2DC1
:100A3000812F0E94F70561E06E0D4D2D812F0E94E0
:100A4000F7050F5F043008F462CF1F5F103108F420
:100A500014CF809112029091130201969093130289
:100A600080931202C0E0ACC08FE08C1BE0911202B8
:100A7000F0911302AF01480F511D9A01ADECBCEC8F
:100A80000E94CF0A96958795969587959C01220F8F
:100A9000331F220F331F820F931F4817590709F086
:100AA0008EC09A010E94CF0AAC0156954795569583
:100AB00047959F01215F3F4F0E94CF0A96958795EA
:100AC00096958795FC01FF27EF59FE4FE08041384E
:100AD00008F075C08A011127C80101968138910577
:100AE0000CF06DC0D0E068C0F801EF59FE4F808176
:100AF000282F30E00D2E02C0359527950A94E2F795
:100B000020FF59C021E0909100019D1320E031E0C9
:100B100095EF9C0F953008F030E0222381F03323CD
:100B200071F040EFFD2EFF0C6F2D8C2F0E94F7050A
:100B300061E06F0D40EF8C2F0E94F70537C0E8167B
:100B4000D9F04FE0FD2EFF0C6F2D8C2F0E94F70582
:100B500061E06F0D4FE08C2F0E94F705CF3031F52B
:100B6000809110029091110201979093110280934D
:100B700010020E944B031AC04FE0FD2EFF0C6F2D98
:100B80008C2F0E94F70561E06F0D4FE08C2F0E94C3
:100B9000F705CF3059F4809110029091110201971E
:100BA00090931102809310020E944B03CF3018F0F3
:100BB0008FEF80930001DF5FD43008F495CFCF5FD3
:100BC000C03108F451CFDF91CF911F910F91FF9069
:100BD000EF90DF90089580910802882319F0109219
:100BE000080281E0089580E80E94E90908951F93B2
:100BF000CF93DF938031B0F46830A0F4142FC62F68
:100C0000D82F81E00E94150A6C2F677080E1689FE1
:100C1000900111248D2F8F70822B0E94150A812F35
:100C20000E94150ADF91CF911F9108950F931F9392
:100C3000CF938031A0F48B01C82F83E00E94150A66
:100C40008C2F8F700E94150AC0E007C0F801EC0FCE
:100C5000F11D80810E94150ACF5FC830B8F3CF9193
:100C60001F910F9108958FE00E94150A08950E9428
:100C7000F3050E94E20140E060E07BE480E090E068
:100C80000E9401090E945D0A0E94A80A0E94AD0A02
:100C9000789408954F925F926F927F928F929F9275
:100CA000AF92BF92CF92DF92EF92FF92CF93DF93FA
:100CB0000E942C0A0E94540A0E942C0A0E944B0A8D
:100CC00085E20E943E0A64E070E08AE090E00E94C3
:100CD0001B0A81E393E09F938F930E94540B65E07E
:100CE00070E08AE090E00E941B0A81E093E09F930D
:100CF0008F930E94540B66E070E08AE090E00E94BF
:100D00001B0A85EB92E09F938F930E94540B67E040
:100D100070E08AE090E00E941B0A88E692E09F93D0
:100D20008F930E94540B68E070E08AE090E00E948C
:100D30001B0A8AE192E09F938F930E94540B69E013
:100D400070E08AE090E00E941B0A8CEC91E09F9397
:100D50008F930E94540B6AE070E08AE090E00E945A
:100D60001B0A8EE791E09F938F930E94540B6BE0D8
:100D700070E08AE090E00E941B0A80E391E09F937C
:100D80008F930E94540B6CE070E08AE090E00E9428
:100D90001B0A83EE90E09F938F930E94540B6EE0AA
:100DA00070E08AE090E00E941B0A84EB90E09F9341
:100DB0008F930E94540B0E94A2020E94730A6B013F
:100DC0007C0188EE93E090931502809314028DB716
:100DD0009EB744960FB6F8949EBF0FBE8DBFD0E06D
:100DE0000E944809882341F080912A0390912B03A7
:100DF0000E94000BC82F01C0CFEFC33709F473C0A6
:100E0000C33509F470C00E94F2018F3F09F06BC036
:100E1000CD3611F0CD3449F58091090290910A0246
:100E2000892B69F010920A021092090260E170E0C9
:100E30008AE090E00E941B0A0E94350A16C081E0F9
:100E400090E090930A028093090260E170E08AE0EA
:100E500090E00E941B0A0E94350A82EE91E09F9367
:100E60008F930E943E0B0F900F90809109029091FA
:100E70000A02892B09F0B4CF0E94730A4B015C016E
:100E80002B013C014C185D086E087F08209114026C
:100E900030911502ADECBCEC0E94CF0A9695879577
:100EA00096958795A0E0B0E084159505A605B70551
:100EB00090F48D2F0E9460028D2F90E001968F712B
:100EC0009078992324F40197806E9F6F0196D82F14
:100ED0007501640185CFCE3619F0CE3409F080CF8C
:100EE0000E9434047DCFDF91CF91FF90EF90DF908F
:100EF000CF90BF90AF909F908F907F906F905F90BA
:100F00004F9008950E942C0A109211021092100224
:100F10000E94A1030E94F2010E944F0908950E94BD
:100F20002C0A6EE070E08AE090E00E941B0A8AEAD8
:100F300090E09F938F930E94540B6FE070E08AE0E3
:100F400090E00E941B0A809111028F938091100201
:100F50008F9382EF91E09F938F930E943E0B60E10D
:100F600070E08AE090E00E941B0A8CE790E09F937B
:100F70008F930E94540B8DB79EB708960FB6F894C6
:100F80009EBF0FBE8DBF10C00E944809882339F054
:100F900080912A0390912B030E94000B01C08FEFD8
:100FA000833731F0833521F00E94F2018F3F61F3E6
:100FB0000E944A0608958F929F92AF92BF92CF925D
:100FC000DF92EF92FF92CF93DF930E94730A6B013F
:100FD0007C0190C00E94F201D82F0E94480988230A
:100FE00041F080912A0390912B030E94000BC82F9F
:100FF00001C0CFEFDD2321F0C63611F0C63421F455
:1010000083E00E94AA031DC0D13021F0C43611F044
:10101000C43421F482E00E94AA0313C0D23021F02C
:10102000C33711F0C33521F481E00E94AA0309C03F
:10103000D33021F0C13611F0C13419F480E00E94A0
:10104000AA03CD3611F0CD3449F580910902909173
:101050000A02892B69F010920A021092090260E1DB
:1010600070E08AE090E00E941B0A0E94350A16C0D8
:1010700081E090E090930A028093090260E170E0C1
:101080008AE090E00E941B0A0E94350A82EE91E0FD
:101090009F938F930E943E0B0F900F9080910902B7
:1010A00090910A02892B01F50E94730A4B015C01A1
:1010B0002091140230911502ADECBCEC0E94CF0AD5
:1010C0009695879596958795A7019601280F391FC4
:1010D000411D511D82169306A406B50658F00E94C4
:1010E00034047501640106C0CE3611F0CE3411F41B
:1010F0000E9434040E94EB05882309F46BCF0E9400
:101100008F07DF91CF91FF90EF90DF90CF90BF904E
:10111000AF909F908F9008950E9437061092110211
:10112000109210020E944A060E9482070E94DB076A
:101130000E948F07F9CFCF93C82F8A3019F48DE022
:101140000E949B089FB7907802C0992329F1809153
:1011500017028F3FD1F3F894E091160281E08E0FD1
:1011600080931602F0E0E85EFD4FC0838091170285
:101170008F5F80931702809116028F3F11F41092B7
:101180001602E1ECF0E0808180628083992339F0DF
:10119000789480E090E005C081E090E002C080E0BB
:1011A00090E0CF910895809129038823E1F32FB730
:1011B0002078F894809117033091290390E0831BE5
:1011C00091095AF4E091170380912903F0E0E81B9C
:1011D000F109E85DFC4F80810AC0E091170380911E
:1011E0002903F0E0E81BF109E85EFC4F8081909153
:1011F0002903915090932903222309F0789490E0D9
:10120000089510921602109217021092170310926E
:1012100029031092280340930B02DC01CB01880FB5
:10122000991FAA1FBB1F880F991FAA1FBB1F9C01D4
:10123000AD01220F331F441F551F60E072E18AE7A2
:1012400090E00E94B00ABA01A9014F5F5F4F6F4F53
:101250007F4FDB01CA011AF40196A11DB11DB5959E
:10126000A7959795879501979093C5008093C400A3
:10127000E1ECF0E088E18083808180688083EAE2AD
:10128000F3E081E091E093838283918380830895EA
:101290009091290381E0911101C080E0089510929E
:1012A00017031092290308951F920F920FB60F9201
:1012B00011242F938F939F93EF93FF9380911702A5
:1012C000882329F1809116022091170290E0821B59
:1012D00091095AF4E091160280911702F0E0E81BA0
:1012E000F109E95EFC4F90810AC0E09116028091FD
:1012F0001702F0E0E81BF109E85EFD4F9081809154
:1013000017028150809317029093C60005C0E1EC4C
:10131000F0E080818F7D8083FF91EF919F918F918D
:101320002F910F900FBE0F901F9018951F920F9244
:101330000FB60F9211242F933F934F935F936F93A8
:101340007F938F939F93AF93BF93CF93EF93FF932D
:10135000C091C60080910B02882349F0809117024A
:101360008F3F29F060E070E08C2F0E949B088091F5
:101370002903803120F081E08093280318C0CD300C
:1013800009F4CAE0E091170381E08E0F8093170300
:10139000F0E0E85EFC4FC083809129038F5F80936B
:1013A000290380911703803111F410921703FF91E4
:1013B000EF91CF91BF91AF919F918F917F916F915D
:1013C0005F914F913F912F910F900FBE0F901F9003
:1013D000189594B1906B94B995B1906195B990E5D9
:1013E0009CBD883021F0803211F0823019F491E0F8
:1013F0009DBD01C01DBC803269F028F4883071F0B9
:10140000803161F00EC0803429F0803851F48CB501
:1014100081608CBD8CB582608CBD03C08CB5816051
:101420008CBD85B18F7E85B908958EBD0DB407FE44
:10143000FDCF8EB508959F938F937F936F938DE724
:1014400093E09F938F930E94540B0F900F900F90F7
:101450000F900F900F90089588E793E09F938F93DC
:101460000E94540B0F900F90089584E793E09F9390
:101470008F930E94540B0F900F9008951F928F939B
:101480008EE693E09F938F930E94540B0F900F90E2
:101490000F900F90089587E693E09F938F930E949B
:1014A000540B0F900F90089580E693E09F938F93D5
:1014B0000E94540B0F900F90089510920C021092FE
:1014C0000D0210920E0210920F0216BC8CE787BD1F
:1014D00092E094BD83E085BDEEE6F0E0808182601D
:1014E000808395BB08958FB7282F2078F89460915A
:1014F0000C0270910D0280910E0290910F02222336
:1015000009F0789408951F920F920FB60F9211244C
:101510008F939F93AF93BF9380910C0290910D0294
:10152000A0910E02B0910F020196A11DB11D8093F2
:101530000C0290930D02A0930E02B0930F02BF9184
:10154000AF919F918F910F900FBE0F901F901895A4
:10155000109285001092840008951092B2000895B0
:10156000052E97FB1EF400940E94C70A57FD07D072
:101570000E94DE0A07FC03D04EF40C94C70A509573
:101580004095309521953F4F4F4F5F4F089590956F
:101590008095709561957F4F8F4F9F4F0895A29FC3
:1015A000B001B39FC001A39F700D811D1124911D37
:1015B000B29F700D811D1124911D0895A1E21A2E74
:1015C000AA1BBB1BFD010DC0AA1FBB1FEE1FFF1FE7
:1015D000A217B307E407F50720F0A21BB30BE40B37
:1015E000F50B661F771F881F991F1A9469F760957E
:1015F0007095809590959B01AC01BD01CF01089538
:10160000CF93DF93EC012B8120FF33C026FF0AC06C
:101610002F7B2B838E819F8101969F838E838A816E
:1016200090E029C022FF0FC0E881F9818081082E57
:10163000000C990B009719F420622B831AC0319685
:10164000F983E8830EC0EA85FB85099597FF09C0F9
:101650002B81019611F080E201C080E1822B8B8307
:1016600008C02E813F812F5F3F4F3F832E839927F4
:1016700002C08FEF9FEFDF91CF910895A0E0B0E01F
:10168000E4E4FBE00C941B0EAE014B5F5F4FFA01EC
:1016900061917191AF0180912C0390912D030E9473
:1016A0007A0BE2E00C94370EA0E0B0E0EAE5FBE054
:1016B0000C94190EAE01495F5F4FDA016D917D9177
:1016C000AD010AE213E0F80182819381DC011396F7
:1016D0002C911397286013962C930E947A0BD801B3
:1016E0001296ED91FC9113972381277F2383E4E0E9
:1016F0000C94350EABE0B0E0E0E8FBE00C940B0E90
:101700006C017B018A01FC0117821682838181FFB3
:10171000CCC1CE0101963C01F6019381F70193FD06
:10172000859193FF81917F01882309F4BAC18532A5
:1017300039F493FD859193FF81917F01853229F4DE
:10174000B60190E00E94710DE7CF912C212C312C35
:10175000FFE1F315D8F08B3279F038F4803279F06C
:101760008332A1F4232D20611DC08D3261F08033BE
:1017700069F4232D216016C0832D8260382EE32D5D
:10178000E4603E2E2AC0F32DF8601DC037FC2DC04A
:1017900020ED280F2A3040F08E32B9F436FC81C19A
:1017A000232D2064322E19C036FE06C08AE0989E92
:1017B000200D1124922E11C0EAE02E9E200D11243E
:1017C000222EF32DF0623F2E08C08C3621F4832D9B
:1017D0008068382E02C0883641F4F70193FD859168
:1017E00093FF81917F018111B3CF982F9F7D9554F5
:1017F000933028F40C5F1F4F9FE399830DC083360D
:1018000031F0833771F0833509F059C021C0F801F8
:10181000808189830E5F1F4F88248394912C53010C
:1018200013C02801F2E04F0E511CF801A080B180D6
:1018300036FE03C0692D70E002C06FEF7FEFC50177
:101840000E94660D4C018201F32DFF773F2E16C0DA
:10185000280122E0420E511CF801A080B18036FE22
:1018600003C0692D70E002C06FEF7FEFC5010E94D9
:101870005B0D4C01F32DF0683F2E820133FC1BC041
:10188000822D90E088169906B0F4B60180E290E0CF
:101890000E94710D2A94F4CFF50137FC859137FE33
:1018A00081915F01B60190E00E94710D21102A9490
:1018B00021E0821A91088114910471F7E8C08436FE
:1018C00011F0893641F5F80137FE07C0608171815A
:1018D000828193810C5F1F4F08C060817181072E48
:1018E000000C880B990B0E5F1F4FF32DFF763F2ED8
:1018F00097FF09C090958095709561957F4F8F4FA8
:101900009F4FF0683F2E2AE030E0A3010E94AD0D0A
:10191000882E861845C0853731F4232D2F7EB22EB0
:101920002AE030E025C0932D997FB92E8F36C1F083
:1019300018F4883579F0B5C0803719F0883721F070
:10194000B0C0E92FE061BE2EB4FE0DC0FB2DF460E7
:10195000BF2E09C034FE0AC0292F2660B22E06C051
:1019600028E030E005C020E130E002C020E132E0B4
:10197000F801B7FE07C060817181828193810C5F9D
:101980001F4F06C06081718180E090E00E5F1F4FA5
:10199000A3010E94AD0D882E8618FB2DFF773F2EE8
:1019A00036FE0DC0232D2E7FA22E891458F434FE4E
:1019B0000BC032FC09C0832D8E7EA82E05C0B82C2A
:1019C000A32C03C0B82C01C0B92CA4FE0FC0FE018B
:1019D000E80DF11D8081803321F49A2D997EA92E86
:1019E00009C0A2FE06C0B394B39404C08A2D8678C1
:1019F00009F0B394A3FC11C0A0FE06C0B21488F491
:101A0000280C922C9B180EC0B21460F4B60180E230
:101A100090E00E94710DB394F7CFB21418F42B1814
:101A200002C0982C212CA4FE10C0B60180E390E0E7
:101A30000E94710DA2FE17C0A1FC03C088E790E0D0
:101A400002C088E590E0B6010CC08A2D867859F076
:101A5000A1FE02C08BE201C080E2A7FC8DE2B601CC
:101A600090E00E94710D891438F4B60180E390E093
:101A70000E94710D9A94F7CF8A94F301E80DF11D3D
:101A80008081B60190E00E94710D8110F5CF222077
:101A900009F442CEB60180E290E00E94710D2A94D2
:101AA000F6CFF6018681978102C08FEF9FEF2B96CC
:101AB000E2E10C94270EFC0105906150704001108A
:101AC000D8F7809590958E0F9F1F0895FC01615067
:101AD000704001900110D8F7809590958E0F9F1F50
:101AE00008950F931F93CF93DF93FB01238121FD73
:101AF00003C08FEF9FEF2CC022FF16C04681578195
:101B0000248135814217530744F4A081B1819D019E
:101B10002F5F3F4F318320838C93268137812F5F46
:101B20003F4F3783268314C08B01EC01FB010084F7
:101B3000F185E02D0995892BE1F6D80116968D9156
:101B40009C911797019617969C938E931697CE01AA
:101B5000DF91CF911F910F910895FA01AA272830A4
:101B600051F1203181F1E8946F936E7F6E5F7F4F6A
:101B70008F4F9F4FAF4FB1E03ED0B4E03CD0670FE6
:101B8000781F891F9A1FA11D680F791F8A1F911D39
:101B9000A11D6A0F711D811D911DA11D20D009F489
:101BA00068943F912AE0269F11243019305D3193CB
:101BB000DEF6CF010895462F4770405D4193B3E0B4
:101BC0000FD0C9F7F6CF462F4F70405D4A3318F05B
:101BD000495D31FD4052419302D0A9F7EACFB4E00C
:101BE000A6959795879577956795BA95C9F70097C4
:101BF0006105710508959B01AC010A2E0694579565
:101C0000479537952795BA95C9F7620F731F841FBB
:101C1000951FA01D08952F923F924F925F926F9251
:101C20007F928F929F92AF92BF92CF92DF92EF926C
:101C3000FF920F931F93CF93DF93CDB7DEB7CA1BED
:101C4000DB0B0FB6F894DEBF0FBECDBF09942A8818
:101C5000398848885F846E847D848C849B84AA84C0
:101C6000B984C884DF80EE80FD800C811B81AA814D
:101C7000B981CE0FD11D0FB6F894DEBF0FBECDBF18
:081C8000ED010895F894FFCF77
:101C8800FF00000003000000009B08D30800007F4D
:101C9800A47F00EF1DE900FFAA55000609060047CA
:101CA800616D652053636F72653A202020256400BA
:101CB80047616D652053636F72653A202025640083
:101CC80047616D652053636F72653A20256400474C
:101CD800616D652053636F72653A2020202025646A
:101CE8000000000008080880040204400880000082
:101CF80004020440080440022001101010100000E3
:101D080002200440088004400220044008044040A7
:101D180002200440080440022001101010100000A6
:101D2800000000000808088004020440020880003F
:101D38000201044008800402200110101220000053
:101D480002200440080440400220044008044040A7
:101D58000220044008044040022001101010000036
:101D680000004D616E75616C204D6F64653A204FBF
:101D78004E0047616D652053636F72653A20256494
:021D88000A004F
:00000001FF
