:100000000C94C3010C94E0010C94E0010C94E00109
:100010000C94E0010C941A020C94E0010C94E001A1
:100020000C94E0010C94E0010C94E0010C94E001CC
:100030000C94E0010C94E0010C94E0010C94E001BC
:100040000C94B10E0C94E0010C94E0010C94E001CE
:100050000C94C40D0C94820D0C94E0010C94E001FE
:100060000C94E0010C94E0010C94E0010C94E0018C
:100070000C94E0010C94E0010C94E0015072657363
:1000800073206120627574746F6E206F7220277305
:10009000272F27532720746F207374617274206197
:1000A000206E65772067616D650047414D45204FA3
:1000B0005645520043535345323031302F3732309A
:1000C0003120413220627920204361696C696E20C1
:1000D00044656C6761646F202D20343830323739C5
:1000E000343200205C24242020205C242420202082
:1000F00020205C2420202020205C24242020205C40
:100100002424202020202020205C24242020205C67
:10011000242420205C24242424242424205C24243B
:1001200020202020202020205C242424242424009B
:100130007C20242420207C202424202020205C24B7
:1001400024242020207C20242420207C20242420DF
:1001500020202020207C20242420207C20242420D7
:100160005C242420202020205C7C202424202020AB
:10017000202020205C2424202020202424007C20F7
:10018000242420207C2024242020205C24242024BB
:100190002420207C20242420207C20242420202093
:1001A0002020207C20242420207C2024247C202427
:1001B000242424242424247C2024242020202020BF
:1001C000207C2024245F5F2F202424007C202424F2
:1001D00024242424242420205C24245C202024247F
:1001E000207C20242424242424245C20202020205B
:1001F000207C2024242424242424247C202424201F
:1002000020202024247C2024242020205C24247CE2
:1002100020242420207C202424007C20242420202E
:1002200020202424205C24245C202F202024247CD3
:100230002024242020202024242020202020207C52
:100240002024242020202024247C20202424242432
:1002500024245C7C20202424242424245C7C20204E
:100260002424242424245C007C2024245F5F7C201C
:1002700024247C2024242020207C2024247C20244E
:10028000245F5F7C2024242020202020207C202428
:10029000245F5F7C202424202F2020202020205C2D
:1002A00020202F2020202020205C20202F202020F4
:1002B0002020205C007C20202424242424245C7C16
:1002C0002024242020207C2024247C202424242456
:1002D0002424245C2020202020207C202424202072
:1002E0007C20242420205F5F5F5F5F5F2020202030
:1002F0005F5F5F5F5F5F202020205F5F5F5F5F5F0A
:1003000000202F2020202020205C207C20205C202A
:1003100020207C20205C7C202020202020205C20AD
:100320002020202020207C20205C20207C20205C9D
:100330000020205F5F5F5F5F5F2020205F5F2020E5
:100340002020205F5F20205F5F5F5F5F5F5F202076
:10035000202020202020205F5F202020205F5F00C1
:100360001B5B3F323568001B5B3F32356C001B5B0B
:1003700025646D001B5B4B001B5B324A001B5B2539
:10038000643B2564480011241FBECFEFD8E0DEBFD8
:10039000CDBF12E0A0E0B1E0E4EEF4E202C00590CF
:1003A0000D92A03DB107D9F724E0A0EDB2E001C065
:1003B0001D92A430B207E1F70E94BA0C0C9470129F
:1003C0000C940000E8E6F0E08081826080838BB3CB
:1003D00082608BBBECE6F0E080818F6080831092BE
:1003E000D00208958091D002181614F58091D102A0
:1003F0006FB7F89491E009C0F901EF52FD4F4081C9
:10040000F901E053FD4F40839F5F292F30E0409179
:10041000D002042E000C550B241735076CF3909175
:10042000D00291509093D00266231CF478940895E2
:100430008FEF08951F920F920FB60F9211242F93F2
:100440003F934F938F939F93EF93FF9343B14F70DD
:1004500080E026C09091D00294300CF5242F30E03B
:10046000082E02C0359527950A94E2F720FF17C0A1
:100470002091D50230E0082E02C0359527950A94C8
:10048000E2F720FD0CC0E091D00291E09E0F909326
:10049000D0020E2E000CFF0BEF52FD4F80838F5FBA
:1004A0008430C0F24093D502FF91EF919F918F91DC
:1004B0004F913F912F910F900FBE0F901F90189565
:1004C0001F93CF93DF93182FD4E036C0CE3011F4B2
:1004D0004FEF01C040E02C2F30E0205E3F4F211B4A
:1004E0003109ED2FF0E0BF016250710981E090E029
:1004F000DC0102C0AA0FBB1F6A95E2F7BD01615083
:10050000710926233723339702C0880F991FEA9574
:10051000E2F701972817390729F4CE3010F44FE09D
:1005200001C040EF6D2F8C2F0E948806CF5F01C065
:10053000CBE0C03158F2DF5FD830D0F3DF91CF91FC
:100540001F9108951F93CF93DF93CDB7DEB7289700
:100550000FB6F894DEBF0FBECDBF0E94C40610E0F8
:1005600031C0E12FF0E0E15FFE4F908180E021C0DB
:10057000282F30E0492F50E0082E02C055954795AE
:100580000A94E2F740FF0DC0843010F44FE001C040
:1005900040EFE1E0F0E0EC0FFD1FE20FF31F4083BE
:1005A00007C0E1E0F0E0EC0FFD1FE20FF31F108247
:1005B0008F5F8830E8F2BE016F5F7F4F812F0E940E
:1005C000A7061F5F103168F280E00E946002289643
:1005D0000FB6F894DEBF0FBECDBFDF91CF911F9154
:1005E0000895CF93DF93CDB7DEB728970FB6F89471
:1005F000DEBF0FBECDBF0E94C40680E009C0E1E0AF
:10060000F0E0EC0FFD1FE80FF11D9FEF90838F5F6F
:100610008830A8F3BE016F5F7F4F8DE00E94A70670
:1006200080E009C0E1E0F0E0EC0FFD1FE80FF11DF4
:1006300095E590838F5F8830A8F3BE016F5F7F4F91
:100640008CE00E94A706BE016F5F7F4F8EE00E9484
:10065000A70680E009C0E1E0F0E0EC0FFD1FE80F25
:10066000F11D91E190838F5F8830A8F3BE016F5F29
:100670007F4F8BE00E94A706BE016F5F7F4F8FE028
:100680000E94A70628960FB6F894DEBF0FBECDBF16
:10069000DF91CF9108956DE070E08AE090E00E94D4
:1006A000490E0E94630E8091E0029091E1028A302F
:1006B000910534F49C01275F3F4F2930310568F4E0
:1006C0009F938F938FE191E09F938F930E946C0F84
:1006D0000F900F900F900F9008958436910534F489
:1006E0009C012E593F4F2935310568F49F938F9314
:1006F00080E391E09F938F930E946C0F0F900F9077
:100700000F900F9008958D392FEF92076CF49F93FF
:100710008F9380E491E09F938F930E946C0F0F90D2
:100720000F900F900F9008959F938F938FE491E017
:100730009F938F930E946C0F0F900F900F900F90CC
:1007400008956EE070E08AE090E00E94490E0E94F9
:10075000630E8091E2029091E3028A3091056CF081
:100760009F938F9381E691E09F938F930E946C0FEC
:100770000F900F900F900F901CC0843691056CF075
:100780009F938F9382E791E09F938F930E946C0FCA
:100790000F900F900F900F900CC09F938F9382E853
:1007A00091E09F938F930E946C0F0F900F900F908A
:1007B0000F908091E2029091E30203973CF081E078
:1007C00090E09093E5028093E40208951092E50290
:1007D0001092E40208950E94F1021092E702109232
:1007E000E6021092D6020E944B030E94A1030895D4
:1007F0001F93CF93DF93D82FCBE0A8C08FE08C1B43
:100800004091E6025091E702480F511D9A01ADEC6C
:10081000BCEC0E94FD0EFC01F695E795F695E79578
:10082000CF01880F991F880F991F8E0F9F1F4817A0
:10083000590709F08AC0FF27EC56FE4F808190E0EF
:100840000D2E02C0959587950A94E2F780FF6CC043
:1008500080910001D81312C08091E0029091E102D2
:1008600001979093E1028093E0020E944B03109263
:10087000E3021092E2020E94A1036BC0D093000138
:1008800040EF1D2F110F612F8C2F0E94880661E011
:10089000610F40EF8C2F0E948806CB3011F0CF30D3
:1008A00071F48091E0029091E10201969093E1024F
:1008B0008093E0021092E3021092E20242C0CC3038
:1008C00011F0CE3071F48091E0029091E102029635
:1008D0009093E1028093E0021092E3021092E20210
:1008E00030C0CD3071F58091E2029091E302843006
:1008F000910554F08091E0029091E102049690936A
:10090000E1028093E0021DC02091E0023091E102FB
:100910002D5F3F4F3093E1022093E00201969093C8
:10092000E3028093E2020DC08091E0029091E10227
:1009300001979093E1028093E0021092E3021092FB
:10094000E2020E944B030E94A103CF5FC03108F472
:1009500055CFDF91CF911F910895DF92EF92FF92D3
:100960000F931F93CF93DF9310E0E9C08FE0811BBB
:10097000E091E602F091E702AF01480F511D9A01A4
:10098000ADECBCEC0E94FD0EEC01D695C795D6955A
:10099000C7950C2F9F01215F3F4F0E94FD0E96953A
:1009A0008795969587958F5F08C0E82FF0E0EC5605
:1009B000FE4F90819F7019F48F5F8138B0F3E82F5C
:1009C000F0E0EC56FE4FF080013820F081E080939B
:1009D000D602B8C09A01ADECBCEC0E94FD0E969513
:1009E0008795969587959C01220F331F220F331F01
:1009F000820F931F4817590709F0A0C000E09BC061
:100A000091E0F91290E081E0011180E0892371F01A
:100A100041E0E02EEE0C6E2D80E00E94880661E041
:100A20006E0D41E080E00E94880647C091E082E0C0
:100A3000F81290E081E0013009F080E0892371F044
:100A400041E0E02EEE0C6E2D80E00E94880661E011
:100A50006E0D41E080E00E9488062FC091E084E0A6
:100A6000F81290E081E0023009F080E0892371F013
:100A700041E0E02EEE0C6E2D80E00E94880661E0E1
:100A80006E0D41E080E00E94880617C091E088E08A
:100A9000F81290E081E0033009F080E0892369F0EA
:100AA00041E0E02EEE0C6E2D80E00E94880661E0B1
:100AB0006E0D41E080E00E948806FE01FF27EC56A3
:100AC000FE4F808190E0002E02C0959587950A9494
:100AD000E2F780FF2FC01B3059F01F3071F01C303F
:100AE00089F01E30A1F01D30B9F4DD24DA9415C070
:100AF0000F2EF1E1DF2EF02D10C00F2EF1E1DF2ED1
:100B0000F02D0BC00F2EF5E5DF2EF02D06C00F2EB9
:100B1000F5E5DF2EF02D01C0D12C4D2DE02EEE0C91
:100B20006E2D812F0E94880661E06E0D4D2D812F64
:100B30000E9488060F5F043008F462CF1F5F1031F7
:100B400008F414CF8091E6029091E7020196909309
:100B5000E7028093E602C0E0C4C08FE08C1BE09106
:100B6000E602F091E702AF01480F511D9A01ADEC8A
:100B7000BCEC0E94FD0E96958795969587959C01F5
:100B8000220F331F220F331F820F931F481759075D
:100B900009F0A6C09A010E94FD0EAC01569547953A
:100BA000569547959F01215F3F4F0E94FD0E9695F8
:100BB000879596958795FC01FF27EC56FE4FE080C0
:100BC000413808F08DC08A011127C801019681388B
:100BD00091050CF085C0D0E080C0F801EC56FE4FC6
:100BE0008081282F30E00D2E02C0359527950A947C
:100BF000E2F720FF71C021E0909100019D1320E0F9
:100C000031E095EF9C0F953008F030E0222381F021
:100C1000332371F040EFFD2EFF0C6F2D8C2F0E94BF
:100C2000880661E06F0D40EF8C2F0E9488064FC050
:100C3000E81639F14FE0FD2EFF0C6F2D8C2F0E942E
:100C4000880661E06F0D4FE08C2F0E948806CF3040
:100C5000F1F58091E0029091E10201979093E10219
:100C60008093E0020E944B038091E2029091E302A4
:100C7000892B69F11092E3021092E2020E94A10313
:100C800026C04FE0FD2EFF0C6F2D8C2F0E94880692
:100C900061E06F0D4FE08C2F0E948806CF30B9F4D1
:100CA0008091E0029091E10201979093E10280939C
:100CB000E0020E944B038091E2029091E302892BB3
:100CC00031F01092E3021092E2020E94A103CF30B1
:100CD00018F08FEF80930001DF5FD43008F47DCFF0
:100CE000CF5FC03108F439CFDF91CF911F910F91C1
:100CF000FF90EF90DF9008958091D602882319F03D
:100D00001092D60281E0089580E80E94170E08959F
:100D10001F93CF93DF938031B0F46830A0F4142F89
:100D2000C62FD82F81E00E94430E6C2F677080E1A0
:100D3000689F900111248D2F8F70822B0E94430E8B
:100D4000812F0E94430EDF91CF911F9108950F9341
:100D50001F93CF938031A0F48B01C82F83E00E94B2
:100D6000430E8C2F8F700E94430EC0E007C0F80125
:100D7000EC0FF11D80810E94430ECF5FC830B8F3A5
:100D8000CF911F910F9108958FE00E94430E089517
:100D90000E9484060E94E2018FEF87B98CEF8AB926
:100DA00040E060E07BE480E090E00E942F0D0E9434
:100DB0008B0E0E94D60E0E94DB0E789408954F92FF
:100DC0005F926F927F928F929F92AF92BF92CF92DB
:100DD000DF92EF92FF92CF93DF930E945A0E0E9410
:100DE000820E0E945A0E0E94790E85E20E946C0EBD
:100DF00064E070E08AE090E00E94490E81E393E0B5
:100E00009F938F930E94820F65E070E08AE090E0EC
:100E10000E94490E81E093E09F938F930E94820F7E
:100E200066E070E08AE090E00E94490E85EB92E077
:100E30009F938F930E94820F67E070E08AE090E0BA
:100E40000E94490E88E692E09F938F930E94820F42
:100E500068E070E08AE090E00E94490E8AE192E04A
:100E60009F938F930E94820F69E070E08AE090E088
:100E70000E94490E8CEC91E09F938F930E94820F09
:100E80006AE070E08AE090E00E94490E8EE791E00F
:100E90009F938F930E94820F6BE070E08AE090E056
:100EA0000E94490E80E391E09F938F930E94820FEE
:100EB0006CE070E08AE090E00E94490E83EE90E0E2
:100EC0009F938F930E94820F6EE070E08AE090E023
:100ED0000E94490E84EB90E09F938F930E94820FB3
:100EE0000E94A2026FE070E08AE090E00E94490E4A
:100EF00085E192E09F938F930E946C0F0E94A10E58
:100F00006B017C0188EE93E09093E9028093E80204
:100F100061E170E08AE090E00E94490E0E94630E59
:100F20008091E8029091E9022DB73EB72A5E3F4FCB
:100F30000FB6F8943EBF0FBE2DBF883E33E0930737
:100F400069F49F938F9382E392E09F938F930E9423
:100F50006C0F0F900F900F900F9020C0843F21E0F6
:100F6000920769F49F938F9388E592E09F938F9304
:100F70000E946C0F0F900F900F900F900FC08A3F40
:100F8000910561F49F938F938CE792E09F938F93E9
:100F90000E946C0F0F900F900F900F90D0E00E9466
:100FA000760D882341F08091FE039091FF030E940B
:100FB0002E0FC82F01C0CFEFC33709F4CDC0C33502
:100FC00009F4CAC0C133F9F488EE93E09093E902C2
:100FD0008093E80261E170E08AE090E00E94490EAF
:100FE0000E94630E8091E9028F938091E8028F93B3
:100FF00082E392E09F938F930E946C0F0F900F906B
:101000000F900F9041C0C233F9F484EF91E09093B8
:10101000E9028093E80261E170E08AE090E00E94DA
:10102000490E0E94630E8091E9028F938091E8023D
:101030008F9388E592E09F938F930E946C0F0F909F
:101040000F900F900F9020C0C333F1F48AEF90E01F
:101050009093E9028093E80261E170E08AE090E019
:101060000E94490E0E94630E8091E9028F93809145
:10107000E8028F938CE792E09F938F930E946C0F0E
:101080000F900F900F900F900E94F2018F3F09F088
:1010900063C0CD3611F0CD3409F560E170E08AE02F
:1010A00090E00E94490E0E94630E8091D9029091B7
:1010B000DA02892B29F01092DA021092D9020EC0BE
:1010C00081E090E09093DA028093D90283EA92E083
:1010D0009F938F930E946C0F0F900F908091D90275
:1010E0009091DA02892B09F05ACF0E94A10E4B0190
:1010F0005C012B013C014C185D086E087F082091B3
:10110000E8023091E902ADECBCEC0E94FD0E969530
:10111000879596958795A0E0B0E084159505A6057E
:10112000B70590F48D2F0E9460028D2F90E00196FC
:101130008F719078992324F40197806E9F6F0196A8
:10114000D82F750164012BCFCE3619F0CE3409F0BB
:1011500026CF0E94AD0423CFDF91CF91FF90EF9077
:10116000DF90CF90BF90AF909F908F907F906F90C7
:101170005F904F900895CF93DF93EC010E94C406D7
:10118000C230D105A9F11CF4219771F174C1C330AB
:10119000D10509F4F3C0249709F4F5C06CC14FE000
:1011A00063E08C2F0E9488064FE064E08C2F0E9441
:1011B0008806C53059F44FE062E08C2F0E94880603
:1011C0004FE064E08C2F0E9488060CC0CA3051F4B6
:1011D0004FE062E08C2F0E9488064FE065E08C2F84
:1011E0000E948806CF5F01C0C4E0CB30C0F243C18B
:1011F0004FE062E084E00E9488064FE063E084E014
:101200000E9488064FE064E084E00E9488064FE078
:1012100065E084E00E9488064FE061E085E00E947E
:1012200088064FE062E085E00E9488064FE065E0B6
:1012300085E00E9488064FE066E085E00E9488060F
:101240004FE065E086E00E9488064FE066E086E0B9
:101250000E9488064FE065E087E00E9488064FE024
:1012600066E087E00E9488064FE062E088E00E9426
:1012700088064FE063E088E00E9488064FE064E063
:1012800088E00E9488064FE061E089E00E948806BD
:101290004FE062E089E00E9488064FE061E08AE06A
:1012A0000E9488064FE062E08AE00E9488064FE0D4
:1012B00063E08AE00E9488064FE064E08AE00E94D2
:1012C00088064FE065E08AE00E9488064FE066E00D
:1012D0008AE00E948806CFC0C43011F0CA30A9F459
:1012E0004FEF62E08C2F0E9488064FEF63E08C2F57
:1012F0000E9488064FEF64E08C2F0E9488064FEF13
:1013000065E08C2F0E94880637C0C53011F0C930C7
:10131000A9F44FEF61E08C2F0E9488064FEF62E046
:101320008C2F0E9488064FEF65E08C2F0E94880664
:101330004FEF66E08C2F0E9488061EC0C63011F069
:10134000C83059F44FEF65E08C2F0E9488064FEFAC
:1013500066E08C2F0E9488060FC04FEF62E08C2F52
:101360000E9488064FEF63E08C2F0E9488064FEFA3
:1013700064E08C2F0E948806CF5F01C0C4E0CB30B0
:1013800008F4AACF78C040EF61E085E00E948806AB
:1013900040EF62E085E00E94880640EF63E085E070
:1013A0000E94880640EF65E085E00E94880640EFD5
:1013B00066E085E00E94880640EF67E085E00E94D5
:1013C000880640EF60E086E00E94880640EF65E016
:1013D00086E00E94880640EF67E086E00E9488066B
:1013E00040EF60E087E00E94880640EF62E087E01F
:1013F0000E94880640EF63E087E00E94880640EF85
:1014000065E087E00E94880640EF67E087E00E9481
:10141000880640EF60E088E00E94880640EF63E0C5
:1014200088E00E94880640EF65E088E00E94880618
:1014300040EF67E088E00E94880640EF61E089E0C5
:101440000E94880640EF62E089E00E94880640EF33
:1014500063E085E00E94880640EF65E089E00E9435
:10146000880640EF66E089E00E94880640EF67E06A
:1014700089E00E948806DF91CF9108958F929F9214
:10148000AF92BF92CF92DF92EF92FF920E94A10E95
:101490004B015C0181E090E00E94BB080E94A10E1C
:1014A0006B017C01AB01BC01481959096A097B0930
:1014B0008091E8029091E902880F991FA0E0B0E0C6
:1014C000481759076A077B0748F382E090E00E94BB
:1014D000BB080E94A10E4B015C01AB01BC014C1981
:1014E0005D096E097F098091E8029091E902880FF9
:1014F000991FA0E0B0E0481759076A077B0748F337
:1015000083E090E00E94BB080E94A10E6B017C0169
:10151000AB01BC01481959096A097B098091E802AD
:101520009091E902880F991FA0E0B0E04817590791
:101530006A077B0748F384E090E00E94BB080E94A2
:10154000A10EAB01BC014C195D096E097F098091A8
:10155000E8029091E902880F991FA0E0B0E04817D7
:1015600059076A077B0758F3FF90EF90DF90CF9001
:10157000BF90AF909F908F9008950E945A0E109246
:10158000E1021092E0020E943E0A0E94EB030E94D8
:10159000F2010E947D0D08958F929F92AF92BF92AB
:1015A000CF92DF92EF92FF92CF93DF930E94A10E32
:1015B0006B017C016FE070E08AE090E00E94490ED0
:1015C00085E192E09F938F930E946C0F62E170E03F
:1015D0008AE090E00E94490E0E94630E8091E8022A
:1015E0009091E9020F900F90883E23E0920769F4F2
:1015F0009F938F9382E392E09F938F930E946C0F4F
:101600000F900F900F900F900DC1843F31E0930722
:1016100069F49F938F9388E592E09F938F930E9444
:101620006C0F0F900F900F900F90FCC08A3F9105A8
:1016300009F0F8C09F938F938CE792E09F938F936C
:101640000E946C0F0F900F900F900F90EBC00E94B4
:10165000F201D82F0E94760D882341F08091FE037D
:101660009091FF030E942E0FC82F01C0CFEFDD2302
:1016700021F0C63611F0C63421F483E00E94F8034D
:101680001DC0D13021F0C43611F0C43421F482E001
:101690000E94F80313C0D23021F0C33711F0C335D4
:1016A00021F481E00E94F80309C0D33021F0C13653
:1016B00011F0C13419F480E00E94F803CD3611F026
:1016C000CD3439F58091D7029091D802892B09F554
:1016D00060E170E08AE090E00E94490E0E94630E93
:1016E0008091D9029091DA02892B29F01092DA02C6
:1016F0001092D9020EC081E090E09093DA028093BC
:10170000D90283EA92E09F938F930E946C0F0F900F
:101710000F90C03711F0C03569F58091D9029091D2
:10172000DA02892B39F561E170E08AE090E00E94ED
:10173000490E0E94630E8091D7029091D802892BA6
:1017400041F01092D8021092D7028BB1877F8BB9EB
:1017500011C081E090E09093D8028093D7028BB1C2
:1017600088608BB983EB92E09F938F930E946C0FFC
:101770000F900F908091E2029091E302009721F484
:101780008BB18F788BB913C08130910521F48BB167
:1017900080618BB90CC08230910521F48BB18062DD
:1017A0008BB905C003971CF08BB180648BB9209175
:1017B000D9023091DA0291E04091D7025091D802DB
:1017C000452B09F090E081E02115310509F080E01A
:1017D000892301F10E94A10E4B015C012091E802D6
:1017E0003091E902ADECBCEC0E94FD0E9695879518
:1017F00096958795A7019601280F391F411D511D08
:1018000082169306A406B50668F00E94AD04750121
:10181000640108C0232B31F0CE3611F0CE3411F420
:101820000E94AD040E947C06882309F410CFDF914A
:10183000CF91FF90EF90DF90CF90BF90AF909F90AF
:101840008F9008950E945A0E6DE070E08AE090E05B
:101850000E94490E8AEA90E09F938F930E94820F24
:101860006EE070E08AE090E00E94490E8091E10213
:101870008F938091E0028F938FEB92E09F938F93F1
:101880000E946C0F6FE070E08AE090E00E94490EC9
:1018900085E192E09F938F930E946C0F60E170E06E
:1018A0008AE090E00E94490E0E94630E8091E80257
:1018B0009091E9022DB73EB7285F3F4F0FB6F894DD
:1018C0003EBF0FBE2DBF883E33E0930769F49F9360
:1018D0008F9382E392E09F938F930E946C0F0F90FF
:1018E0000F900F900F9020C0843F21E0920769F481
:1018F0009F938F9388E592E09F938F930E946C0F44
:101900000F900F900F900F900FC08A3F910561F4D8
:101910009F938F938CE792E09F938F930E946C0F1D
:101920000F900F900F900F9061E170E08AE090E0CF
:101930000E94490E8CE790E09F938F930E94820F44
:101940000F900F9010C00E94760D882339F080917F
:10195000FE039091FF030E942E0F01C08FEF83378B
:1019600031F0833521F00E94F2018F3F61F30E9434
:10197000DF0608950E94C8061092E1021092E0026C
:101980000E94DF060E94BD0A0E94CC0A0E94220C1F
:10199000F9CFCF93C82F8A3019F48DE00E94C90C7B
:1019A0009FB7907802C0992329F18091EB028F3F75
:1019B000D1F3F894E091EA0281E08E0F8093EA027D
:1019C000F0E0E451FD4FC0838091EB028F5F809384
:1019D000EB028091EA028F3F11F41092EA02E1ECEF
:1019E000F0E0808180628083992339F0789480E0F0
:1019F00090E005C081E090E002C080E090E0CF91EF
:101A000008958091FD038823E1F32FB72078F8949F
:101A10008091EB033091FD0390E0831B91095AF410
:101A2000E091EB038091FD03F0E0E81BF109E45045
:101A3000FC4F80810AC0E091EB038091FD03F0E050
:101A4000E81BF109E451FC4F80819091FD03915016
:101A50009093FD03222309F0789490E0089510926A
:101A6000EA021092EB021092EB031092FD03109227
:101A7000FC034093DB02DC01CB01880F991FAA1FF6
:101A8000BB1F880F991FAA1FBB1F9C01AD01220F0E
:101A9000331F441F551F60E072E18AE790E00E9407
:101AA000DE0EBA01A9014F5F5F4F6F4F7F4FDB0121
:101AB000CA011AF40196A11DB11DB595A795979578
:101AC000879501979093C5008093C400E1ECF0E006
:101AD00088E18083808180688083EEEFF3E081E09D
:101AE00091E0938382839183808308959091FD0395
:101AF00081E0911101C080E008951092EB031092F3
:101B0000FD0308951F920F920FB60F9211242F9389
:101B10008F939F93EF93FF938091EB02882329F19A
:101B20008091EA022091EB0290E0821B91095AF425
:101B3000E091EA028091EB02F0E0E81BF109E55147
:101B4000FC4F90810AC0E091EA028091EB02F0E044
:101B5000E81BF109E451FD4F90818091EB02815027
:101B60008093EB029093C60005C0E1ECF0E0808129
:101B70008F7D8083FF91EF919F918F912F910F9097
:101B80000FBE0F901F9018951F920F920FB60F92D5
:101B900011242F933F934F935F936F937F938F9372
:101BA0009F93AF93BF93CF93EF93FF93C091C600E2
:101BB0008091DB02882349F08091EB028F3F29F06E
:101BC00060E070E08C2F0E94C90C8091FD03803191
:101BD00020F081E08093FC0318C0CD3009F4CAE006
:101BE000E091EB0381E08E0F8093EB03F0E0E45192
:101BF000FC4FC0838091FD038F5F8093FD03809134
:101C0000EB03803111F41092EB03FF91EF91CF9130
:101C1000BF91AF919F918F917F916F915F914F9104
:101C20003F912F910F900FBE0F901F90189594B178
:101C3000906B94B995B1906195B990E59CBD883051
:101C400021F0803211F0823019F491E09DBD01C085
:101C50001DBC803269F028F4883071F0803161F069
:101C60000EC0803429F0803851F48CB581608CBD71
:101C70008CB582608CBD03C08CB581608CBD85B194
:101C80008F7E85B908958EBD0DB407FEFDCF8EB54C
:101C900008959F938F937F936F938DE793E09F9326
:101CA0008F930E94820F0F900F900F900F900F90C4
:101CB0000F90089588E793E09F938F930E94820F7F
:101CC0000F900F90089584E793E09F938F930E9465
:101CD000820F0F900F9008951F928F938EE693E0DE
:101CE0009F938F930E94820F0F900F900F900F90F1
:101CF000089587E693E09F938F930E94820F0F9041
:101D00000F90089580E693E09F938F930E94820F37
:101D10000F900F9008951092DC021092DD02109245
:101D2000DE021092DF0216BC8CE787BD92E094BD04
:101D300083E085BDEEE6F0E080818260808395BB24
:101D400008958FB7282F2078F8946091DC02709165
:101D5000DD028091DE029091DF02222309F0789467
:101D600008951F920F920FB60F9211248F939F9395
:101D7000AF93BF938091DC029091DD02A091DE02CF
:101D8000B091DF020196A11DB11D8093DC029093FA
:101D9000DD02A093DE02B093DF02BF91AF919F916D
:101DA0008F910F900FBE0F901F9018951092850085
:101DB0001092840008951092B2000895052E97FBAA
:101DC0001EF400940E94F50E57FD07D00E940C0FE0
:101DD00007FC03D04EF40C94F50E509540953095C9
:101DE00021953F4F4F4F5F4F089590958095709587
:101DF00061957F4F8F4F9F4F0895A29FB001B39F72
:101E0000C001A39F700D811D1124911DB29F700D03
:101E1000811D1124911D0895A1E21A2EAA1BBB1B3E
:101E2000FD010DC0AA1FBB1FEE1FFF1FA217B307A6
:101E3000E407F50720F0A21BB30BE40BF50B661FBC
:101E4000771F881F991F1A9469F760957095809580
:101E500090959B01AC01BD01CF010895CF93DF9315
:101E6000EC012B8120FF33C026FF0AC02F7B2B8380
:101E70008E819F8101969F838E838A8190E029C005
:101E800022FF0FC0E881F9818081082E000C990B98
:101E9000009719F420622B831AC03196F983E883E6
:101EA0000EC0EA85FB85099597FF09C02B81019635
:101EB00011F080E201C080E1822B8B8308C02E816B
:101EC0003F812F5F3F4F3F832E83992702C08FEFC3
:101ED0009FEFDF91CF910895A0E0B0E0E2E7FFE04F
:101EE0000C944912AE014B5F5F4FFA016191719101
:101EF000AF0180910004909101040E94A80FE2E0DC
:101F00000C946512A0E0B0E0E8E8FFE00C94471202
:101F1000AE01495F5F4FDA016D917D91AD010EEF2A
:101F200013E0F80182819381DC0113962C911397C1
:101F3000286013962C930E94A80FD8011296ED9159
:101F4000FC9113972381277F2383E4E00C94631291
:101F5000ABE0B0E0EEEAFFE00C9439126C017B01DB
:101F60008A01FC0117821682838181FFCCC1CE01D8
:101F700001963C01F6019381F70193FD859193FF52
:101F800081917F01882309F4BAC1853239F493FD28
:101F9000859193FF81917F01853229F4B60190E00C
:101FA0000E949F11E7CF912C212C312CFFE1F315DA
:101FB000D8F08B3279F038F4803279F08332A1F4A2
:101FC000232D20611DC08D3261F0803369F4232DF3
:101FD000216016C0832D8260382EE32DE4603E2EF2
:101FE0002AC0F32DF8601DC037FC2DC020ED280F4E
:101FF0002A3040F08E32B9F436FC81C1232D2064A2
:10200000322E19C036FE06C08AE0989E200D11249B
:10201000922E11C0EAE02E9E200D1124222EF32DC7
:10202000F0623F2E08C08C3621F4832D8068382E54
:1020300002C0883641F4F70193FD859193FF8191A9
:102040007F018111B3CF982F9F7D9554933028F451
:102050000C5F1F4F9FE399830DC0833631F08337A8
:1020600071F0833509F059C021C0F801808189835E
:102070000E5F1F4F88248394912C530113C02801B5
:10208000F2E04F0E511CF801A080B18036FE03C073
:10209000692D70E002C06FEF7FEFC5010E949411BF
:1020A0004C018201F32DFF773F2E16C0280122E05C
:1020B000420E511CF801A080B18036FE03C0692D8C
:1020C00070E002C06FEF7FEFC5010E9489114C01E3
:1020D000F32DF0683F2E820133FC1BC0822D90E06F
:1020E00088169906B0F4B60180E290E00E949F1134
:1020F0002A94F4CFF50137FC859137FE81915F0179
:10210000B60190E00E949F1121102A9421E0821ACA
:1021100091088114910471F7E8C0843611F0893672
:1021200041F5F80137FE07C060817181828193819A
:102130000C5F1F4F08C060817181072E000C880B57
:10214000990B0E5F1F4FF32DFF763F2E97FF09C0AF
:1021500090958095709561957F4F8F4F9F4FF06858
:102160003F2E2AE030E0A3010E94DB11882E861862
:1021700045C0853731F4232D2F7EB22E2AE030E082
:1021800025C0932D997FB92E8F36C1F018F488356C
:1021900079F0B5C0803719F0883721F0B0C0E92F49
:1021A000E061BE2EB4FE0DC0FB2DF460BF2E09C051
:1021B00034FE0AC0292F2660B22E06C028E030E087
:1021C00005C020E130E002C020E132E0F801B7FEB6
:1021D00007C060817181828193810C5F1F4F06C0AF
:1021E0006081718180E090E00E5F1F4FA3010E942B
:1021F000DB11882E8618FB2DFF773F2E36FE0DC093
:10220000232D2E7FA22E891458F434FE0BC032FCED
:1022100009C0832D8E7EA82E05C0B82CA32C03C028
:10222000B82C01C0B92CA4FE0FC0FE01E80DF11DB1
:102230008081803321F49A2D997EA92E09C0A2FEB7
:1022400006C0B394B39404C08A2D867809F0B39481
:10225000A3FC11C0A0FE06C0B21488F4280C922C76
:102260009B180EC0B21460F4B60180E290E00E94A8
:102270009F11B394F7CFB21418F42B1802C0982C06
:10228000212CA4FE10C0B60180E390E00E949F11B3
:10229000A2FE17C0A1FC03C088E790E002C088E559
:1022A00090E0B6010CC08A2D867859F0A1FE02C0DC
:1022B0008BE201C080E2A7FC8DE2B60190E00E94B3
:1022C0009F11891438F4B60180E390E00E949F11B9
:1022D0009A94F7CF8A94F301E80DF11D8081B6013D
:1022E00090E00E949F118110F5CF222009F442CE88
:1022F000B60180E290E00E949F112A94F6CFF60189
:102300008681978102C08FEF9FEF2B96E2E10C94BC
:102310005512FC010590615070400110D8F780956E
:1023200090958E0F9F1F0895FC01615070400190A1
:102330000110D8F7809590958E0F9F1F08950F93E9
:102340001F93CF93DF93FB01238121FD03C08FEF08
:102350009FEF2CC022FF16C0468157812481358112
:102360004217530744F4A081B1819D012F5F3F4F75
:10237000318320838C93268137812F5F3F4F3783B2
:10238000268314C08B01EC01FB010084F185E02D54
:102390000995892BE1F6D80116968D919C91179796
:1023A000019617969C938E931697CE01DF91CF914D
:1023B0001F910F910895FA01AA27283051F1203179
:1023C00081F1E8946F936E7F6E5F7F4F8F4F9F4FC9
:1023D000AF4FB1E03ED0B4E03CD0670F781F891F0B
:1023E0009A1FA11D680F791F8A1F911DA11D6A0FD9
:1023F000711D811D911DA11D20D009F468943F918C
:102400002AE0269F11243019305D3193DEF6CF018A
:102410000895462F4770405D4193B3E00FD0C9F750
:10242000F6CF462F4F70405D4A3318F0495D31FDBD
:102430004052419302D0A9F7EACFB4E0A695979510
:10244000879577956795BA95C9F7009761057105E6
:1024500008959B01AC010A2E069457954795379530
:102460002795BA95C9F7620F731F841F951FA01D8A
:1024700008952F923F924F925F926F927F928F9228
:102480009F92AF92BF92CF92DF92EF92FF920F9303
:102490001F93CF93DF93CDB7DEB7CA1BDB0B0FB60D
:1024A000F894DEBF0FBECDBF09942A8839884888CA
:1024B0005F846E847D848C849B84AA84B984C88460
:1024C000DF80EE80FD800C811B81AA81B981CE0F57
:1024D000D11D0FB6F894DEBF0FBECDBFED0108953C
:0424E000F894FFCF9E
:1024E400FF0000000300000000C90C010D00007F84
:1024F400A47F00EF1DE900FFAA5500060906004766
:10250400616D652053636F72653A20202025640055
:1025140047616D652053636F72653A20202564001E
:1025240047616D652053636F72653A2025640047E7
:10253400616D652053636F72653A20202020256405
:1025440000436F6D626F20436F756E743A202025CF
:102554006400436F6D626F20436F756E743A20257B
:102564006400436F6D626F20436F756E743A202070
:1025740020256400000000080808800402044008C4
:1025840080000004020440080440022001101010DE
:102594001000000220044008800440022004400887
:1025A400044040022004400804400220011010109E
:1025B4001000000000000008080880040204400223
:1025C4000880000201044008800402200110101257
:1025D4002000000220044008044040022004400877
:1025E400044040022004400804404002200110102E
:1025F4001000000000547261636B3A205468726FDB
:102604007567682046697265202620466C616D6591
:10261400730043757272656E742047616D65205353
:10262400706565643A203120284E6F726D616C3A92
:10263400202564206D73290043757272656E7420C1
:1026440047616D652053706565643A2032202846E1
:102654006173743A202564206D7329004375727286
:10266400656E742047616D652053706565643A201A
:1026740033202845787472656D653A202564206D91
:102684007329004D616E75616C204D6F64653A204D
:102694004F4E0047616D6520506175736564004657
:1026A400696E616C2053636F72653A2025640A0079
:00000001FF
