:100000000C94C1010C94DE010C94DE010C94DE0111
:100010000C94DE010C9418020C94DE010C94DE01A9
:100020000C94DE010C94DE010C94DE010C94DE01D4
:100030000C94DE010C94DE010C94DE010C94DE01C4
:100040000C9442090C94DE010C94DE010C94DE0148
:100050000C945E080C941C080C94DE010C94DE01D8
:100060000C94DE010C94DE010C94DE010C94DE0194
:100070000C94DE010C94DE010C94DE015072657369
:1000800073206120627574746F6E206F7220277305
:10009000272F27532720746F207374617274206197
:1000A000206E65772067616D650047414D45204FA3
:1000B0005645520043535345323031302F3732309A
:1000C0003120413220627920204361696C696E20C1
:1000D00044656C6761646F202D20343830323739C5
:1000E000343200205C24242020205C242420202082
:1000F00020205C2420202020205C24242020205C40
:100100002424202020202020205C24242020205C67
:10011000242420205C24242424242424205C24243B
:1001200020202020202020205C242424242424009B
:100130007C20242420207C202424202020205C24B7
:1001400024242020207C20242420207C20242420DF
:1001500020202020207C20242420207C20242420D7
:100160005C242420202020205C7C202424202020AB
:10017000202020205C2424202020202424007C20F7
:10018000242420207C2024242020205C24242024BB
:100190002420207C20242420207C20242420202093
:1001A0002020207C20242420207C2024247C202427
:1001B000242424242424247C2024242020202020BF
:1001C000207C2024245F5F2F202424007C202424F2
:1001D00024242424242420205C24245C202024247F
:1001E000207C20242424242424245C20202020205B
:1001F000207C2024242424242424247C202424201F
:1002000020202024247C2024242020205C24247CE2
:1002100020242420207C202424007C20242420202E
:1002200020202424205C24245C202F202024247CD3
:100230002024242020202024242020202020207C52
:100240002024242020202024247C20202424242432
:1002500024245C7C20202424242424245C7C20204E
:100260002424242424245C007C2024245F5F7C201C
:1002700024247C2024242020207C2024247C20244E
:10028000245F5F7C2024242020202020207C202428
:10029000245F5F7C202424202F2020202020205C2D
:1002A00020202F2020202020205C20202F202020F4
:1002B0002020205C007C20202424242424245C7C16
:1002C0002024242020207C2024247C202424242456
:1002D0002424245C2020202020207C202424202072
:1002E0007C20242420205F5F5F5F5F5F2020202030
:1002F0005F5F5F5F5F5F202020205F5F5F5F5F5F0A
:1003000000202F2020202020205C207C20205C202A
:1003100020207C20205C7C202020202020205C20AD
:100320002020202020207C20205C20207C20205C9D
:100330000020205F5F5F5F5F5F2020205F5F2020E5
:100340002020205F5F20205F5F5F5F5F5F5F202076
:10035000202020202020205F5F202020205F5F00C1
:100360001B5B3F323568001B5B3F32356C001B5B0B
:1003700025646D001B5B324A001B5B25643B2564D2
:10038000480011241FBECFEFD8E0DEBFCDBF11E083
:10039000A0E0B1E0E6E0FAE102C005900D92A03BDA
:1003A000B107D9F722E0A0EBB1E001C01D92AC3D4E
:1003B000B207E1F70E9456070C94010D0C9400005F
:1003C000E8E6F0E08081826080838BB382608BBB43
:1003D000ECE6F0E080818F6080831092B001089598
:1003E0008091B001181614F58091B1016FB7F8949F
:1003F00091E009C0F901EF54FE4F4081F901E05549
:10040000FE4F40839F5F292F30E04091B001042EC2
:10041000000C550B241735076CF39091B0019150E7
:100420009093B00166231CF4789408958FEF08959B
:100430001F920F920FB60F9211242F933F934F9359
:100440008F939F93EF93FF9343B14F7080E026C04B
:100450009091B00194300CF5242F30E0082E02C0AA
:10046000359527950A94E2F720FF17C02091B50132
:1004700030E0082E02C0359527950A94E2F720FD5A
:100480000CC0E091B00191E09E0F9093B0010E2E50
:10049000000CFF0BEF54FE4F80838F5F8430C0F25F
:1004A0004093B501FF91EF919F918F914F913F91B3
:1004B0002F910F900FBE0F901F9018951F93CF9301
:1004C000DF93182FD4E036C0CE3011F44FEF01C0C7
:1004D00040E02C2F30E0205E3F4F211B3109ED2FF3
:1004E000F0E0BF016250710981E090E0DC0102C0E0
:1004F000AA0FBB1F6A95E2F7BD016150710926235F
:100500003723339702C0880F991FEA95E2F70197C6
:100510002817390729F4CE3010F44FE001C040EF1E
:100520006D2F8C2F0E945D05CF5F01C0CBE0C031E5
:1005300058F2DF5FD830D0F3DF91CF911F9108954B
:100540001F93CF93DF93CDB7DEB728970FB6F894FC
:10055000DEBF0FBECDBF0E94990510E031C0E12F74
:10056000F0E0E15FFE4F908180E021C0282F30E075
:10057000492F50E0082E02C0559547950A94E2F79E
:1005800040FF0DC0843010F44FE001C040EFE1E0C7
:10059000F0E0EC0FFD1FE20FF31F408307C0E1E026
:1005A000F0E0EC0FFD1FE20FF31F10828F5F883029
:1005B000E8F2BE016F5F7F4F812F0E947C051F5FB5
:1005C000103168F280E00E945E0228960FB6F8941F
:1005D000DEBF0FBECDBFDF91CF911F910895CF93A6
:1005E000DF93CDB7DEB728970FB6F894DEBF0FBE06
:1005F000CDBF0E94990580E009C0E1E0F0E0EC0F7A
:10060000FD1FE80FF11D9FEF90838F5F8830A8F3E7
:10061000BE016F5F7F4F8DE00E947C0580E009C0C6
:10062000E1E0F0E0EC0FFD1FE80FF11D95E5908390
:100630008F5F8830A8F3BE016F5F7F4F8CE00E9410
:100640007C05BE016F5F7F4F8EE00E947C0580E0DD
:1006500009C0E1E0F0E0EC0FFD1FE80FF11D91E1B2
:1006600090838F5F8830A8F3BE016F5F7F4F8BE070
:100670000E947C05BE016F5F7F4F8FE00E947C056A
:1006800028960FB6F894DEBF0FBECDBFDF91CF9195
:1006900008950E94EF021092BF011092BE010895CA
:1006A0001F93CF93DF93D82FCBE04EC08FE08C1BEE
:1006B0004091BE015091BF01480F511D9A01ADEC10
:1006C000BCEC0E948E09FC01F695E795F695E7953E
:1006D000CF01880F991F880F991F8E0F9F1F4817F2
:1006E000590789F5FF27E15EFE4F808190E00D2ECE
:1006F00002C0959587950A94E2F780FF24C0D093B5
:10070000BD0140EF1D2F110F612F8C2F0E945D0541
:1007100061E0610F40EF8C2F0E945D05CB3011F03E
:10072000CF3031F48091BC018F5F8093BC010BC04E
:10073000CC3049F0CE3039F0CD3029F08091BC0179
:1007400081508093BC01CF5FC03108F4AFCFDF91FF
:10075000CF911F910895DF92EF92FF920F931F9315
:10076000CF93DF9310E0E9C08FE0811BE091BE01E1
:10077000F091BF01AF01480F511D9A01ADECBCECE7
:100780000E948E09EC01D695C795D695C7950C2F7A
:100790009F01215F3F4F0E948E0996958795969500
:1007A00087958F5F08C0E82FF0E0E15EFE4F9081F3
:1007B0009F7019F48F5F8138B0F3E82FF0E0E15EAD
:1007C000FE4FF080013820F081E08093B601B8C080
:1007D0009A01ADECBCEC0E948E0996958795969592
:1007E00087959C01220F331F220F331F820F931F07
:1007F0004817590709F0A0C000E09BC091E0F9122A
:1008000090E081E0011180E0892371F041E0E02E69
:10081000EE0C6E2D80E00E945D0561E06E0D41E002
:1008200080E00E945D0547C091E082E0F81290E010
:1008300081E0013009F080E0892371F041E0E02E91
:10084000EE0C6E2D80E00E945D0561E06E0D41E0D2
:1008500080E00E945D052FC091E084E0F81290E0F6
:1008600081E0023009F080E0892371F041E0E02E60
:10087000EE0C6E2D80E00E945D0561E06E0D41E0A2
:1008800080E00E945D0517C091E088E0F81290E0DA
:1008900081E0033009F080E0892369F041E0E02E37
:1008A000EE0C6E2D80E00E945D0561E06E0D41E072
:1008B00080E00E945D05FE01FF27E15EFE4F808122
:1008C00090E0002E02C0959587950A94E2F780FF8C
:1008D0002FC01B3059F01F3071F01C3089F01E30D2
:1008E000A1F01D30B9F4DD24DA9415C00F2EF1E12A
:1008F000DF2EF02D10C00F2EF1E1DF2EF02D0BC0FA
:100900000F2EF5E5DF2EF02D06C00F2EF5E5DF2EBC
:10091000F02D01C0D12C4D2DE02EEE0C6E2D812F2F
:100920000E945D0561E06E0D4D2D812F0E945D05D9
:100930000F5F043008F462CF1F5F103108F414CF4A
:100940008091BE019091BF0101969093BF01809369
:10095000BE01C0E09EC08FE08C1BE091BE01F09113
:10096000BF01AF01480F511D9A01ADECBCEC0E94D4
:100970008E0996958795969587959C01220F331F32
:10098000220F331F820F931F4817590709F080C0A9
:100990009A010E948E09AC01569547955695479548
:1009A0009F01215F3F4F0E948E09969587959695EE
:1009B0008795FC01FF27E15EFE4FE080413808F09B
:1009C00067C08A011127C8010196813891050CF092
:1009D0005FC0D0E05AC0F801E15EFE4F8081282F51
:1009E00030E00D2E02C0359527950A94E2F720FFDE
:1009F0004BC021E09091BD019D1320E031E095EFC7
:100A00009C0F953008F030E0222381F0332371F001
:100A100040EFFD2EFF0C6F2D8C2F0E945D0561E0D5
:100A20006F0D40EF8C2F0E945D0529C0E816D1F0B4
:100A300040E0FD2EFF0C6F2D80E00E945D05DD245F
:100A4000D394DF0C40E06D2D80E00E945D054FE007
:100A50006F2D8C2F0E945D054FE06D2D8C2F0E9415
:100A60005D050DC04FE0FD2EFF0C6F2D8C2F0E94F9
:100A70005D0561E06F0D4FE08C2F0E945D05CF306A
:100A800018F08FEF8093BD01DF5FD43008F4A3CF5F
:100A9000CF5FC03108F45FCFDF91CF911F910F91ED
:100AA000FF90EF90DF9008958091B601811181E071
:100AB000089580E80E94B10808951F93CF93DF93B3
:100AC0008031B0F46830A0F4142FC62FD82F81E005
:100AD0000E94DD086C2F677080E1689F90011124EF
:100AE0008D2F8F70822B0E94DD08812F0E94DD08E0
:100AF000DF91CF911F9108950F931F93CF93803172
:100B0000A0F48B01C82F83E00E94DD088C2F8F702A
:100B10000E94DD08C0E007C0F801EC0FF11D8081E4
:100B20000E94DD08CF5FC830B8F3CF911F910F91BD
:100B300008958FE00E94DD0808950E9459050E94E3
:100B4000E00140E060E07BE480E090E00E94C907C3
:100B50000E941C090E9467090E946C0978940895FC
:100B60004F925F926F927F928F929F92AF92BF92BD
:100B7000CF92DF92EF92FF92CF93DF930E94F4081F
:100B80000E9413090E94F4080E940A0985E20E944B
:100B9000FD0864E070E08AE090E00E94E30881E3F1
:100BA00093E09F938F930E94130A65E070E08AE0C0
:100BB00090E00E94E30881E093E09F938F930E946E
:100BC000130A66E070E08AE090E00E94E30885EB9B
:100BD00092E09F938F930E94130A67E070E08AE08F
:100BE00090E00E94E30888E692E09F938F930E9432
:100BF000130A68E070E08AE090E00E94E3088AE16E
:100C000092E09F938F930E94130A69E070E08AE05C
:100C100090E00E94E3088CEC91E09F938F930E94F8
:100C2000130A6AE070E08AE090E00E94E3088EE731
:100C300091E09F938F930E94130A6BE070E08AE02B
:100C400090E00E94E30880E391E09F938F930E94DD
:100C5000130A6CE070E08AE090E00E94E30883EE03
:100C600090E09F938F930E94130A6EE070E08AE0F9
:100C700090E00E94E30884EB90E09F938F930E94A2
:100C8000130A0E94A0020E9432094B015C0188EE07
:100C900093E09093C1018093C0018DB79EB74496B5
:100CA0000FB6F8949EBF0FBE8DBFC0E00E94100823
:100CB000882339F08091D6029091D7020E94BF0913
:100CC00001C08FEF833799F1833589F10E94F001DC
:100CD0008F3F69F50E9432096B017C012B013C01B9
:100CE000481859086A087B082091C0013091C10159
:100CF000ADECBCEC0E948E099695879596958795EC
:100D0000A0E0B0E084159505A605B70578F68C2F10
:100D10000E945E02D0E02196CF71D078DD2324F4CA
:100D20002197C06EDF6F219646015701BFCFDF913B
:100D3000CF91FF90EF90DF90CF90BF90AF909F90BA
:100D40008F907F906F905F904F9008950E94F4086D
:100D50001092BC010E9449030E94F0010E941708F2
:100D600008956EE070E08AE090E00E94E3088AEA6D
:100D700090E09F938F930E94130A6FE070E08AE0E7
:100D800090E00E94E3088091BC011F928F9380EA5B
:100D900091E09F938F930E94FD098CE790E09F93D1
:100DA0008F930E94130A8DB79EB708960FB6F894DA
:100DB0009EBF0FBE8DBF0E94F0018F3FE1F30895EB
:100DC0008F929F92AF92BF92CF92DF92EF92FF925B
:100DD000CF930E9432094B015C0157C00E94F00181
:100DE000C82F0E941008882341F08091D60290916C
:100DF000D7020E94BF0980930001CC2331F080917B
:100E00000001863611F0863421F483E00E945003FD
:100E10001DC0C13021F0843611F0843421F482E009
:100E20000E94500313C0C23021F0833711F0833584
:100E300021F481E00E94500309C0C33021F08136C3
:100E400011F0813419F480E00E9450030E943209AD
:100E50006B017C012091C0013091C101ADECBCEC73
:100E60000E948E099695879596958795A501940180
:100E7000280F391F411D511DC216D306E406F50681
:100E800020F00E94AB03460157010E9454058823BD
:100E900009F4A4CF0E94B106CF91FF90EF90DF90AC
:100EA000CF90BF90AF909F908F9008950E949D0526
:100EB0001092BC010E94B0050E94A6060E94E006A6
:100EC0000E94B106F9CFCF93C82F8A3019F48DE074
:100ED0000E9463079FB7907802C0992329F18091FF
:100EE000C3018F3FD1F3F894E091C20181E08E0FEE
:100EF0008093C201F0E0EC53FE4FC0838091C301A8
:100F00008F5F8093C3018091C2018F3F11F41092D3
:100F1000C201E1ECF0E0808180628083992339F0A6
:100F2000789480E090E005C081E090E002C080E02D
:100F300090E0CF9108958091D5028823E1F32FB7F7
:100F40002078F8948091C3023091D50290E0831B01
:100F500091095AF4E091C3028091D502F0E0E81BB8
:100F6000F109EC52FD4F80810AC0E091C3028091EB
:100F7000D502F0E0E81BF109EC53FD4F8081909120
:100F8000D50291509093D502222309F0789490E0F5
:100F900008951092C2011092C3011092C3021092E0
:100FA000D5021092D4024093B701DC01CB01880F27
:100FB000991FAA1FBB1F880F991FAA1FBB1F9C0147
:100FC000AD01220F331F441F551F60E072E18AE715
:100FD00090E00E946F09BA01A9014F5F5F4F6F4F08
:100FE0007F4FDB01CA011AF40196A11DB11DB59511
:100FF000A7959795879501979093C5008093C40016
:10100000E1ECF0E088E18083808180688083E6ED18
:10101000F2E081E091E0938382839183808308955D
:101020009091D50281E0911101C080E00895109265
:10103000C3021092D50208951F920F920FB60F921D
:1010400011242F938F939F93EF93FF938091C3016C
:10105000882329F18091C2012091C30190E0821B75
:1010600091095AF4E091C2018091C301F0E0E81BBC
:10107000F109ED53FD4F90810AC0E091C2018091CA
:10108000C301F0E0E81BF109EC53FE4F9081809121
:10109000C30181508093C3019093C60005C0E1EC69
:1010A000F0E080818F7D8083FF91EF919F918F9100
:1010B0002F910F900FBE0F901F9018951F920F92B7
:1010C0000FB60F9211242F933F934F935F936F931B
:1010D0007F938F939F93AF93BF93CF93EF93FF93A0
:1010E000C091C6008091B701882349F08091C30167
:1010F0008F3F29F060E070E08C2F0E9463078091A1
:10110000D502803120F081E08093D40218C0CD3028
:1011100009F4CAE0E091C30281E08E0F8093C3021C
:10112000F0E0EC53FD4FC0838091D5028F5F809338
:10113000D5028091C302803111F41092C302FF9155
:10114000EF91CF91BF91AF919F918F917F916F91CF
:101150005F914F913F912F910F900FBE0F901F9075
:10116000189594B1906B94B995B1906195B990E54B
:101170009CBD883021F0803211F0823019F491E06A
:101180009DBD01C01DBC803269F028F4883071F02B
:10119000803161F00EC0803429F0803851F48CB574
:1011A00081608CBD8CB582608CBD03C08CB58160C4
:1011B0008CBD85B18F7E85B908958EBD0DB407FEB7
:1011C000FDCF8EB508959F938F937F936F9389E79B
:1011D00093E09F938F930E94130A0F900F900F90AC
:1011E0000F900F900F90089584E793E09F938F9353
:1011F0000E94130A0F900F9008951F928F938EE60E
:1012000093E09F938F930E94130A0F900F900F907B
:101210000F90089587E693E09F938F930E94130A9F
:101220000F900F90089580E693E09F938F930E9414
:10123000130A0F900F9008951092B8011092B901FF
:101240001092BA011092BB0116BC8CE787BD92E0E8
:1012500094BD83E085BDEEE6F0E08081826080830E
:1012600095BB08958FB7282F2078F8946091B80126
:101270007091B9018091BA019091BB01222309F0CC
:10128000789408951F920F920FB60F9211248F93A6
:101290009F93AF93BF938091B8019091B901A091B2
:1012A000BA01B091BB010196A11DB11D8093B80197
:1012B0009093B901A093BA01B093BB01BF91AF91D4
:1012C0009F918F910F900FBE0F901F9018951092C5
:1012D00085001092840008951092B2000895052EA2
:1012E00097FB1EF400940E94860957FD07D00E94C8
:1012F0009D0907FC03D04EF40C9486095095409547
:10130000309521953F4F4F4F5F4F089590958095B1
:10131000709561957F4F8F4F9F4F0895A29FB001A9
:10132000B39FC001A39F700D811D1124911DB29F19
:10133000700D811D1124911D0895A1E21A2EAA1B82
:10134000BB1BFD010DC0AA1FBB1FEE1FFF1FA21775
:10135000B307E407F50720F0A21BB30BE40BF50B72
:10136000661F771F881F991F1A9469F760957095FB
:10137000809590959B01AC01BD01CF010895CF935D
:10138000DF93EC012B8120FF33C026FF0AC02F7BA7
:101390002B838E819F8101969F838E838A8190E02B
:1013A00029C022FF0FC0E881F9818081082E000C3E
:1013B000990B009719F420622B831AC03196F98398
:1013C000E8830EC0EA85FB85099597FF09C02B814C
:1013D000019611F080E201C080E1822B8B8308C06E
:1013E0002E813F812F5F3F4F3F832E83992702C07D
:1013F0008FEF9FEFDF91CF910895A0E0B0E0E3E0A1
:10140000FAE00C94DA0CAE014B5F5F4FFA01619188
:101410007191AF018091D8029091D9020E94390A4E
:10142000E2E00C94F60CA0E0B0E0E9E1FAE00C9404
:10143000D80CAE01495F5F4FDA016D917D91AD012E
:1014400006ED12E0F80182819381DC0113962C9164
:101450001397286013962C930E94390AD80112968C
:10146000ED91FC9113972381277F2383E4E00C9473
:10147000F40CABE0B0E0EFE3FAE00C94CA0C6C01C2
:101480007B018A01FC0117821682838181FFCCC116
:10149000CE0101963C01F6019381F70193FD859100
:1014A00093FF81917F01882309F4BAC1853239F411
:1014B00093FD859193FF81917F01853229F4B601D7
:1014C00090E00E94300CE7CF912C212C312CFFE1D1
:1014D000F315D8F08B3279F038F4803279F083321A
:1014E000A1F4232D20611DC08D3261F0803369F499
:1014F000232D216016C0832D8260382EE32DE460F9
:101500003E2E2AC0F32DF8601DC037FC2DC020ED03
:10151000280F2A3040F08E32B9F436FC81C1232DD9
:101520002064322E19C036FE06C08AE0989E200D37
:101530001124922E11C0EAE02E9E200D1124222E9D
:10154000F32DF0623F2E08C08C3621F4832D806885
:10155000382E02C0883641F4F70193FD859193FF40
:1015600081917F018111B3CF982F9F7D9554933046
:1015700028F40C5F1F4F9FE399830DC0833631F031
:10158000833771F0833509F059C021C0F80180819B
:1015900089830E5F1F4F88248394912C530113C0BD
:1015A0002801F2E04F0E511CF801A080B18036FEF8
:1015B00003C0692D70E002C06FEF7FEFC5010E948C
:1015C000250C4C018201F32DFF773F2E16C0280118
:1015D00022E0420E511CF801A080B18036FE03C00B
:1015E000692D70E002C06FEF7FEFC5010E941A0CF9
:1015F0004C01F32DF0683F2E820133FC1BC0822D7D
:1016000090E088169906B0F4B60180E290E00E945E
:10161000300C2A94F4CFF50137FC859137FE819187
:101620005F01B60190E00E94300C21102A9421E065
:10163000821A91088114910471F7E8C0843611F080
:10164000893641F5F80137FE07C0608171818281DA
:1016500093810C5F1F4F08C060817181072E000CC1
:10166000880B990B0E5F1F4FF32DFF763F2E97FFD0
:1016700009C090958095709561957F4F8F4F9F4FD2
:10168000F0683F2E2AE030E0A3010E946C0C882E07
:10169000861845C0853731F4232D2F7EB22E2AE0DF
:1016A00030E025C0932D997FB92E8F36C1F018F404
:1016B000883579F0B5C0803719F0883721F0B0C08F
:1016C000E92FE061BE2EB4FE0DC0FB2DF460BF2EED
:1016D00009C034FE0AC0292F2660B22E06C028E0B9
:1016E00030E005C020E130E002C020E132E0F80146
:1016F000B7FE07C060817181828193810C5F1F4FAB
:1017000006C06081718180E090E00E5F1F4FA301F1
:101710000E946C0C882E8618FB2DFF773F2E36FE1C
:101720000DC0232D2E7FA22E891458F434FE0BC039
:1017300032FC09C0832D8E7EA82E05C0B82CA32CA8
:1017400003C0B82C01C0B92CA4FE0FC0FE01E80DE7
:10175000F11D8081803321F49A2D997EA92E09C034
:10176000A2FE06C0B394B39404C08A2D867809F013
:10177000B394A3FC11C0A0FE06C0B21488F4280CD8
:10178000922C9B180EC0B21460F4B60180E290E077
:101790000E94300CB394F7CFB21418F42B1802C087
:1017A000982C212CA4FE10C0B60180E390E00E948A
:1017B000300CA2FE17C0A1FC03C088E790E002C075
:1017C00088E590E0B6010CC08A2D867859F0A1FE1C
:1017D00002C08BE201C080E2A7FC8DE2B60190E07E
:1017E0000E94300C891438F4B60180E390E00E9426
:1017F000300C9A94F7CF8A94F301E80DF11D8081A3
:10180000B60190E00E94300C8110F5CF222009F43F
:1018100042CEB60180E290E00E94300C2A94F6CFCE
:10182000F6018681978102C08FEF9FEF2B96E2E150
:101830000C94E60CFC010590615070400110D8F743
:10184000809590958E0F9F1F0895FC016150704008
:1018500001900110D8F7809590958E0F9F1F0895E5
:101860000F931F93CF93DF93FB01238121FD03C0CF
:101870008FEF9FEF2CC022FF16C046815781248135
:1018800035814217530744F4A081B1819D012F5F38
:101890003F4F318320838C93268137812F5F3F4FC9
:1018A0003783268314C08B01EC01FB010084F18592
:1018B000E02D0995892BE1F6D80116968D919C9122
:1018C0001797019617969C938E931697CE01DF91EA
:1018D000CF911F910F910895FA01AA27283051F155
:1018E000203181F1E8946F936E7F6E5F7F4F8F4F51
:1018F0009F4FAF4FB1E03ED0B4E03CD0670F781FB0
:10190000891F9A1FA11D680F791F8A1F911DA11D94
:101910006A0F711D811D911DA11D20D009F46894CD
:101920003F912AE0269F11243019305D3193DEF675
:10193000CF010895462F4770405D4193B3E00FD02B
:10194000C9F7F6CF462F4F70405D4A3318F0495D16
:1019500031FD4052419302D0A9F7EACFB4E0A695F9
:101960009795879577956795BA95C9F7009761051B
:10197000710508959B01AC010A2E06945795479571
:1019800037952795BA95C9F7620F731F841F951F66
:10199000A01D08952F923F924F925F926F927F9277
:1019A0008F929F92AF92BF92CF92DF92EF92FF926F
:1019B0000F931F93CF93DF93CDB7DEB7CA1BDB0B1B
:1019C0000FB6F894DEBF0FBECDBF09942A883988C0
:1019D00048885F846E847D848C849B84AA84B984C7
:1019E000C884DF80EE80FD800C811B81AA81B981D3
:1019F000CE0FD11D0FB6F894DEBF0FBECDBFED01E7
:061A00000895F894FFCFE9
:101A0600FF000000030000000063079B0700007F43
:101A1600A47F00EF1DE900FFAA5500060906000095
:101A26000000080808800402044008800000040240
:101A3600044008044002200110101010000002208B
:101A4600044008800440022004400804404002206C
:101A5600044008044002200110101010000000008D
:101A66000000080808800402044002088000020101
:101A760004400880040220011010122000000220F9
:101A8600044008044040022004400804404002206C
:101A9600044008044040022001101010000000001D
:101AA60047616D652053636F72653A2025640000B7
:00000001FF
