:100000000C94C3010C94E0010C94E0010C94E00109
:100010000C94E0010C941A020C94E0010C94E001A1
:100020000C94E0010C94E0010C94E0010C94E001CC
:100030000C94E0010C94E0010C94E0010C94E001BC
:100040000C944F0D0C94E0010C94E0010C94E00131
:100050000C94620C0C94200C0C94E0010C94E001C4
:100060000C94E0010C94E0010C94E0010C94E0018C
:100070000C94E0010C94E0010C94E0015072657363
:1000800073206120627574746F6E206F7220277305
:10009000272F27532720746F207374617274206197
:1000A000206E65772067616D650047414D45204FA3
:1000B0005645520043535345323031302F3732309A
:1000C0003120413220627920204361696C696E20C1
:1000D00044656C6761646F202D20343830323739C5
:1000E000343200205C24242020205C242420202082
:1000F00020205C2420202020205C24242020205C40
:100100002424202020202020205C24242020205C67
:10011000242420205C24242424242424205C24243B
:1001200020202020202020205C242424242424009B
:100130007C20242420207C202424202020205C24B7
:1001400024242020207C20242420207C20242420DF
:1001500020202020207C20242420207C20242420D7
:100160005C242420202020205C7C202424202020AB
:10017000202020205C2424202020202424007C20F7
:10018000242420207C2024242020205C24242024BB
:100190002420207C20242420207C20242420202093
:1001A0002020207C20242420207C2024247C202427
:1001B000242424242424247C2024242020202020BF
:1001C000207C2024245F5F2F202424007C202424F2
:1001D00024242424242420205C24245C202024247F
:1001E000207C20242424242424245C20202020205B
:1001F000207C2024242424242424247C202424201F
:1002000020202024247C2024242020205C24247CE2
:1002100020242420207C202424007C20242420202E
:1002200020202424205C24245C202F202024247CD3
:100230002024242020202024242020202020207C52
:100240002024242020202024247C20202424242432
:1002500024245C7C20202424242424245C7C20204E
:100260002424242424245C007C2024245F5F7C201C
:1002700024247C2024242020207C2024247C20244E
:10028000245F5F7C2024242020202020207C202428
:10029000245F5F7C202424202F2020202020205C2D
:1002A00020202F2020202020205C20202F202020F4
:1002B0002020205C007C20202424242424245C7C16
:1002C0002024242020207C2024247C202424242456
:1002D0002424245C2020202020207C202424202072
:1002E0007C20242420205F5F5F5F5F5F2020202030
:1002F0005F5F5F5F5F5F202020205F5F5F5F5F5F0A
:1003000000202F2020202020205C207C20205C202A
:1003100020207C20205C7C202020202020205C20AD
:100320002020202020207C20205C20207C20205C9D
:100330000020205F5F5F5F5F5F2020205F5F2020E5
:100340002020205F5F20205F5F5F5F5F5F5F202076
:10035000202020202020205F5F202020205F5F00C1
:100360001B5B3F323568001B5B3F32356C001B5B0B
:1003700025646D001B5B4B001B5B324A001B5B2539
:10038000643B2564480011241FBECFEFD8E0DEBFD8
:10039000CDBF12E0A0E0B1E0E0E2F2E202C00590E1
:1003A0000D92A43EB107D9F724E0A4EEB2E001C05B
:1003B0001D92A231B207E1F70E94580B0C940E1166
:1003C0000C940000E8E6F0E08081826080838BB3CB
:1003D00082608BBBECE6F0E080818F6080831092BE
:1003E000E40208958091E402181614F58091E50264
:1003F0006FB7F89491E009C0F901EB51FD4F4081CE
:10040000F901EC51FD4F40839F5F292F30E040916F
:10041000E402042E000C550B241735076CF3909161
:10042000E40291509093E40266231CF478940895BA
:100430008FEF08951F920F920FB60F9211242F93F2
:100440003F934F938F939F93EF93FF9343B14F70DD
:1004500080E026C09091E40294300CF5242F30E027
:10046000082E02C0359527950A94E2F720FF17C0A1
:100470002091E90230E0082E02C0359527950A94B4
:10048000E2F720FD0CC0E091E40291E09E0F909312
:10049000E4020E2E000CFF0BEB51FD4F80838F5FAB
:1004A0008430C0F24093E902FF91EF919F918F91C8
:1004B0004F913F912F910F900FBE0F901F90189565
:1004C0001F93CF93DF93182FD4E036C0CE3011F4B2
:1004D0004FEF01C040E02C2F30E0205E3F4F211B4A
:1004E0003109ED2FF0E0BF016250710981E090E029
:1004F000DC0102C0AA0FBB1F6A95E2F7BD01615083
:10050000710926233723339702C0880F991FEA9574
:10051000E2F701972817390729F4CE3010F44FE09D
:1005200001C040EF6D2F8C2F0E94F905CF5F01C0F5
:10053000CBE0C03158F2DF5FD830D0F3DF91CF91FC
:100540001F9108951F93CF93DF93CDB7DEB7289700
:100550000FB6F894DEBF0FBECDBF0E94350610E087
:1005600031C0E12FF0E0E15FFE4F908180E021C0DB
:10057000282F30E0492F50E0082E02C055954795AE
:100580000A94E2F740FF0DC0843010F44FE001C040
:1005900040EFE1E0F0E0EC0FFD1FE20FF31F4083BE
:1005A00007C0E1E0F0E0EC0FFD1FE20FF31F108247
:1005B0008F5F8830E8F2BE016F5F7F4F812F0E940E
:1005C00018061F5F103168F280E00E9460022896D2
:1005D0000FB6F894DEBF0FBECDBFDF91CF911F9154
:1005E0000895CF93DF93CDB7DEB728970FB6F89471
:1005F000DEBF0FBECDBF0E94350680E009C0E1E03E
:10060000F0E0EC0FFD1FE80FF11D9FEF90838F5F6F
:100610008830A8F3BE016F5F7F4F8DE00E941806FF
:1006200080E009C0E1E0F0E0EC0FFD1FE80FF11DF4
:1006300095E590838F5F8830A8F3BE016F5F7F4F91
:100640008CE00E941806BE016F5F7F4F8EE00E9413
:10065000180680E009C0E1E0F0E0EC0FFD1FE80FB4
:10066000F11D91E190838F5F8830A8F3BE016F5F29
:100670007F4F8BE00E941806BE016F5F7F4F8FE0B7
:100680000E94180628960FB6F894DEBF0FBECDBFA5
:10069000DF91CF9108956EE070E08AE090E00E94D3
:1006A000E70C0E94010D8091F2029091F3028A30D2
:1006B000910534F49C01275F3F4F2930310568F4E0
:1006C0009F938F938FE191E09F938F930E940A0EE7
:1006D0000F900F900F900F9008958436910534F489
:1006E0009C012E593F4F2935310568F49F938F9314
:1006F00080E391E09F938F930E940A0E0F900F90DA
:100700000F900F9008958D392FEF92076CF49F93FF
:100710008F9380E491E09F938F930E940A0E0F9035
:100720000F900F900F9008959F938F938FE491E017
:100730009F938F930E940A0E0F900F900F900F902F
:1007400008950E94F1021092F5021092F4021092A4
:10075000EA020E944B0308951F93CF93DF93D82F93
:10076000CBE07DC08FE08C1B4091F4025091F502EC
:10077000480F511D9A01ADECBCEC0E949B0DFC0191
:10078000F695E795F695E795CF01880F991F880FA5
:10079000991F8E0F9F1F4817590709F05FC0FF2749
:1007A000EF59FE4F808190E00D2E02C09595879500
:1007B0000A94E2F780FF47C080910001D8130CC073
:1007C0008091F2029091F30201979093F30280934B
:1007D000F2020E944B0346C0D093000140EF1D2F50
:1007E000110F612F8C2F0E94F90561E0610F40EF1E
:1007F0008C2F0E94F905CB3011F0CF3051F480914D
:10080000F2029091F30201969093F3028093F20228
:1008100023C0CC3011F0CE3051F48091F20290918F
:10082000F30202969093F3028093F20215C0CD304A
:1008300099F48091F2029091F30203969093F3025F
:100840008093F20209C08091F2029091F302019725
:100850009093F3028093F2020E944B03CF5FC0316A
:1008600008F480CFDF91CF911F910895DF92EF922E
:10087000FF920F931F93CF93DF9310E0E9C08FE0B7
:10088000811BE091F402F091F502AF01480F511D78
:100890009A01ADECBCEC0E949B0DEC01D695C7957E
:1008A000D695C7950C2F9F01215F3F4F0E949B0D4E
:1008B00096958795969587958F5F08C0E82FF0E00D
:1008C000EF59FE4F90819F7019F48F5F8138B0F31C
:1008D000E82FF0E0EF59FE4FF080013820F081E082
:1008E0008093EA02B8C09A01ADECBCEC0E949B0D6B
:1008F00096958795969587959C01220F331F220F19
:10090000331F820F931F4817590709F0A0C000E05A
:100910009BC091E0F91290E081E0011180E0892311
:1009200071F041E0E02EEE0C6E2D80E00E94F905A2
:1009300061E06E0D41E080E00E94F90547C091E062
:1009400082E0F81290E081E0013009F080E0892334
:1009500071F041E0E02EEE0C6E2D80E00E94F90572
:1009600061E06E0D41E080E00E94F9052FC091E04A
:1009700084E0F81290E081E0023009F080E0892301
:1009800071F041E0E02EEE0C6E2D80E00E94F90542
:1009900061E06E0D41E080E00E94F90517C091E032
:1009A00088E0F81290E081E0033009F080E08923CC
:1009B00069F041E0E02EEE0C6E2D80E00E94F9051A
:1009C00061E06E0D41E080E00E94F905FE01FF2725
:1009D000EF59FE4F808190E0002E02C095958795DB
:1009E0000A94E2F780FF2FC01B3059F01F3071F0DE
:1009F0001C3089F01E30A1F01D30B9F4DD24DA94EA
:100A000015C00F2EF1E1DF2EF02D10C00F2EF1E1F9
:100A1000DF2EF02D0BC00F2EF5E5DF2EF02D06C0DA
:100A20000F2EF5E5DF2EF02D01C0D12C4D2DE02E3F
:100A3000EE0C6E2D812F0E94F90561E06E0D4D2D9B
:100A4000812F0E94F9050F5F043008F462CF1F5F09
:100A5000103108F414CF8091F4029091F5020196C0
:100A60009093F5028093F402C0E0ACC08FE08C1B41
:100A7000E091F402F091F502AF01480F511D9A0187
:100A8000ADECBCEC0E949B0D96958795969587954D
:100A90009C01220F331F220F331F820F931F481711
:100AA000590709F08EC09A010E949B0DAC01569522
:100AB0004795569547959F01215F3F4F0E949B0D9B
:100AC0009695879596958795FC01FF27EF59FE4FE0
:100AD000E080413808F075C08A011127C8010196ED
:100AE000813891050CF06DC0D0E068C0F801EF5975
:100AF000FE4F8081282F30E00D2E02C035952795BE
:100B00000A94E2F720FF59C021E0909100019D1363
:100B100020E031E095EF9C0F953008F030E0222383
:100B200081F0332371F040EFFD2EFF0C6F2D8C2FE1
:100B30000E94F90561E06F0D40EF8C2F0E94F905CE
:100B400037C0E816D9F04FE0FD2EFF0C6F2D8C2F2B
:100B50000E94F90561E06F0D4FE08C2F0E94F905AE
:100B6000CF3031F58091F2029091F302019790938A
:100B7000F3028093F2020E944B031AC04FE0FD2E55
:100B8000FF0C6F2D8C2F0E94F90561E06F0D4FE077
:100B90008C2F0E94F905CF3059F48091F202909188
:100BA000F30201979093F3028093F2020E944B03A9
:100BB000CF3018F08FEF80930001DF5FD43008F45E
:100BC00095CFCF5FC03108F451CFDF91CF911F9106
:100BD0000F91FF90EF90DF9008958091EA028823B3
:100BE00019F01092EA0281E0089580E80E94B50CA5
:100BF00008951F93CF93DF938031B0F46830A0F451
:100C0000142FC62FD82F81E00E94E10C6C2F677043
:100C100080E1689F900111248D2F8F70822B0E949C
:100C2000E10C812F0E94E10CDF91CF911F9108957B
:100C30000F931F93CF938031A0F48B01C82F83E0D3
:100C40000E94E10C8C2F8F700E94E10CC0E007C065
:100C5000F801EC0FF11D80810E94E10CCF5FC830DC
:100C6000B8F3CF911F910F9108958FE00E94E10C8E
:100C700008950E94F5050E94E20140E060E07BE4F7
:100C800080E090E00E94CD0B0E94290D0E94740D1F
:100C90000E94790D789408954F925F926F927F929F
:100CA0008F929F92AF92BF92CF92DF92EF92FF927C
:100CB000CF93DF930E94F80C0E94200D0E94F80C45
:100CC0000E94170D85E20E940A0D64E070E08AE040
:100CD00090E00E94E70C81E393E09F938F930E9442
:100CE000200E65E070E08AE090E00E94E70C81E071
:100CF00093E09F938F930E94200E66E070E08AE05D
:100D000090E00E94E70C85EB92E09F938F930E9406
:100D1000200E67E070E08AE090E00E94E70C88E631
:100D200092E09F938F930E94200E68E070E08AE02B
:100D300090E00E94E70C8AE192E09F938F930E94DB
:100D4000200E69E070E08AE090E00E94E70C8CECF5
:100D500091E09F938F930E94200E6AE070E08AE0FA
:100D600090E00E94E70C8EE791E09F938F930E94A2
:100D7000200E6BE070E08AE090E00E94E70C80E3D8
:100D800091E09F938F930E94200E6CE070E08AE0C8
:100D900090E00E94E70C83EE90E09F938F930E9477
:100DA000200E6EE070E08AE090E00E94E70C84EB99
:100DB00090E09F938F930E94200E0E94A2020E94B7
:100DC0003F0D6B017C0188EE93E09093F7028093D6
:100DD000F60261E170E08AE090E00E94E70C809109
:100DE000F6029091F7022DB73EB72C5E3F4F0FB63B
:100DF000F8943EBF0FBE2DBF883E33E0930799F4B1
:100E00000E94010D8091F7028F938091F6028F93DB
:100E100082EE91E09F938F930E940A0E0F900F90A5
:100E20000F900F902CC0843F21E0920799F40E940C
:100E3000010D8091F7028F938091F6028F9388E0E5
:100E400092E09F938F930E940A0E0F900F900F9045
:100E50000F9015C08A3F910591F40E94010D809179
:100E6000F7028F938091F6028F938CE292E09F932A
:100E70008F930E940A0E0F900F900F900F90D0E06A
:100E80000E94140C882341F080910C0490910D0471
:100E90000E94CC0DC82F01C0CFEFC33709F4EDC0BD
:100EA000C33509F4EAC0C133F9F488EE93E09093B6
:100EB000F7028093F60261E170E08AE090E00E9420
:100EC000E70C0E94010D8091F7028F938091F6024A
:100ED0008F9382E592E09F938F930E940A0E0F906A
:100EE0000F900F900F9059C0C233F9F484EF91E046
:100EF0009093F7028093F60261E170E08AE090E05F
:100F00000E94E70C0E94010D8091F7028F9380915F
:100F1000F6028F9382E592E09F938F930E940A0ED0
:100F20000F900F900F900F9038C0C333B1F58AEF38
:100F300090E09093F7028093F60261E170E08AE01E
:100F400090E00E94E70C0E94010D8091F7028F93C0
:100F50008091F6028F9388E792E09F938F930E948F
:100F60000A0E61E170E08AE090E00E94E70C0E94C6
:100F7000010D8091F7028F938091F6028F938CE997
:100F800092E09F938F930E940A0E8DB79EB70896AA
:100F90000FB6F8949EBF0FBE8DBF0E94F2018F3F27
:100FA00009F06BC0CD3611F0CD3449F58091EB02DC
:100FB0009091EC02892B69F01092EC021092EB02F6
:100FC00060E170E08AE090E00E94E70C0E94010D71
:100FD00016C081E090E09093EC028093EB0260E118
:100FE00070E08AE090E00E94E70C0E94010D83EC23
:100FF00092E09F938F930E940A0E0F900F90809122
:10100000EB029091EC02892B09F03ACF0E943F0D40
:101010004B015C012B013C014C185D086E087F08F8
:101020002091F6023091F702ADECBCEC0E949B0DD2
:101030009695879596958795A0E0B0E084159505DF
:10104000A605B70590F48D2F0E9460028D2F90E0C9
:1010500001968F719078992324F40197806E9F6F89
:101060000196D82F750164010BCFCE3619F0CE341E
:1010700009F006CF0E94360403CFDF91CF91FF9095
:10108000EF90DF90CF90BF90AF909F908F907F9028
:101090006F905F904F900895CF93DF93EC010E9483
:1010A0003506C230D105A9F11CF4219771F174C144
:1010B000C330D10509F4F3C0249709F4F5C06CC11D
:1010C0004FE063E08C2F0E94F9054FE064E08C2F25
:1010D0000E94F905C53059F44FE062E08C2F0E9460
:1010E000F9054FE064E08C2F0E94F9050CC0CA306E
:1010F00051F44FE062E08C2F0E94F9054FE065E06B
:101100008C2F0E94F905CF5F01C0C4E0CB30C0F244
:1011100043C14FE062E084E00E94F9054FE063E0E4
:1011200084E00E94F9054FE064E084E00E94F90544
:101130004FE065E084E00E94F9054FE061E085E062
:101140000E94F9054FE062E085E00E94F9054FE05A
:1011500065E085E00E94F9054FE066E085E00E94C9
:10116000F9054FE065E086E00E94F9054FE066E092
:1011700086E00E94F9054FE065E087E00E94F905EE
:101180004FE066E087E00E94F9054FE062E088E00A
:101190000E94F9054FE063E088E00E94F9054FE006
:1011A00064E088E00E94F9054FE061E089E00E9478
:1011B000F9054FE062E089E00E94F9054FE061E047
:1011C0008AE00E94F9054FE062E08AE00E94F9059A
:1011D0004FE063E08AE00E94F9054FE064E08AE0B6
:1011E0000E94F9054FE065E08AE00E94F9054FE0B2
:1011F00066E08AE00E94F905CFC0C43011F0CA3021
:10120000A9F44FEF62E08C2F0E94F9054FEF63E0E5
:101210008C2F0E94F9054FEF64E08C2F0E94F90596
:101220004FEF65E08C2F0E94F90537C0C53011F0F3
:10123000C930A9F44FEF61E08C2F0E94F9054FEF00
:1012400062E08C2F0E94F9054FEF65E08C2F0E9421
:10125000F9054FEF66E08C2F0E94F9051EC0C630DD
:1012600011F0C83059F44FEF65E08C2F0E94F9055A
:101270004FEF66E08C2F0E94F9050FC04FEF62E040
:101280008C2F0E94F9054FEF63E08C2F0E94F90527
:101290004FEF64E08C2F0E94F905CF5F01C0C4E0DE
:1012A000CB3008F4AACF78C040EF61E085E00E941F
:1012B000F90540EF62E085E00E94F90540EF63E048
:1012C00085E00E94F90540EF65E085E00E94F905A0
:1012D00040EF66E085E00E94F90540EF67E085E0B9
:1012E0000E94F90540EF60E086E00E94F90540EFBA
:1012F00065E086E00E94F90540EF67E086E00E9425
:10130000F90540EF60E087E00E94F90540EF62E0F8
:1013100087E00E94F90540EF63E087E00E94F9054D
:1013200040EF65E087E00E94F90540EF67E087E065
:101330000E94F90540EF60E088E00E94F90540EF67
:1013400063E088E00E94F90540EF65E088E00E94D4
:10135000F90540EF67E088E00E94F90540EF61E0A1
:1013600089E00E94F90540EF62E089E00E94F905FA
:1013700040EF63E085E00E94F90540EF65E089E019
:101380000E94F90540EF66E089E00E94F90540EF10
:1013900067E089E00E94F905DF91CF9108958F926F
:1013A0009F92AF92BF92CF92DF92EF92FF920E94F4
:1013B0003F0D4B015C0181E090E00E944C080E94CF
:1013C0003F0D6B017C01AB01BC01481959096A0949
:1013D0007B098091F6029091F702880F991FA0E097
:1013E000B0E0481759076A077B0748F382E090E0AE
:1013F0000E944C080E943F0D4B015C01AB01BC01F7
:101400004C195D096E097F098091F6029091F702EF
:10141000880F991FA0E0B0E0481759076A077B07BB
:1014200048F383E090E00E944C080E943F0D6B015E
:101430007C01AB01BC01481959096A097B098091FB
:10144000F6029091F702880F991FA0E0B0E04817CC
:1014500059076A077B0748F384E090E00E944C0834
:101460000E943F0DAB01BC014C195D096E097F095B
:101470008091F6029091F702880F991FA0E0B0E0EA
:10148000481759076A077B0758F3FF90EF90DF90E2
:10149000CF90BF90AF909F908F9008950E94F80CCE
:1014A0001092F3021092F2020E94CF090E94A1034F
:1014B0000E94F2010E941B0C08958F929F92AF929E
:1014C000BF92CF92DF92EF92FF92CF93DF930E9471
:1014D0003F0D6B017C0190C00E94F201D82F0E9449
:1014E000140C882341F080910C0490910D040E940B
:1014F000CC0DC82F01C0CFEFDD2321F0C63611F08F
:10150000C63421F483E00E94AC031DC0D13021F029
:10151000C43611F0C43421F482E00E94AC0313C03D
:10152000D23021F0C33711F0C33521F481E00E949D
:10153000AC0309C0D33021F0C13611F0C13419F425
:1015400080E00E94AC03CD3611F0CD3449F5809196
:10155000EB029091EC02892B69F01092EC02109250
:10156000EB0260E170E08AE090E00E94E70C0E94EC
:10157000010D16C081E090E09093EC028093EB02A5
:1015800060E170E08AE090E00E94E70C0E94010DAB
:1015900083EC92E09F938F930E940A0E0F900F901E
:1015A0008091EB029091EC02892B01F50E943F0D96
:1015B0004B015C012091F6023091F702ADECBCECDE
:1015C0000E949B0D9695879596958795A701960104
:1015D000280F391F411D511D82169306A406B5061A
:1015E00058F00E9436047501640106C0CE3611F031
:1015F000CE3411F40E9436040E94ED05882309F4CC
:101600006BCFDF91CF91FF90EF90DF90CF90BF90A5
:10161000AF909F908F9008950E94F80C6EE070E05C
:101620008AE090E00E94E70C8AEA90E09F938F9313
:101630000E94200E6FE070E08AE090E00E94E70CCC
:101640008091F3028F938091F2028F9383ED92E069
:101650009F938F930E940A0E60E170E08AE090E011
:101660000E94E70C8CE790E09F938F930E94200EDE
:101670008DB79EB708960FB6F8949EBF0FBE8DBF6C
:1016800010C00E94140C882339F080910C049091B2
:101690000D040E94CC0D01C08FEF833731F08335EC
:1016A00021F00E94F2018F3F61F30E944C060895E1
:1016B0000E9439061092F3021092F2020E944C0628
:1016C0000E944E0A0E945D0A0E940C0BF9CFCF9334
:1016D000C82F8A3019F48DE00E94670B9FB790786D
:1016E00002C0992329F18091F9028F3FD1F3F89438
:1016F000E091F80281E08E0F8093F802F0E0E6506E
:10170000FD4FC0838091F9028F5F8093F902809131
:10171000F8028F3F11F41092F802E1ECF0E08081C2
:1017200080628083992339F0789480E090E005C04E
:1017300081E090E002C080E090E0CF910895809138
:101740000B048823E1F32FB72078F8948091F903F4
:1017500030910B0490E0831B91095AF4E091F90356
:1017600080910B04F0E0E81BF109E65FFB4F8081FC
:101770000AC0E091F90380910B04F0E0E81BF10945
:10178000E650FC4F808190910B04915090930B0494
:10179000222309F0789490E008951092F8021092B4
:1017A000F9021092F90310920B0410920A0440936C
:1017B000ED02DC01CB01880F991FAA1FBB1F880F08
:1017C000991FAA1FBB1F9C01AD01220F331F441F8D
:1017D000551F60E072E18AE790E00E947C0DBA013B
:1017E000A9014F5F5F4F6F4F7F4FDB01CA011AF4B2
:1017F0000196A11DB11DB595A79597958795019760
:101800009093C5008093C400E1ECF0E088E1808310
:10181000808180688083ECE0F4E081E091E0938354
:10182000828391838083089590910B0481E09111CC
:1018300001C080E008951092F90310920B040895FE
:101840001F920F920FB60F9211242F938F939F9395
:10185000EF93FF938091F902882329F18091F80298
:101860002091F90290E0821B91095AF4E091F8026C
:101870008091F902F0E0E81BF109E750FC4F9081FC
:101880000AC0E091F8028091F902F0E0E81BF1094A
:10189000E650FD4F90818091F90281508093F902CA
:1018A0009093C60005C0E1ECF0E080818F7D8083DD
:1018B000FF91EF919F918F912F910F900FBE0F90FD
:1018C0001F9018951F920F920FB60F9211242F930D
:1018D0003F934F935F936F937F938F939F93AF93B8
:1018E000BF93CF93EF93FF93C091C6008091ED0219
:1018F000882349F08091F9028F3F29F060E070E081
:101900008C2F0E94670B80910B04803120F081E0C6
:1019100080930A0418C0CD3009F4CAE0E091F903BD
:1019200081E08E0F8093F903F0E0E650FC4FC08316
:1019300080910B048F5F80930B048091F9038031B9
:1019400011F41092F903FF91EF91CF91BF91AF91F4
:101950009F918F917F916F915F914F913F912F91C7
:101960000F900FBE0F901F90189594B1906B94B983
:1019700095B1906195B990E59CBD883021F0803299
:1019800011F0823019F491E09DBD01C01DBC803280
:1019900069F028F4883071F0803161F00EC0803435
:1019A00029F0803851F48CB581608CBD8CB5826093
:1019B0008CBD03C08CB581608CBD85B18F7E85B92F
:1019C00008958EBD0DB407FEFDCF8EB508959F938B
:1019D0008F937F936F938DE793E09F938F930E94F4
:1019E000200E0F900F900F900F900F900F90089572
:1019F00088E793E09F938F930E94200E0F900F90A3
:101A0000089584E793E09F938F930E94200E0F9098
:101A10000F9008951F928F938EE693E09F938F937C
:101A20000E94200E0F900F900F900F90089587E660
:101A300093E09F938F930E94200E0F900F90089534
:101A400080E693E09F938F930E94200E0F900F905B
:101A500008951092EE021092EF021092F00210928E
:101A6000F10216BC8CE787BD92E094BD83E085BD92
:101A7000EEE6F0E080818260808395BB08958FB7A9
:101A8000282F2078F8946091EE027091EF028091F7
:101A9000F0029091F102222309F0789408951F92A8
:101AA0000F920FB60F9211248F939F93AF93BF9312
:101AB0008091EE029091EF02A091F002B091F102BC
:101AC0000196A11DB11D8093EE029093EF02A093A9
:101AD000F002B093F102BF91AF919F918F910F905F
:101AE0000FBE0F901F9018951092850010928400E1
:101AF00008951092B2000895052E97FB1EF40094ED
:101B00000E94930D57FD07D00E94AA0D07FC03D039
:101B10004EF40C94930D50954095309521953F4F80
:101B20004F4F5F4F089590958095709561957F4FC9
:101B30008F4F9F4F0895A29FB001B39FC001A39FF5
:101B4000700D811D1124911DB29F700D811D1124F6
:101B5000911D0895A1E21A2EAA1BBB1BFD010DC009
:101B6000AA1FBB1FEE1FFF1FA217B307E407F5074D
:101B700020F0A21BB30BE40BF50B661F771F881F29
:101B8000991F1A9469F760957095809590959B01BF
:101B9000AC01BD01CF010895CF93DF93EC012B8100
:101BA00020FF33C026FF0AC02F7B2B838E819F81AD
:101BB00001969F838E838A8190E029C022FF0FC007
:101BC000E881F9818081082E000C990B009719F4A7
:101BD00020622B831AC03196F983E8830EC0EA8510
:101BE000FB85099597FF09C02B81019611F080E2D2
:101BF00001C080E1822B8B8308C02E813F812F5F43
:101C00003F4F3F832E83992702C08FEF9FEFDF91D5
:101C1000CF910895A0E0B0E0E0E1FEE00C94E71081
:101C2000AE014B5F5F4FFA0161917191AF018091FD
:101C30000E0490910F040E94460EE2E00C940311F2
:101C4000A0E0B0E0E6E2FEE00C94E510AE01495FF2
:101C50005F4FDA016D917D91AD010CE014E0F80168
:101C600082819381DC0113962C911397286013963F
:101C70002C930E94460ED8011296ED91FC91139779
:101C80002381277F2383E4E00C940111ABE0B0E0D3
:101C9000ECE4FEE00C94D7106C017B018A01FC019E
:101CA00017821682838181FFCCC1CE0101963C014F
:101CB000F6019381F70193FD859193FF81917F0157
:101CC000882309F4BAC1853239F493FD859193FFD5
:101CD00081917F01853229F4B60190E00E943D1088
:101CE000E7CF912C212C312CFFE1F315D8F08B326A
:101CF00079F038F4803279F08332A1F4232D206119
:101D00001DC08D3261F0803369F4232D216016C02F
:101D1000832D8260382EE32DE4603E2E2AC0F32D01
:101D2000F8601DC037FC2DC020ED280F2A3040F090
:101D30008E32B9F436FC81C1232D2064322E19C0B5
:101D400036FE06C08AE0989E200D1124922E11C006
:101D5000EAE02E9E200D1124222EF32DF0623F2E5C
:101D600008C08C3621F4832D8068382E02C0883656
:101D700041F4F70193FD859193FF81917F018111DA
:101D8000B3CF982F9F7D9554933028F40C5F1F4F4D
:101D90009FE399830DC0833631F0833771F083352B
:101DA00009F059C021C0F801808189830E5F1F4F5F
:101DB00088248394912C530113C02801F2E04F0E24
:101DC000511CF801A080B18036FE03C0692D70E07F
:101DD00002C06FEF7FEFC5010E9432104C018201FB
:101DE000F32DFF773F2E16C0280122E0420E511C32
:101DF000F801A080B18036FE03C0692D70E002C0FA
:101E00006FEF7FEFC5010E9427104C01F32DF068A2
:101E10003F2E820133FC1BC0822D90E0881699066C
:101E2000B0F4B60180E290E00E943D102A94F4CF15
:101E3000F50137FC859137FE81915F01B60190E095
:101E40000E943D1021102A9421E0821A91088114E9
:101E5000910471F7E8C0843611F0893641F5F80134
:101E600037FE07C060817181828193810C5F1F4FB3
:101E700008C060817181072E000C880B990B0E5FE2
:101E80001F4FF32DFF763F2E97FF09C09095809549
:101E9000709561957F4F8F4F9F4FF0683F2E2AE0DE
:101EA00030E0A3010E947910882E861845C085373E
:101EB00031F4232D2F7EB22E2AE030E025C0932D61
:101EC000997FB92E8F36C1F018F4883579F0B5C0F6
:101ED000803719F0883721F0B0C0E92FE061BE2EBD
:101EE000B4FE0DC0FB2DF460BF2E09C034FE0AC045
:101EF000292F2660B22E06C028E030E005C020E180
:101F000030E002C020E132E0F801B7FE07C0608196
:101F10007181828193810C5F1F4F06C06081718146
:101F200080E090E00E5F1F4FA3010E947910882E81
:101F30008618FB2DFF773F2E36FE0DC0232D2E7FFA
:101F4000A22E891458F434FE0BC032FC09C0832D34
:101F50008E7EA82E05C0B82CA32C03C0B82C01C0BF
:101F6000B92CA4FE0FC0FE01E80DF11D8081803365
:101F700021F49A2D997EA92E09C0A2FE06C0B39421
:101F8000B39404C08A2D867809F0B394A3FC11C0E1
:101F9000A0FE06C0B21488F4280C922C9B180EC028
:101FA000B21460F4B60180E290E00E943D10B39458
:101FB000F7CFB21418F42B1802C0982C212CA4FED1
:101FC00010C0B60180E390E00E943D10A2FE17C051
:101FD000A1FC03C088E790E002C088E590E0B6016C
:101FE0000CC08A2D867859F0A1FE02C08BE201C098
:101FF00080E2A7FC8DE2B60190E00E943D108914BA
:1020000038F4B60180E390E00E943D109A94F7CF37
:102010008A94F301E80DF11D8081B60190E00E94E1
:102020003D108110F5CF222009F442CEB60180E2A6
:1020300090E00E943D102A94F6CFF60186819781A8
:1020400002C08FEF9FEF2B96E2E10C94F310FC019E
:102050000590615070400110D8F7809590958E0FD3
:102060009F1F0895FC016150704001900110D8F746
:10207000809590958E0F9F1F08950F931F93CF9378
:10208000DF93FB01238121FD03C08FEF9FEF2CC065
:1020900022FF16C04681578124813581421753079C
:1020A00044F4A081B1819D012F5F3F4F3183208394
:1020B0008C93268137812F5F3F4F3783268314C04F
:1020C0008B01EC01FB010084F185E02D0995892B42
:1020D000E1F6D80116968D919C9117970196179667
:1020E0009C938E931697CE01DF91CF911F910F9104
:1020F0000895FA01AA27283051F1203181F1E8949E
:102100006F936E7F6E5F7F4F8F4F9F4FAF4FB1E0EA
:102110003ED0B4E03CD0670F781F891F9A1FA11DE5
:10212000680F791F8A1F911DA11D6A0F711D811DE6
:10213000911DA11D20D009F468943F912AE0269FAB
:1021400011243019305D3193DEF6CF010895462F0A
:102150004770405D4193B3E00FD0C9F7F6CF462FEB
:102160004F70405D4A3318F0495D31FD4052419354
:1021700002D0A9F7EACFB4E0A69597958795779511
:102180006795BA95C9F700976105710508959B0198
:10219000AC010A2E06945795479537952795BA9521
:1021A000C9F7620F731F841F951FA01D08952F92FA
:1021B0003F924F925F926F927F928F929F92AF92D7
:1021C000BF92CF92DF92EF92FF920F931F93CF9324
:1021D000DF93CDB7DEB7CA1BDB0B0FB6F894DEBFBB
:1021E0000FBECDBF09942A88398848885F846E84E1
:1021F0007D848C849B84AA84B984C884DF80EE802B
:10220000FD800C811B81AA81B981CE0FD11D0FB633
:10221000F894DEBF0FBECDBFED010895F894FFCF57
:10222000FF0000000300000000670B9F0B00007F11
:10223000A47F00EF1DE900FFAA550006090600472C
:10224000616D652053636F72653A2020202564001C
:1022500047616D652053636F72653A2020256400E5
:1022600047616D652053636F72653A2025640047AE
:10227000616D652053636F72653A202020202564CC
:1022800000000000080808800402044008800000E4
:102290000402044008044002200110101010000045
:1022A000022004400880044002200440080440400A
:1022B0000220044008044002200110101010000009
:1022C00000000000080808800402044002088000A2
:1022D00002010440088004022001101012200000B6
:1022E000022004400804404002200440080440400A
:1022F0000220044008044040022001101010000099
:10230000000043757272656E742047616D652053DD
:10231000706565643A203120284E6F726D616C3AA9
:10232000202564206D73290043757272656E7420D8
:1023300047616D652053706565643A2032202846F8
:102340006173743A202564206D732900437572729D
:10235000656E742047616D652053706565643A2031
:1023600033202845787472656D654C202564206D96
:10237000730043757272656E742047616D652073DA
:10238000706565643A203120284E6F726D616C3A39
:10239000202564206D73290043757272656E742068
:1023A00047616D652073706565643A203220284668
:1023B0006173743A202564206D732900437572722D
:1023C000656E742047616D652073706565643A20A1
:1023D00033202845787472656D653A202564206D38
:1023E0007329004D616E75616C204D6F64653A20F4
:1023F0004F4E0047616D652053636F72653A20252B
:04240000640A00006A
:00000001FF
