S01700004763634170706C69636174696F6E312E737265635B
S11300000C94C3010C94E0010C94E0010C94E00105
S11300100C94E0010C941A020C94E0010C94E0019D
S11300200C94E0010C94FB0F0C94E0010C94E0019F
S11300300C94E0010C94E0010C94E0010C94E001B8
S11300400C943F0F0C94E0010C94E0010C94E0013B
S11300500C94520E0C94100E0C94E0010C94E001DC
S11300600C94E0010C94E0010C94E0010C94E00188
S11300700C94E0010C94E0010C94E001507265735F
S113008073206120627574746F6E206F7220277301
S1130090272F27532720746F207374617274206193
S11300A0206E65772067616D650047414D45204F9F
S11300B05645520043535345323031302F37323096
S11300C03120413220627920204361696C696E20BD
S11300D044656C6761646F202D20343830323739C1
S11300E0343200205C24242020205C24242020207E
S11300F020205C2420202020205C24242020205C3C
S11301002424202020202020205C24242020205C63
S1130110242420205C24242424242424205C242437
S113012020202020202020205C2424242424240097
S11301307C20242420207C202424202020205C24B3
S113014024242020207C20242420207C20242420DB
S113015020202020207C20242420207C20242420D3
S11301605C242420202020205C7C202424202020A7
S1130170202020205C2424202020202424007C20F3
S1130180242420207C2024242020205C24242024B7
S11301902420207C20242420207C2024242020208F
S11301A02020207C20242420207C2024247C202423
S11301B0242424242424247C2024242020202020BB
S11301C0207C2024245F5F2F202424007C202424EE
S11301D024242424242420205C24245C202024247B
S11301E0207C20242424242424245C202020202057
S11301F0207C2024242424242424247C202424201B
S113020020202024247C2024242020205C24247CDE
S113021020242420207C202424007C20242420202A
S113022020202424205C24245C202F202024247CCF
S11302302024242020202024242020202020207C4E
S11302402024242020202024247C2020242424242E
S113025024245C7C20202424242424245C7C20204A
S11302602424242424245C007C2024245F5F7C2018
S113027024247C2024242020207C2024247C20244A
S1130280245F5F7C2024242020202020207C202424
S1130290245F5F7C202424202F2020202020205C29
S11302A020202F2020202020205C20202F202020F0
S11302B02020205C007C20202424242424245C7C12
S11302C02024242020207C2024247C202424242452
S11302D02424245C2020202020207C20242420206E
S11302E07C20242420205F5F5F5F5F5F202020202C
S11302F05F5F5F5F5F5F202020205F5F5F5F5F5F06
S113030000202F2020202020205C207C20205C2026
S113031020207C20205C7C202020202020205C20A9
S11303202020202020207C20205C20207C20205C99
S11303300020205F5F5F5F5F5F2020205F5F2020E1
S11303402020205F5F20205F5F5F5F5F5F5F202072
S1130350202020202020205F5F202020205F5F00BD
S11303601B5B3F323568001B5B3F32356C001B5B07
S113037025646D001B5B4B001B5B324A001B5B2535
S1130380643B2564480011241FBECFEFD8E0DEBFD4
S1130390CDBF14E0A0E0B1E0EEEEFAE202C00590B9
S11303A00D92AC3DB107D9F726E0ACEDB4E001C045
S11303B01D92AC31B207E1F70E94480D0C947515FB
S11303C00C940000E8E6F0E08081826080838BB3C7
S11303D082608BBBECE6F0E080818F6080831092BA
S11303E0DC0408958091DC04181614F58091DD0472
S11303F06FB7F89491E009C0F901E352FB4F4081D3
S1130400F901E452FB4F40839F5F292F30E0409174
S1130410DC04042E000C550B241735076CF3909163
S1130420DC0491509093DC0466231CF478940895C2
S11304308FEF08951F920F920FB60F9211242F93EE
S11304403F934F938F939F93EF93FF9343B14F70D9
S113045080E026C09091DC0494300CF5242F30E029
S1130460082E02C0359527950A94E2F720FF17C09D
S11304702091E10430E0082E02C0359527950A94B6
S1130480E2F720FD0CC0E091DC0491E09E0F909314
S1130490DC040E2E000CFF0BE352FB4F80838F5FB6
S11304A08430C0F24093E104FF91EF919F918F91CA
S11304B04F913F912F910F900FBE0F901F90189561
S11304C01F93CF93DF93182FD4E036C0CE3011F4AE
S11304D04FEF01C040E02C2F30E0205E3F4F211B46
S11304E03109ED2FF0E0BF016250710981E090E025
S11304F0DC0102C0AA0FBB1F6A95E2F7BD0161507F
S1130500710926233723339702C0880F991FEA9570
S1130510E2F701972817390729F4CE3010F44FE099
S113052001C040EF6D2F8C2F0E947807CF5F01C070
S1130530CBE0C03158F2DF5FD830D0F3DF91CF91F8
S11305401F9108951F93CF93DF93CDB7DEB72897FC
S11305500FB6F894DEBF0FBECDBF0E94B40710E003
S113056031C0E12FF0E0E65EFE4F908180E021C0D3
S1130570282F30E0492F50E0082E02C055954795AA
S11305800A94E2F740FF0DC0843010F44FE001C03C
S113059040EFE1E0F0E0EC0FFD1FE20FF31F4083BA
S11305A007C0E1E0F0E0EC0FFD1FE20FF31F108243
S11305B08F5F8830E8F2BE016F5F7F4F812F0E940A
S11305C097071F5F103168F280E00E94600228964E
S11305D00FB6F894DEBF0FBECDBFDF91CF911F9150
S11305E00895CF93DF93CDB7DEB728970FB6F8946D
S11305F0DEBF0FBECDBF0E94B40780E009C0E1E0BA
S1130600F0E0EC0FFD1FE80FF11D9FEF90838F5F6B
S11306108830A8F3BE016F5F7F4F8DE00E9497077B
S113062080E009C0E1E0F0E0EC0FFD1FE80FF11DF0
S113063095E590838F5F8830A8F3BE016F5F7F4F8D
S11306408CE00E949707BE016F5F7F4F8EE00E948F
S1130650970780E009C0E1E0F0E0EC0FFD1FE80F30
S1130660F11D91E190838F5F8830A8F3BE016F5F25
S11306707F4F8BE00E949707BE016F5F7F4F8FE033
S11306800E94970728960FB6F894DEBF0FBECDBF21
S1130690DF91CF9108956DE070E08AE090E00E94D0
S11306A0D70E0E94F10E8091EE049091EF048A30EF
S11306B0910534F49C01275F3F4F2930310568F4DC
S11306C09F938F938AE291E09F938F930E9471127C
S11306D00F900F900F900F9008958436910534F485
S11306E09C012E593F4F2935310568F49F938F9310
S11306F08BE391E09F938F930E9471120F900F9060
S11307000F900F9008958D392FEF92076CF49F93FB
S11307108F938BE491E09F938F930E9471120F90BB
S11307200F900F900F9008959F938F938AE591E017
S11307309F938F930E9471120F900F900F900F90C0
S113074008956EE070E08AE090E00E94D70E0E9467
S1130750F10E8091F6049091F7048A3091056CF0C3
S11307609F938F938CE691E09F938F930E947112D5
S11307700F900F900F900F900CC09F938F938DE765
S113078091E09F938F930E9471120F900F900F909E
S11307900F908091F6049091F70403973CF081E068
S11307A090E09093F9048093F80408951092F9046A
S11307B01092F80408958F3F2FEF920759F46F3F7A
S11307C02FEF720739F421E030E03093F1042093E5
S11307D0F00404C01092F1041092F00483309105E7
S11307E039F480E193E09093F3048093F2041CC005
S11307F08230910539F48AEB92E09093F30480936C
S1130800F20412C08130910539F48EE692E090939F
S1130810F3048093F20408C0892B31F48BE092E056
S11308209093F3048093F2046B30710569F480E0D3
S113083090E0A0E0B0E48093FA049093FB04A093CA
S1130840FC04B093FD043FC06C30710569F480E092
S113085090E0A0E2B1E48093FA049093FB04A093A7
S1130860FC04B093FD042FC06D30710569F480E081
S113087090E0A8E4B2E48093FA049093FB04A0937C
S1130880FC04B093FD041FC06E30710569F480E070
S113089090E0A4EBB2E48093FA049093FB04A09359
S11308A0FC04B093FD040FC06F30710561F480E067
S11308B090E0A4ECB2E48093FA049093FB04A09338
S11308C0FC04B093FD040E94830F089508950E94D0
S11308D0F1021092FF041092FE041092E2041092AE
S11308E0F5041092F4040E944B030E94A10308959E
S11308F0EF92FF921F93CF93DF93D82FCBE0BBC02F
S11309008FE08C1B4091FE045091FF04480F511D51
S11309109A01ADECBCEC0E941012FC01F695E7952F
S1130920F695E795CF01880F991F880F991F8E0FB1
S11309309F1F4817590709F09DC0FF27E157FE4F35
S11309408081ED2EF12C90E00D2E02C095958795B7
S11309500A94E2F780FF7DC080910001D81312C091
S11309608091EE049091EF0401979093EF048093AB
S1130970EE040E944B031092F7041092F6040E94B6
S1130980A1037CC0D093000140EF1D2F110F612FF4
S11309908C2F0E94780761E0610F40EF8C2F0E943A
S11309A07807CB3011F0CF3099F48091EE04909118
S11309B0EF0401969093EF048093EE041092F704F1
S11309C01092F6046C2F70E0C7010E94DB034EC046
S11309D0CC3011F0CE3099F48091EE049091EF0474
S11309E002969093EF048093EE041092F704109211
S11309F0F6046C2F70E0C7010E94DB0337C0CD30D2
S1130A00A9F58091F6049091F70401969093F70468
S1130A108093F6046C2F70E0C7010E94DB03809181
S1130A20F6049091F704049754F08091EE049091A9
S1130A30EF0404969093EF048093EE0417C0809122
S1130A40EE049091EF0403969093EF048093EE04E8
S1130A500DC08091EE049091EF0401979093EF0400
S1130A608093EE041092F7041092F6040E944B0354
S1130A700E94A103CF5FC03108F442CFDF91CF9130
S1130A801F91FF90EF9008959F92AF92BF92CF92E3
S1130A90DF92EF92FF920F931F93CF93DF93809196
S1130AA0F8049091F904892B39F40F2EFFE0FF2EFE
S1130AB0F02DEE24E39408C00F2EFCE3FF2EF02D5E
S1130AC00F2EFCE1EF2EF02D8091F4049091F504AB
S1130AD0059754F06FEF7FEF8FEF9FEF0E94DB03DA
S1130AE01092F5041092F4048091F4049091F504AA
S1130AF001969093F5048093F40410E0EEC08FE027
S1130B00811BE091FE04F091FF04AF01480F511DD9
S1130B109A01ADECBCEC0E941012EC01D695C7957D
S1130B20D695C7950C2F9F01215F3F4F0E9410124D
S1130B3096958795969587958F5F08C0E82FF0E086
S1130B40E157FE4F90819F7019F48F5F8138B0F3A5
S1130B50E82FF0E0E157FE4FD080013820F081E02B
S1130B608093E204BDC09A01ADECBCEC0E9410126B
S1130B7096958795969587959C01220F331F220F92
S1130B80331F820F931F4817590709F0A5C000E0CF
S1130B909BC091E0D91290E081E0011180E08923AB
S1130BA071F04E2DC02ECC0C6C2D80E00E94780785
S1130BB061E06C0D4E2D80E00E94780747C091E003
S1130BC082E0D81290E081E0013009F080E08923CE
S1130BD071F04E2DC02ECC0C6C2D80E00E94780755
S1130BE061E06C0D4E2D80E00E9478072FC091E0EB
S1130BF084E0D81290E081E0023009F080E089239B
S1130C0071F04E2DC02ECC0C6C2D80E00E94780724
S1130C1061E06C0D4E2D80E00E94780717C091E0D2
S1130C2088E0D81290E081E0033009F080E0892365
S1130C3069F04E2DC02ECC0C6C2D80E00E947807FC
S1130C4061E06C0D4E2D80E00E947807FE01FF27C5
S1130C50E157FE4F808190E0002E02C09595879564
S1130C600A94E2F780FF2FC01B3059F01F3071F057
S1130C701C3089F01E30A1F01D30B9F4BB24BA94A5
S1130C8015C00F2EF1E1BF2EF02D10C00F2EF1E193
S1130C90BF2EF02D0BC00F2EF5E5BF2EF02D06C094
S1130CA00F2EF5E5BF2EF02D01C0B12C4B2DC02E1B
S1130CB0CC0C6C2D812F0E94780761E06C0D4B2DBC
S1130CC0812F0E9478070F5F043008F462CF1F3031
S1130CD018F08FEF809300011F5F103108F40FCFDD
S1130CE08091FE049091FF0401969093FF048093F9
S1130CF0FE04C0E0E2C08FE08C1BE091FE04F091A2
S1130D00FF04AF01480F511D9A01ADECBCEC0E94E9
S1130D10101296958795969587959C01220F331FFF
S1130D20220F331F820F931F4817590709F0C4C0BD
S1130D309A010E9410128C01169507951695079535
S1130D409F01215F3F4F0E941012969587959695BB
S1130D508795FC01FF27E157FE4FE080013808F03A
S1130D60ABC0112758018FEFA81AB80A81E8A8165A
S1130D70B1040CF0A1C0D0E0C12CD12C9AC0F80170
S1130D80E157FE4F8081982F92959F708917D1F07B
S1130D90C114D10439F0F501E157FE4F20818217C7
S1130DA009F486C0C114D10481F0F501E157FE4F66
S1130DB03081F801E257FE4F2081321379C0C12CF3
S1130DC0D12C03C0CC24C394D12CC114D10409F474
S1130DD0982F292F30E00D2E02C0359527950A94BF
S1130DE0E2F720FF65C080910001D81312C085EF9F
S1130DF08C0F853070F440EF9D2E990C692D8C2F4B
S1130E000E94780761E0690D40EF8C2F0E947807FB
S1130E104FC09E1539F14F2D9D2E990C692D8C2FA5
S1130E200E94780761E0690D4F2D8C2F0E9478078E
S1130E30CF30F1F58091EE049091EF0401979093F7
S1130E40EF048093EE040E944B038091F60490918A
S1130E50F704892B69F11092F7041092F6040E94AA
S1130E60A10326C04F2D9D2E990C692D8C2F0E9415
S1130E70780761E0690D4F2D8C2F0E947807CF30E1
S1130E80B9F48091EE049091EF0401979093EF04EC
S1130E908093EE040E944B038091F6049091F70432
S1130EA0892B31F01092F7041092F6040E94A103EA
S1130EB0DF5FD43008F463CFCF5FC03108F41BCFB9
S1130EC0DF91CF911F910F91FF90EF90DF90CF9022
S1130ED0BF90AF909F9008958091E204882319F009
S1130EE01092E20481E0089580E80E94A50E08951E
S1130EF01F93CF93DF938031B0F46830A0F4142FA4
S1130F00C62FD82F81E00E94D10E6C2F677080E12C
S1130F10689F900111248D2F8F70822B0E94D10E17
S1130F20812F0E94D10EDF91CF911F9108950F93CD
S1130F301F93CF938031A0F48B01C82F83E00E94CC
S1130F40D10E8C2F8F700E94D10EC0E007C0F80123
S1130F50EC0FF11D80810E94D10ECF5FC830B8F331
S1130F60CF911F910F9108958FE00E94D10E0895A3
S1130F700E9474070E94E2018FEF87B98CEF8AB94F
S1130F8040E060E07BE480E090E00E94BD0D0E94C0
S1130F90190F0E94640F0E94ED0F789408954F92E8
S1130FA05F926F927F928F929F92AF92BF92CF92F5
S1130FB0DF92EF92FF92CF93DF930E94E80E0E949C
S1130FC0100F0E94E80E0E94070F85E20E94FA0E9D
S1130FD064E070E08AE090E00E94D70E81E393E041
S1130FE09F938F930E94871265E070E08AE090E0FF
S1130FF00E94D70E81E093E09F938F930E94871203
S113100066E070E08AE090E00E94D70E85EB92E003
S11310109F938F930E94871267E070E08AE090E0CC
S11310200E94D70E88E692E09F938F930E948712C6
S113103068E070E08AE090E00E94D70E8AE192E0D6
S11310409F938F930E94871269E070E08AE090E09A
S11310500E94D70E8CEC91E09F938F930E9487128D
S11310606AE070E08AE090E00E94D70E8EE791E09B
S11310709F938F930E9487126BE070E08AE090E068
S11310800E94D70E80E391E09F938F930E94871272
S11310906CE070E08AE090E00E94D70E83EE90E06E
S11310A09F938F930E9487126EE070E08AE090E035
S11310B00E94D70E84EB90E09F938F930E94871237
S11310C00E94A2026FE070E08AE090E00E94D70ED6
S11310D080E192E09F938F930E9471120E942F0FE0
S11310E06B017C0188EE93E09093010580930005E9
S11310F061E170E08AE090E00E94D70E0E94F10E58
S113110080910005909101052DB73EB72A5E3F4FAF
S11311100FB6F8943EBF0FBE2DBF883E33E0930751
S113112069F49F938F938DE292E09F938F930E9433
S113113071120F900F900F900F9020C0843F21E008
S1131140920769F49F938F9383E592E09F938F9323
S11311500E9471120F900F900F900F900FC08A3F52
S1131160910561F49F938F9387E792E09F938F9308
S11311700E9471120F900F900F900F90D0E00E9478
S1131180040E882341F080911606909117060E9460
S11311903312C82F01C0CFEFC33709F4C6C0C3351B
S11311A009F4C3C0C133F9F488EE93E090930105C8
S11311B08093000561E170E08AE090E00E94D70E20
S11311C00E94F10E809101058F93809100058F9309
S11311D08DE292E09F938F930E9471120F900F9073
S11311E00F900F9041C0C233F9F484EF91E09093D3
S11311F001058093000561E170E08AE090E00E94BF
S1131200D70E0E94F10E809101058F938091000505
S11312108F9383E592E09F938F930E9471120F90B6
S11312200F900F900F9020C0C333F1F48AEF90E039
S1131230909301058093000561E170E08AE090E0FD
S11312400E94D70E0E94F10E809101058F93809128
S113125000058F9387E792E09F938F930E9471120A
S11312600F900F900F900F900E94F2018F3F09F0A2
S11312705CC0CD3611F0CD3409F560E170E08AE050
S113128090E00E94D70E0E94F10E8091E7049091A5
S1131290E804892B29F01092E8041092E7040EC0A8
S11312A081E090E09093E8048093E7048EE992E073
S11312B09F938F930E9471120F900F908091E70477
S11312C09091E804892B09F05ACF0E942F0F4B010B
S11312D05C012B013C014C185D086E087F082091CD
S11312E0000530910105ADECBCEC0E9410129695FE
S11312F0879596958795A0E0B0E084159505A60599
S1131300B70508F03CCF8D2F0E9460028D2F90E02E
S113131001968F719078992324F40197806E9F6FC2
S11313200196D82F750164012ACFDF91CF91FF90E8
S1131330EF90DF90CF90BF90AF909F908F907F9071
S11313406F905F904F9008958091EE049091EF0418
S11313508A30910508F461C09C012A5031092A356C
S1131360310528F46AE070E00E94BB112AC084367B
S113137091057CF02AE030E0B9010E94BB11E82F0E
S1131380492FCB01B9010E94BB11BC018E2F942FB0
S113139018C09C01275F3F4F2930310530F49195E7
S11313A0819591096AE070E00CC0873F2FEF9207A6
S11313B024F0BC0180E090E004C08AE090E06AE0A0
S11313C070E02091E3043091E404232B99F08BB175
S11313D084608BB9FB01EF5FFE4F808188B98091F7
S11313E0E3049091E40421E082279093E404809341
S11313F0E30408952BB12B7F2BB9FC01EF5FFE4F63
S1131400808188B98091E3049091E40421E08227EB
S11314109093E4048093E30408952091E3043091CD
S1131420E404232B31F0FC01EF5FFE4F808188B987
S113143008958091E3049091E40421E0822790933D
S1131440E4048093E30408950E94E80E1092EF04EC
S11314501092EE041092F7041092F6040E946704AE
S11314600E94F2010E940B0E08954F925F926F92B8
S11314707F928F929F92AF92BF92CF92DF92EF9220
S1131480FF920F931F93CF93DF9300D000D0CDB77B
S1131490DEB70E942F0F2B013C016FE070E08AE061
S11314A090E00E94D70E80E192E09F938F930E9478
S11314B0711262E170E08AE090E00E94D70E0E940F
S11314C0F10E80910005909101050F900F90883ED8
S11314D023E0920769F49F938F938DE292E09F93A8
S11314E08F930E9471120F900F900F900F9020C055
S11314F0843F31E0930769F49F938F9383E592E0EF
S11315009F938F930E9471120F900F900F900F90E2
S11315100FC08A3F910561F49F938F9387E792E010
S11315209F938F930E9471120F900F900F900F90C2
S113153000E010E0812C912C5401F8C10E94F201CA
S113154089830E94040E882341F0809116069091AD
S113155017060E943312F82E02C0FF24FA948091D9
S1131560E5049091E604892B99F54981442331F0EF
S113157056E6F51619F086E4F81204C083E00E94DA
S1131580780426C09981913031F024E6F21619F0DE
S113159034E4F31204C082E00E94780419C0498143
S11315A0423031F053E7F51619F083E5F81204C020
S11315B081E00E9478040CC09981933031F021E6D7
S11315C0F21619F031E4F31203C080E00E947804AB
S11315D04DE6F41619F05DE4F51227C08091E50498
S11315E09091E604892B09F560E170E08AE090E0CF
S11315F00E94D70E0E94F10E8091E7049091E804B6
S1131600892B29F01092E8041092E7040EC081E0BF
S113161090E09093E8048093E7048EE992E09F932E
S11316208F930E9471120F900F9080E7F81619F0B3
S113163090E5F9123BC061E170E08AE090E00E941D
S1131640D70E0E94F10E8091E5049091E604892B57
S113165071F01092E6041092E5048BB1877F8BB988
S11316608091E5049091E6040E94D90F1FC081E0A7
S113167090E09093E6048093E5040E942F0F4B01C1
S11316805C0184189508A608B7088BB188608BB9EB
S11316908091E5049091E6040E94D90F8EEA92E0CD
S11316A09F938F930E9471120F900F908091F60474
S11316B09091F704009721F48BB18F718BB913C00B
S11316C08130910521F48BB180628BB90CC08230DA
S11316D0910521F48BB180648BB905C003971CF08C
S11316E08BB180688BB98091F8049091F904892BAF
S11316F0A1F00115110589F463E070E08AE090E03F
S11317000E94D70E8AEB92E09F938F930E947112EE
S11317100F5F1F4F0F900F909FC00130110589F488
S113172064E070E08AE090E00E94D70E84EF92E0DB
S11317309F938F930E9471120F5F1F4F0F900F9012
S11317408BC00230110589F465E070E08AE090E016
S11317500E94D70E8FE293E09F938F930E947112A1
S11317600F5F1F4F0F900F9077C00330110589F45E
S113177066E070E08AE090E00E94D70E8AE693E08B
S11317809F938F930E9471120F5F1F4F0F900F90C2
S113179063C00430110589F467E070E08AE090E0EA
S11317A00E94D70E85EA93E09F938F930E94711253
S11317B00F5F1F4F0F900F904FC00530110589F434
S11317C068E070E08AE090E00E94D70E80EE93E03B
S11317D09F938F930E9471120F5F1F4F0F900F9072
S11317E03BC00630110589F469E070E08AE090E0BE
S11317F00E94D70E8BE194E09F938F930E94711205
S11318000F5F1F4F0F900F9027C00730110589F409
S11318106AE070E08AE090E00E94D70E85E594E0EB
S11318209F938F930E9471120F5F1F4F0F900F9021
S113183013C00830110581F46BE070E08AE090E099
S11318400E94D70E80E994E09F938F930E947112B7
S11318500F900F9000E010E08091F8049091F9044B
S1131860892B81F017C069817A818AE090E00E9417
S1131870D70E0E94F10E29813A812F5F3F4F3A83A0
S1131880298304C043E050E05A83498389819A81C3
S11318900C974CF32091E7043091E80491E04091D7
S11318A0E5045091E604452B09F090E081E0211510
S11318B0310509F080E0892369F10E942F0F6983C3
S11318C07A838B839C836B017C01C818D908EA084E
S11318D0FB082091000530910105ADECBCEC0E94A1
S11318E010129695879596958795A3019201280FD6
S11318F0391F411D511DC216D306E406F506B0F08A
S11319000E94440549805A806B807C80812C912CF4
S113191054010CC0232B51F03EE6F31619F04EE4AB
S1131920F41202C00E9444050E9466040E946C07DF
S1131930882309F403CE0F900F900F900F90DF913E
S1131940CF911F910F91FF90EF90DF90CF90BF90B8
S1131950AF909F908F907F906F905F904F9008957D
S11319600E94E80E6DE070E08AE090E00E94D70EDD
S11319708AEA90E09F938F930E9487126EE070E052
S11319808AE090E00E94D70E8091EF048F938091BB
S1131990EE048F938BEC94E09F938F930E947112CB
S11319A06FE070E08AE090E00E94D70E80E192E060
S11319B09F938F930E94711260E170E08AE090E03F
S11319C00E94D70E0E94F10E8091000590910105AE
S11319D02DB73EB7285F3F4F0FB6F8943EBF0FBEFA
S11319E02DBF883E33E0930769F49F938F938DE274
S11319F092E09F938F930E9471120F900F900F901B
S1131A000F9020C0843F21E0920769F49F938F9345
S1131A1083E592E09F938F930E9471120F900F9031
S1131A200F900F900FC08A3F910561F49F938F939D
S1131A3087E792E09F938F930E9471120F900F900B
S1131A400F900F9061E170E08AE090E00E94D70E61
S1131A508CE790E09F938F930E9487120F900F90D2
S1131A6010C00E94040E882339F0809116069091CC
S1131A7017060E94331201C08FEF833731F083358C
S1131A8021F00E94F2018F3F61F30E94CF07089575
S1131A900E94B8071092EF041092EE040E94CF0740
S1131AA00E94240A0E94350A0E94B00CF9CFCF93F9
S1131AB0C82F8A3019F48DE00E94570D9FB7907893
S1131AC002C0992329F1809103058F3FD1F3F89443
S1131AD0E091020581E08E0F80930205F0E0EC5F57
S1131AE0FA4FC083809103058F5F80930305809133
S1131AF002058F3F11F410920205E1ECF0E08081C1
S1131B0080628083992339F0789480E090E005C066
S1131B1081E090E002C080E090E0CF910895809150
S1131B2015068823E1F32FB72078F89480910306F3
S1131B303091150690E0831B91095AF4E091030655
S1131B4080911506F0E0E81BF109EC5EF94F808105
S1131B500AC0E091030680911506F0E0E81BF10944
S1131B60EC5FF94F80819091150691509093150682
S1131B70222309F0789490E00895109202051092BF
S1131B800305109203061092150610921406409352
S1131B90E904DC01CB01880F991FAA1FBB1F880F22
S1131BA0991FAA1FBB1F9C01AD01220F331F441FA5
S1131BB0551F60E072E18AE790E00E94F111BA01DA
S1131BC0A9014F5F5F4F6F4F7F4FDB01CA011AF4CA
S1131BD00196A11DB11DB595A79597958795019778
S1131BE09093C5008093C400E1ECF0E088E1808329
S1131BF0808180688083E6E1F6E08CE091E0938365
S1131C0082839183808308959091150681E09111D8
S1131C1001C080E0089510920306109215060895FD
S1131C201F920F920FB60F9211242F938F939F93AD
S1131C30EF93FF9380910305882329F18091020596
S1131C402091030590E0821B91095AF4E09102056A
S1131C5080910305F0E0E81BF109ED5FF94F9081F5
S1131C600AC0E091020580910305F0E0E81BF10948
S1131C70EC5FFA4F908180910305815080930305B6
S1131C809093C60005C0E1ECF0E080818F7D8083F5
S1131C90FF91EF919F918F912F910F900FBE0F9015
S1131CA01F9018951F920F920FB60F9211242F9325
S1131CB03F934F935F936F937F938F939F93AF93D0
S1131CC0BF93CF93EF93FF93C091C6008091E90433
S1131CD0882349F0809103058F3F29F060E070E08C
S1131CE08C2F0E94570D80911506803120F081E0E1
S1131CF08093140618C0CD3009F4CAE0E0910306BD
S1131D0081E08E0F80930306F0E0EC5FF94FC0830F
S1131D10809115068F5F80931506809103068031AC
S1131D2011F410920306FF91EF91CF91BF91AF91FF
S1131D309F918F917F916F915F914F913F912F91DF
S1131D400F900FBE0F901F90189594B1906B94B99B
S1131D5095B1906195B990E59CBD883021F08032B1
S1131D6011F0823019F491E09DBD01C01DBC803298
S1131D7069F028F4883071F0803161F00EC080344D
S1131D8029F0803851F48CB581608CBD8CB58260AB
S1131D908CBD03C08CB581608CBD85B18F7E85B947
S1131DA008958EBD0DB407FEFDCF8EB508959F93A3
S1131DB08F937F936F938DE793E09F938F930E940C
S1131DC087120F900F900F900F900F900F9008951F
S1131DD088E793E09F938F930E9487120F900F9050
S1131DE0089584E793E09F938F930E9487120F9046
S1131DF00F9008951F928F938EE693E09F938F9395
S1131E000E9487120F900F900F900F90089587E60D
S1131E1093E09F938F930E9487120F900F900895E1
S1131E2080E693E09F938F930E9487120F900F9008
S1131E3008951092EA041092EB041092EC041092AC
S1131E40ED0416BC8CE787BD92E094BD83E085BDAC
S1131E50EEE6F0E080818260808395BB08958FB7C1
S1131E60282F2078F8946091EA047091EB04809113
S1131E70EC049091ED04222309F0789408951F92C4
S1131E800F920FB60F9211248F939F93AF93BF932A
S1131E908091EA049091EB04A091EC04B091ED04DC
S1131EA00196A11DB11D8093EA049093EB04A093C5
S1131EB0EC04B093ED04BF91AF919F918F910F907B
S1131EC00FBE0F901F90189581E090E09093F3045B
S1131ED08093F2041092FA041092FB041092FC0412
S1131EE01092FD048FE392E490938900809388001C
S1131EF010928B0010928A0083E2809380008AE122
S1131F00809381000895CF92DF92EF92FF928091A7
S1131F10F0049091F104892BC9F58AB180618AB9E2
S1131F208BB180618BB92091F2043091F30440E0CD
S1131F3050E060E472E48FE090E00E94CF11690108
S1131F407A01B90180E090E00E94C0102091FA0467
S1131F503091FB044091FC045091FD040E944E1109
S1131F6020E030E048EC52E40E941F100E949110DF
S1131F7021E0C21AD108D0928900C0928800615031
S1131F80710970938B0060938A000EC010928900CF
S1131F901092880010928B0010928A008AB18F7E72
S1131FA08AB98BB18F7E8BB9FF90EF90DF90CF9081
S1131FB00895892B79F0109289001092880010926C
S1131FC08B0010928A008AB18F7E8AB98BB18F7E82
S1131FD08BB908950E94830F08958DE48093B30014
S1131FE01092B0008DE08093B10082E08093700085
S1131FF087BB789408951F920F920FB60F92112405
S11320002F933F934F935F936F937F938F939F93FC
S1132010AF93BF93EF93FF930E94A409FF91EF91B5
S1132020BF91AF919F918F917F916F915F914F91EC
S11320303F912F910F900FBE0F901F9018950E9403
S113204033100C9414110E940D1158F00E940611C3
S113205040F029F45F3F29F00C94FD1051110C94C9
S113206048110C9403110E94251168F39923B1F3CC
S1132070552391F3951B550BBB27AA2762177307AA
S1132080840738F09F5F5F4F220F331F441FAA1F3E
S1132090A9F335D00E2E3AF0E0E832D091505040FA
S11320A0E695001CCAF72BD0FE2F29D0660F771FA8
S11320B0881FBB1F261737074807AB07B0E809F08E
S11320C0BB0B802DBF01FF2793585F4F3AF09E3F13
S11320D0510578F00C94FD100C9448115F3FE4F323
S11320E0983ED4F3869577956795B795F7959F5F56
S11320F0C9F7880F911D9695879597F90895E1E0A2
S1132100660F771F881FBB1F621773078407BA0700
S113211020F0621B730B840BBA0BEE1F88F7E0955B
S113212008950E942D1188F09F5798F0B92F992790
S1132130B751B0F0E1F0660F771F881F991F1AF0AE
S1132140BA95C9F714C0B13091F00E944711B1E0BB
S113215008950C944711672F782F8827B85F39F0BA
S1132160B93FCCF3869577956795B395D9F73EF447
S113217090958095709561957F4F8F4F9F4F0895EF
S1132180E89409C097FB3EF490958095709561950D
S11321907F4F8F4F9F4F9923A9F0F92F96E9BB27C3
S11321A09395F695879577956795B795F111F8CF3F
S11321B0FAF4BB0F11F460FF1BC06F5F7F4F8F4FAA
S11321C09F4F16C0882311F096E911C0772321F0A0
S11321D09EE8872F762F05C0662371F096E8862F38
S11321E070E060E02AF09A95660F771F881FDAF78F
S11321F0880F9695879597F9089597F99F6780E8D2
S113220070E060E008959FEF80EC089500240A9444
S11322101616170618060906089500240A941216BD
S11322201306140605060895092E0394000C11F4F0
S1132230882352F0BB0F40F4BF2B11F460FF04C09D
S11322406F5F7F4F8F4F9F4F089557FD9058440FF6
S1132250551F59F05F3F71F04795880F97FB991F01
S113226061F09F3F79F087950895121613061406BE
S1132270551FF2CF4695F1DF08C01616170618064B
S1132280991FF1CF86957105610508940895E89426
S1132290BB2766277727CB0197F908950E94611120
S11322A00C9414110E94061138F00E940D1120F0B4
S11322B0952311F00C94FD100C94031111240C942B
S11322C048110E94251170F3959FC1F3950F50E0BA
S11322D0551F629FF001729FBB27F00DB11D639FD4
S11322E0AA27F00DB11DAA1F649F6627B00DA11D7A
S11322F0661F829F2227B00DA11D621F739FB00D20
S1132300A11D621F839FA00D611D221F749F33278F
S1132310A00D611D231F849F600D211D822F762F28
S11323206A2F11249F5750409AF0F1F088234AF005
S1132330EE0FFF1FBB1F661F771F881F9150504071
S1132340A9F79E3F510580F00C94FD100C944811A0
S11323505F3FE4F3983ED4F3869577956795B795F8
S1132360F795E7959F5FC1F7FE2B880F911D969512
S1132370879597F9089597FB072E16F4009407D0D4
S113238077FD09D00E941F1207FC05D03EF49095FA
S113239081959F4F0895709561957F4F0895A1E2AF
S11323A01A2EAA1BBB1BFD010DC0AA1FBB1FEE1FCB
S11323B0FF1FA217B307E407F50720F0A21BB30B16
S11323C0E40BF50B661F771F881F991F1A9469F792
S11323D060957095809590959B01AC01BD01CF01EE
S11323E00895052E97FB1EF400940E94081257FDD1
S11323F007D00E94CF1107FC03D04EF40C940812AE
S113240050954095309521953F4F4F4F5F4F08951C
S113241090958095709561957F4F8F4F9F4F08954C
S1132420A29FB001B39FC001A39F700D811D112411
S1132430911DB29F700D811D1124911D0895AA1B39
S1132440BB1B51E107C0AA1FBB1FA617B70710F09B
S1132450A61BB70B881F991F5A95A9F780959095CD
S1132460BC01CD010895CF93DF93EC012B8120FFB4
S113247033C026FF0AC02F7B2B838E819F81019658
S11324809F838E838A8190E029C022FF0FC0E88158
S1132490F9818081082E000C990B009719F42062B1
S11324A02B831AC03196F983E8830EC0EA85FB8535
S11324B0099597FF09C02B81019611F080E201C0B4
S11324C080E1822B8B8308C02E813F812F5F3F4F99
S11324D03F832E83992702C08FEF9FEFDF91CF9127
S11324E00895A0E0B0E0E7E7F2E10C944E15AE01E8
S11324F04B5F5F4FFA0161917191AF0180911806B2
S1132500909119060E94AD12E2E00C946A15A0E0C5
S1132510B0E0EDE8F2E10C944C15AE01495F5F4F79
S1132520DA016D917D91AD0106E116E0F801828139
S11325309381DC0113962C911397286013962C93A6
S11325400E94AD12D8011296ED91FC91139723814C
S1132550277F2383E4E00C946815ABE0B0E0E3EB61
S1132560F2E10C943E156C017B018A01FC01178297
S11325701682838181FFCCC1CE0101963C01F60114
S11325809381F70193FD859193FF81917F018823C6
S113259009F4BAC1853239F493FD859193FF819191
S11325A07F01853229F4B60190E00E94A414E7CF9C
S11325B0912C212C312CFFE1F315D8F08B3279F0DA
S11325C038F4803279F08332A1F4232D20611DC0C8
S11325D08D3261F0803369F4232D216016C0832D80
S11325E08260382EE32DE4603E2E2AC0F32DF8607D
S11325F01DC037FC2DC020ED280F2A3040F08E324C
S1132600B9F436FC81C1232D2064322E19C036FE64
S113261006C08AE0989E200D1124922E11C0EAE093
S11326202E9E200D1124222EF32DF0623F2E08C081
S11326308C3621F4832D8068382E02C0883641F40C
S1132640F70193FD859193FF81917F018111B3CFB0
S1132650982F9F7D9554933028F40C5F1F4F9FE370
S113266099830DC0833631F0833771F0833509F0D7
S113267059C021C0F801808189830E5F1F4F8824CF
S11326808394912C530113C02801F2E04F0E511C86
S1132690F801A080B18036FE03C0692D70E002C04D
S11326A06FEF7FEFC5010E9499144C018201F32D55
S11326B0FF773F2E16C0280122E0420E511CF8017C
S11326C0A080B18036FE03C0692D70E002C06FEFB8
S11326D07FEFC5010E948E144C01F32DF0683F2E4C
S11326E0820133FC1BC0822D90E088169906B0F459
S11326F0B60180E290E00E94A4142A94F4CFF5017C
S113270037FC859137FE81915F01B60190E00E940C
S1132710A41421102A9421E0821A910881149104AE
S113272071F7E8C0843611F0893641F5F80137FEB7
S113273007C060817181828193810C5F1F4F08C043
S113274060817181072E000C880B990B0E5F1F4F5F
S1132750F32DFF763F2E97FF09C0909580957095D5
S113276061957F4F8F4F9F4FF0683F2E2AE030E0F6
S1132770A3010E94E014882E861845C0853731F4E1
S1132780232D2F7EB22E2AE030E025C0932D997F91
S1132790B92E8F36C1F018F4883579F0B5C080377A
S11327A019F0883721F0B0C0E92FE061BE2EB4FEE5
S11327B00DC0FB2DF460BF2E09C034FE0AC0292FC2
S11327C02660B22E06C028E030E005C020E130E0EB
S11327D002C020E132E0F801B7FE07C060817181D8
S11327E0828193810C5F1F4F06C06081718180E0FC
S11327F090E00E5F1F4FA3010E94E014882E8618FC
S1132800FB2DFF773F2E36FE0DC0232D2E7FA22EEB
S1132810891458F434FE0BC032FC09C0832D8E7E1B
S1132820A82E05C0B82CA32C03C0B82C01C0B92C09
S1132830A4FE0FC0FE01E80DF11D8081803321F458
S11328409A2D997EA92E09C0A2FE06C0B394B39412
S113285004C08A2D867809F0B394A3FC11C0A0FEAD
S113286006C0B21488F4280C922C9B180EC0B21423
S113287060F4B60180E290E00E94A414B394F7CF10
S1132880B21418F42B1802C0982C212CA4FE10C0EA
S1132890B60180E390E00E94A414A2FE17C0A1FC3C
S11328A003C088E790E002C088E590E0B6010CC060
S11328B08A2D867859F0A1FE02C08BE201C080E225
S11328C0A7FC8DE2B60190E00E94A414891438F4A8
S11328D0B60180E390E00E94A4149A94F7CF8A94FE
S11328E0F301E80DF11D8081B60190E00E94A4146B
S11328F08110F5CF222009F442CEB60180E290E0A7
S11329000E94A4142A94F6CFF6018681978102C00E
S11329108FEF9FEF2B96E2E10C945A15FC01059082
S1132920615070400110D8F7809590958E0F9F1FCD
S11329300895FC016150704001900110D8F7809512
S113294090958E0F9F1F08950F931F93CF93DF933E
S1132950FB01238121FD03C08FEF9FEF2CC022FFD9
S113296016C046815781248135814217530744F4A8
S1132970A081B1819D012F5F3F4F318320838C93D0
S1132980268137812F5F3F4F3783268314C08B0105
S1132990EC01FB010084F185E02D0995892BE1F61A
S11329A0D80116968D919C911797019617969C9332
S11329B08E931697CE01DF91CF911F910F910895B9
S11329C0FA01AA27283051F1203181F1E8946F935C
S11329D06E7F6E5F7F4F8F4F9F4FAF4FB1E03ED002
S11329E0B4E03CD0670F781F891F9A1FA11D680FA0
S11329F0791F8A1F911DA11D6A0F711D811D911DD3
S1132A00A11D20D009F468943F912AE0269F112447
S1132A103019305D3193DEF6CF010895462F4770AB
S1132A20405D4193B3E00FD0C9F7F6CF462F4F7006
S1132A30405D4A3318F0495D31FD4052419302D064
S1132A40A9F7EACFB4E0A69597958795779567950A
S1132A50BA95C9F700976105710508959B01AC010A
S1132A600A2E06945795479537952795BA95C9F731
S1132A70620F731F841F951FA01D08952F923F920C
S1132A804F925F926F927F928F929F92AF92BF927A
S1132A90CF92DF92EF92FF920F931F93CF93DF9326
S1132AA0CDB7DEB7CA1BDB0B0FB6F894DEBF0FBE83
S1132AB0CDBF09942A88398848885F846E847D84D0
S1132AC08C849B84AA84B984C884DF80EE80FD80D2
S1132AD00C811B81AA81B981CE0FD11D0FB6F89448
S1112AE0DEBF0FBECDBFED010895F894FFCF09
S1132AEEFF3F065B4F666D7D077F6F40000000035E
S1132AFE00000000570D8F0D00007FA47F00EF1D16
S1132B0EE900FFAA55000609060047616D652053CA
S1132B1E636F72653A20202025640047616D65203D
S1132B2E53636F72653A202025640047616D6520FA
S1132B3E53636F72653A2025640047616D652053B7
S1132B4E636F72653A20202020256400436F6D6206
S1132B5E6F20436F756E743A2020256400436F6DA9
S1132B6E626F20436F756E743A2020202564000036
S1132B7E00000808088004020440088000000402D3
S1132B8E044008044002200110101010000002201E
S1132B9E04400880044002200440080440400220FF
S1132BAE0440080440022001101010100000000020
S1132BBE0000080808800402044002088000020194
S1132BCE044008800402200110101220000002208C
S1132BDE04400804404002200440080440400220FF
S1132BEE04400804404002200110101000000000B0
S1132BFE547261636B3A205468726F75676820462D
S1132C0E697265202620466C616D6573004375728A
S1132C1E72656E742047616D652053706565643A04
S1132C2E203120284E6F726D616C3A202564206D20
S1132C3E73290043757272656E742047616D652049
S1132C4E53706565643A20322028466173743A20C5
S1132C5E2564206D73290043757272656E74204766
S1132C6E616D652053706565643A2033202845787C
S1132C7E7472656D653A202564206D7329004D616B
S1132C8E6E75616C204D6F64653A204F4E0047613E
S1132C9E6D65205061757365640020205F5F5F5F12
S1132CAE5F5F202020202020202020202020202094
S1132CBE202020202020202020202020205F5F2084
S1132CCE20202020202020202020202020202020F2
S1132CDE205F5F00202F2020202020205C20202039
S1132CEE20202020202020202020202020202020D2
S1132CFE2020202020207C20205C2020202020202A
S1132D0E202020202020202020207C20205C007CDD
S1132D1E20202424242424245C20205F5F5F5F5F12
S1132D2E5F2020205F5F5F5F5F5F205F5F5F5F20DC
S1132D3E207C2024245F5F5F5F202020205F5F5F64
S1132D4E5F5F5F20207C202424007C20242420200C
S1132D5E205C2424202F2020202020205C207C2076
S1132D6E20202020205C202020205C207C20242475
S1132D7E202020205C20202F2020202020205C20BA
S1132D8E7C202424007C2024242020202020207C2D
S1132D9E20202424242424245C7C2024242424245D
S1132DAE245C242424245C7C20242424242424240D
S1132DBE5C7C20202424242424245C7C20242400D1
S1132DCE7C2024242020205F5F207C2024242020AB
S1132DDE7C2024247C202424207C202424207C2059
S1132DEE24247C20242420207C2024247C2024249D
S1132DFE20207C202424205C2424007C2024245F96
S1132E0E5F2F20205C7C2024245F5F2F2024247CD1
S1132E1E202424207C202424207C2024247C202470
S1132E2E245F5F2F2024247C2024245F5F2F202402
S1132E3E24205F5F00205C242420202020242420D2
S1132E4E5C24242020202024247C202424207C2064
S1132E5E2424207C2024247C20242420202020248C
S1132E6E24205C24242020202024247C20205C0088
S1132E7E20205C2424242424242020205C242424A4
S1132E8E24242420205C242420205C242420205C60
S1132E9E2424205C242424242424242020205C2480
S1132EAE242424242420205C24240046696E616C8E
S10F2EBE2053636F72653A2025640A00FB
S9030000FC
