S01700004763634170706C69636174696F6E312E737265635B
S11300000C94C3010C94E0010C94E0010C94E00105
S11300100C94E0010C941A020C94E0010C94E0019D
S11300200C94E0010C94CF120C94E0010C94E001C8
S11300300C94E0010C94E0010C94E0010C94E001B8
S11300400C9413120C94E0010C94E0010C94E00164
S11300500C9426110C94E4100C94E0010C94E0012F
S11300600C94E0010C94E0010C94E0010C94E00188
S11300700C94E0010C94E0010C94E001507265735F
S113008073206120627574746F6E206F7220277301
S1130090272F27532720746F207374617274206193
S11300A0206E65772067616D650047414D45204F9F
S11300B05645520043535345323031302F37323096
S11300C03120413220627920204361696C696E20BD
S11300D044656C6761646F202D20343830323739C1
S11300E0343200205C24242020205C24242020207E
S11300F020205C2420202020205C24242020205C3C
S11301002424202020202020205C24242020205C63
S1130110242420205C24242424242424205C242437
S113012020202020202020205C2424242424240097
S11301307C20242420207C202424202020205C24B3
S113014024242020207C20242420207C20242420DB
S113015020202020207C20242420207C20242420D3
S11301605C242420202020205C7C202424202020A7
S1130170202020205C2424202020202424007C20F3
S1130180242420207C2024242020205C24242024B7
S11301902420207C20242420207C2024242020208F
S11301A02020207C20242420207C2024247C202423
S11301B0242424242424247C2024242020202020BB
S11301C0207C2024245F5F2F202424007C202424EE
S11301D024242424242420205C24245C202024247B
S11301E0207C20242424242424245C202020202057
S11301F0207C2024242424242424247C202424201B
S113020020202024247C2024242020205C24247CDE
S113021020242420207C202424007C20242420202A
S113022020202424205C24245C202F202024247CCF
S11302302024242020202024242020202020207C4E
S11302402024242020202024247C2020242424242E
S113025024245C7C20202424242424245C7C20204A
S11302602424242424245C007C2024245F5F7C2018
S113027024247C2024242020207C2024247C20244A
S1130280245F5F7C2024242020202020207C202424
S1130290245F5F7C202424202F2020202020205C29
S11302A020202F2020202020205C20202F202020F0
S11302B02020205C007C20202424242424245C7C12
S11302C02024242020207C2024247C202424242452
S11302D02424245C2020202020207C20242420206E
S11302E07C20242420205F5F5F5F5F5F202020202C
S11302F05F5F5F5F5F5F202020205F5F5F5F5F5F06
S113030000202F2020202020205C207C20205C2026
S113031020207C20205C7C202020202020205C20A9
S11303202020202020207C20205C20207C20205C99
S11303300020205F5F5F5F5F5F2020205F5F2020E1
S11303402020205F5F20205F5F5F5F5F5F5F202072
S1130350202020202020205F5F202020205F5F00BD
S11303601B5B3F323568001B5B3F32356C001B5B07
S113037025646D001B5B4B001B5B324A001B5B2535
S1130380643B2564480011241FBECFEFD8E0DEBFD4
S1130390CDBF16E0A0E0B1E0E6E9F0E302C00590CD
S11303A00D92AA32B107D9F727E0AAE2B6E001C05C
S11303B01D92A738B207E1F70E941C100C9449184B
S11303C00C940000E8E6F0E08081826080838BB3C7
S11303D082608BBBECE6F0E080818F6080831092BA
S11303E02A06089580912A06181614F580912B0682
S11303F06FB7F89491E009C0F901E55DF94F4081C8
S1130400F901E65DF94F40839F5F292F30E0409169
S11304102A06042E000C550B241735076CF3909113
S11304202A06915090932A0666231CF47894089522
S11304308FEF08951F920F920FB60F9211242F93EE
S11304403F934F938F939F93EF93FF9343B14F70D9
S113045080E026C090912A0694300CF5242F30E0D9
S1130460082E02C0359527950A94E2F720FF17C09D
S113047020912F0630E0082E02C0359527950A9466
S1130480E2F720FD0CC0E0912A0691E09E0F9093C4
S11304902A060E2E000CFF0BE55DF94F80838F5F5B
S11304A08430C0F240932F06FF91EF919F918F917A
S11304B04F913F912F910F900FBE0F901F90189561
S11304C01F93CF93DF93182FD4E036C0CE3011F4AE
S11304D04FEF01C040E02C2F30E0205E3F4F211B46
S11304E03109ED2FF0E0BF016250710981E090E025
S11304F0DC0102C0AA0FBB1F6A95E2F7BD0161507F
S1130500710926233723339702C0880F991FEA9570
S1130510E2F701972817390729F4CE3010F44FE099
S113052001C040EF6D2F8C2F0E94EC07CF5F01C0FC
S1130530CBE0C03158F2DF5FD830D0F3DF91CF91F8
S11305401F9108951F93CF93DF93CDB7DEB72897FC
S11305500FB6F894DEBF0FBECDBF0E94280810E08E
S113056031C0E12FF0E0EE5CFE4F908180E021C0CD
S1130570282F30E0492F50E0082E02C055954795AA
S11305800A94E2F740FF0DC0843010F44FE001C03C
S113059040EFE1E0F0E0EC0FFD1FE20FF31F4083BA
S11305A007C0E1E0F0E0EC0FFD1FE20FF31F108243
S11305B08F5F8830E8F2BE016F5F7F4F812F0E940A
S11305C00B081F5F103168F280E00E9460022896D9
S11305D00FB6F894DEBF0FBECDBFDF91CF911F9150
S11305E00895CF93DF93CDB7DEB728970FB6F8946D
S11305F0DEBF0FBECDBF0E94280880E009C0E1E045
S1130600F0E0EC0FFD1FE80FF11D9FEF90838F5F6B
S11306108830A8F3BE016F5F7F4F8DE00E940B0806
S113062080E009C0E1E0F0E0EC0FFD1FE80FF11DF0
S113063095E590838F5F8830A8F3BE016F5F7F4F8D
S11306408CE00E940B08BE016F5F7F4F8EE00E941A
S11306500B0880E009C0E1E0F0E0EC0FFD1FE80FBB
S1130660F11D91E190838F5F8830A8F3BE016F5F25
S11306707F4F8BE00E940B08BE016F5F7F4F8FE0BE
S11306800E940B0828960FB6F894DEBF0FBECDBFAC
S1130690DF91CF9108956DE070E08AE090E00E94D0
S11306A0AB110E94C51180913C0690913D068A30A1
S11306B0910534F49C01275F3F4F2930310568F4DC
S11306C09F938F9382E491E09F938F930E944515AB
S11306D00F900F900F900F9008958436910534F485
S11306E09C012E593F4F2935310568F49F938F9310
S11306F083E591E09F938F930E9445150F900F908F
S11307000F900F9008958D392FEF92076CF49F93FB
S11307108F9383E691E09F938F930E9445150F90EA
S11307200F900F900F9008959F938F9382E791E01D
S11307309F938F930E9445150F900F900F900F90E9
S113074008956EE070E08AE090E00E94AB110E9490
S1130750C51180915F06909160068A3091056CF016
S11307609F938F9384E891E09F938F930E94451504
S11307700F900F900F900F900CC09F938F9385E96B
S113078091E09F938F930E9445150F900F900F90C7
S11307900F9080915F069091600603973CF081E092
S11307A090E0909362068093610608951092620629
S11307B0109261060895CF93DF93CDB7DEB76897A3
S11307C00FB6F894DEBF0FBECDBF10925C06109238
S11307D05B068F3F2FEF920759F46F3F2FEF72079D
S11307E039F421E030E030933F0620933E0604C004
S11307F010923F0610923E0628E1EAE1F1E0DE01A4
S1130800119601900D922A95E1F7E0915D06F09121
S11308105E06EE0FFF1FEE0FFF1FE80FF91FEE0F2E
S1130820FF1F81E090E08C0F9D1FE80FF91F80816E
S1130830918190934106809340066B30710569F471
S113084080E090E0A0E0B0E48093650690936606B3
S1130850A0936706B09368063FC06C30710569F4D5
S113086080E090E0A0E2B1E4809365069093660690
S1130870A0936706B09368062FC06D30710569F4C4
S113088080E090E0A8E4B2E4809365069093660665
S1130890A0936706B09368061FC06E30710569F4B3
S11308A080E090E0A4EBB2E4809365069093660642
S11308B0A0936706B09368060FC06F30710561F4AA
S11308C080E090E0A4ECB2E4809365069093660621
S11308D0A0936706B09368060E94571268960FB6F5
S11308E0F894DEBF0FBECDBFDF91CF910895089578
S11308F0009751F488E1E7EAF1E0A2E4B6E0019060
S11309000D928A95E1F708958130910551F48AE1B9
S1130910EFEBF1E0A2E4B6E001900D928A95E1F7E5
S11309200895029749F484E1E9EDF1E0A2E4B6E028
S113093001900D928A95E1F708950E94F1021092B8
S11309406A06109269061092300610925C061092A4
S11309505B060E944B030E94A1030895EF92FF924D
S11309600F931F93CF93DF93D82FCBE0D2C08FE0A8
S11309708C1B4091690650916A06480F511D9A01DB
S1130980ADECBCEC0E94E4148C0116950795169509
S11309900795C801880F991F880F991F800F911F11
S11309A04817590709F0B4C080915D0690915E061E
S11309B0FC01F695FE2FEE27F795E795E80FF91F52
S11309C0E351FE4FE00FF11D8081ED2EF12C90E0FC
S11309D00D2E02C0959587950A94E2F780FF87C093
S11309E080910001082E000C990BE816F906C1F459
S11309F080913C0690913D06019790933D0680932B
S1130A003C060E944B031092600610925F060E94FF
S1130A10A1036FEF7FEF8FEF9FEF0E94DB037CC09A
S1130A20D093000140EF1D2F110F612F8C2F0E94D6
S1130A30EC0761E0610F40EF8C2F0E94EC07CB3094
S1130A4011F0CF3099F480913C0690913D060196C7
S1130A5090933D0680933C061092600610925F06C8
S1130A606C2F70E0C7010E94DB034EC0CC3011F044
S1130A70CE3099F480913C0690913D060296909375
S1130A803D0680933C061092600610925F066C2F20
S1130A9070E0C7010E94DB0337C0CD30A9F5809117
S1130AA05F069091600601969093600680935F06BE
S1130AB06C2F70E0C7010E94DB0380915F06909168
S1130AC06006049754F080913C0690913D0604968C
S1130AD090933D0680933C0617C080913C0690910C
S1130AE03D06039690933D0680933C060DC080918D
S1130AF03C0690913D06019790933D0680933C06F9
S1130B001092600610925F060E944B030E94A1039C
S1130B10CF5FC03108F42BCFDF91CF911F910F919C
S1130B20FF90EF9008959F92AF92BF92CF92DF9281
S1130B30EF92FF920F931F93CF93DF9380916106FF
S1130B4090916206892B39F40F2EFFE0FF2EF02DD1
S1130B50EE24E39408C00F2EFCE3FF2EF02D0F2E9D
S1130B60FCE1EF2EF02D80915B0690915C060196DE
S1130B7090935C0680935B06059734F06FEF7FEFEC
S1130B808FEF9FEF0E94DB0310E023C18FE0811BF6
S1130B90E0916906F0916A06AF01480F511D9A0170
S1130BA0ADECBCEC0E94E4145C01B694A794B6943A
S1130BB0A794DA2D9F01215F3F4F0E94E41496957C
S1130BC08795969587958F5F14C020915D06309127
S1130BD05E06F901F695FE2FEE27F795E795E20FED
S1130BE0F31FE351FE4FE80FF11D90819F7019F43C
S1130BF08F5F813850F320915D0630915E06F901D4
S1130C00F695FE2FEE27F795E795E20FF31FE351D4
S1130C10FE4FE80FF11DC081D13820F081E08093B0
S1130C203006DAC09A01ADECBCEC0E94E41496954F
S1130C308795969587959C01220F331F220F331FAA
S1130C40820F931F4817590709F0C2C000E0B8C0CB
S1130C5091E0C13009F090E081E0011180E0892346
S1130C6071F04E2DC02ECC0C6C2D80E00E94EC0750
S1130C7061E06C0D4E2D80E00E94EC0747C091E0CE
S1130C80C23009F090E081E0013009F080E089236E
S1130C9071F04E2DC02ECC0C6C2D80E00E94EC0720
S1130CA061E06C0D4E2D80E00E94EC072FC091E0B6
S1130CB0C43009F090E081E0023009F080E089233B
S1130CC071F04E2DC02ECC0C6C2D80E00E94EC07F0
S1130CD061E06C0D4E2D80E00E94EC0717C091E09E
S1130CE0C83009F090E081E0033009F080E0892306
S1130CF069F04E2DC02ECC0C6C2D80E00E94EC07C8
S1130D0061E06C0D4E2D80E00E94EC0780915D0641
S1130D1090915E06FC01F695FE2FEE27F795E79578
S1130D20E80FF91FE351FE4FEA0DF11D808190E0B9
S1130D30002E02C0959587950A94E2F780FF3FC084
S1130D401F30D9F4809100018F3FB9F480913C06A3
S1130D5090913D06019790933D0680933C060E9436
S1130D604B0380915F0690916006892B31F01092BD
S1130D70600610925F060E94A1031B3051F01F30E1
S1130D8051F01C3051F01E3051F01D3051F4DFEFA2
S1130D9009C0D1E107C0D1E105C0D5E503C0D5E55F
S1130DA001C0D0E04D2FC02ECC0C6C2D812F0E94A1
S1130DB0EC0761E06C0D4D2F812F0E94EC070F5F53
S1130DC0043008F445CF1F3018F08FEF80930001F2
S1130DD01F5F103108F4DACE8091690690916A069B
S1130DE0019690936A0680936906E12CD9C08FE03E
S1130DF08E19E0916906F0916A06AF01480F511D02
S1130E009A01ADECBCEC0E94E414EC01D695C795B4
S1130E10D695C795CE01880F991F880F991F8C0FFF
S1130E209D1F4817590709F0BAC09F01215F3F4F22
S1130E300E94E414969587959695879520915D0672
S1130E4030915E06F901F695FE2FEE27F795E795AA
S1130E50E20FF31FE351FE4FE80FF11DB080C138DC
S1130E6008F09DC0DD276E018FEFC81AD80A81E80B
S1130E70C816D1040CF093C0A12C00E010E08BC084
S1130E8080915D0690915E069C013695322F222753
S1130E9037952795820F931F83519E4FFC01EC0FCA
S1130EA0FD1F2081FC01EC0DFD1D8081982F929582
S1130EB09F70291711F10115110519F0281709F46C
S1130EC069C001151105D9F0A6015695542F442780
S1130ED0579547954C0D5D1DCE010197BC01769544
S1130EE0762F662777956795860F971F48175907BA
S1130EF009F050C000E010E002C001E010E001156C
S1130F00110521F0322F32953F7001C0322F4A2D46
S1130F1050E0822F90E00A2C02C0959587950A94A0
S1130F20E2F780FF37C080910001082E000C990B76
S1130F304817590791F485EF8E0D853070F440EF12
S1130F409A2C990C692D8E2D0E94EC0761E0690D95
S1130F5040EF8E2D0E94EC071DC03B1571F04F2D04
S1130F609A2C990C692D8E2D0E94EC0761E0690D75
S1130F704F2D8E2D0E94EC070DC04F2D9A2C990CED
S1130F80692D8E2D0E94EC0761E0690D4F2D8E2D89
S1130F900E94EC07A39483E08A1508F071CFE394D0
S1130FA08FE08E1508F023CFDF91CF911F910F9121
S1130FB0FF90EF90DF90CF90BF90AF909F900895F7
S1130FC080913006882319F01092300681E008954C
S1130FD080E80E94791108951F93CF93DF938031A5
S1130FE0B0F46830A0F4142FC62FD82F81E00E94EB
S1130FF0A5116C2F677080E1689F900111248D2FDB
S11310008F70822B0E94A511812F0E94A511DF9160
S1131010CF911F9108950F931F93CF938031A0F424
S11310208B01C82F83E00E94A5118C2F8F700E9422
S1131030A511C0E007C0F801EC0FF11D80810E94EA
S1131040A511CF5FC830B8F3CF911F910F910895C8
S11310508FE00E94A51108950E94E8070E94E20112
S11310608FEF87B98CEF8AB980E480937C0086E89F
S113107080937A0040E060E07BE480E090E00E94AE
S113108091100E94ED110E9438120E94C1127894AE
S113109008954F925F926F927F928F929F92AF9238
S11310A0BF92CF92DF92EF92FF92CF93DF930E9491
S11310B0BC110E94E4110E94BC110E94DB1185E264
S11310C00E94CE1164E070E08AE090E00E94AB11CF
S11310D081E393E09F938F930E945B1565E070E03A
S11310E08AE090E00E94AB1181E093E09F938F939C
S11310F00E945B1566E070E08AE090E00E94AB110C
S113110085EB92E09F938F930E945B1567E070E0FC
S11311108AE090E00E94AB1188E692E09F938F935F
S11311200E945B1568E070E08AE090E00E94AB11D9
S11311308AE192E09F938F930E945B1569E070E0CF
S11311408AE090E00E94AB118CEC91E09F938F9326
S11311500E945B156AE070E08AE090E00E94AB11A7
S11311608EE791E09F938F930E945B156BE070E094
S11311708AE090E00E94AB1180E391E09F938F930B
S11311800E945B156CE070E08AE090E00E94AB1175
S113119083EE90E09F938F930E945B156EE070E066
S11311A08AE090E00E94AB1184EB90E09F938F93D0
S11311B00E945B150E94A20280E090E00E947804E5
S11311C06FE070E08AE090E00E94AB1182E496E068
S11311D09F938F9380E793E09F938F930E9445158D
S11311E00E9403126B017C0188EE93E090936C06DD
S11311F080936B0661E170E08AE090E00E94AB119D
S11312000E94C51180916B0690916C062DB73EB774
S1131210285E3F4F0FB6F8943EBF0FBE2DBF883EE9
S113122033E0930769F49F938F938AE793E09F9346
S11312308F930E9445150F900F900F900F9020C030
S1131240843F21E0920769F49F938F9380EA93E0AF
S11312509F938F930E9445150F900F900F900F90BE
S11312600FC08A3F910561F49F938F9384EC93E0C0
S11312709F938F930E9445150F900F900F900F909E
S1131280D0E00E94D810882341F08091810790918A
S113129082070E940715C82F01C0CFEFC33709F496
S11312A0F6C0C33509F4F3C0C133F9F488EE93E012
S11312B090936C0680936B0661E170E08AE090E0A5
S11312C00E94AB110E94C51180916C068F9380918E
S11312D06B068F938AE793E09F938F930E94451543
S11312E00F900F900F900F9041C0C233F9F484EF28
S11312F091E090936C0680936B0661E170E08AE064
S113130090E00E94AB110E94C51180916C068F93EE
S113131080916B068F9380EA93E09F938F930E9452
S113132045150F900F900F900F9020C0C333F1F428
S11313308AEF90E090936C0680936B0661E170E015
S11313408AE090E00E94AB110E94C51180916C0666
S11313508F9380916B068F9384EC93E09F938F938C
S11313600E9445150F900F900F900F900E94F2016C
S11313708F3F09F08CC0CD3611F0CD3411F560E10A
S113138070E08AE090E00E94AB110E94C511809148
S1131390350690913606892B29F010923606109264
S11313A035063EC081E090E0909336068093350682
S11313B08BEE93E09F938F930E9445150F900F90AF
S11313C02FC0C43711F0C43559F580915D06909152
S11313D05E06019690935E0680935D06039724F063
S11313E010925E0610925D0680915D0690915E06F5
S11313F00E9478046FE070E08AE090E00E94AB11F4
S11314000E94C51182E496E09F938F9380E793E056
S11314109F938F930E9445150F900F900F900F90FC
S11314208091350690913606892B09F02ACF0E94C7
S113143003124B015C012B013C014C185D086E0842
S11314407F0820916B0630916C06ADECBCEC0E94D9
S1131450E4149695879596958795A0E0B0E0841559
S11314609505A605B70508F00CCF8D2F0E946002E4
S11314708D2F90E001968F719078992324F4019731
S1131480806E9F6F0196D82F75016401FACEDF91AB
S1131490CF91FF90EF90DF90CF90BF90AF909F904F
S11314A08F907F906F905F904F900895CF93DF93CC
S11314B0EC010E942808C230D105A9F11CF421973F
S11314C071F174C1C330D10509F4F3C0249709F450
S11314D0F5C06CC14FEF63E08C2F0E94EC074FEF17
S11314E064E08C2F0E94EC07C53059F44FEF62E0A2
S11314F08C2F0E94EC074FEF64E08C2F0E94EC07C6
S11315000CC0CA3051F44FEF62E08C2F0E94EC07FC
S11315104FEF65E08C2F0E94EC07CF5F01C0C4E061
S1131520CB30C0F243C14FE062E084E00E94EC079C
S11315304FE063E084E00E94EC074FE064E084E065
S11315400E94EC074FE065E084E00E94EC074FE066
S113155061E085E00E94EC074FE062E085E00E94D4
S1131560EC074FE065E085E00E94EC074FE066E0A1
S113157085E00E94EC074FE065E086E00E94EC07FE
S11315804FE066E086E00E94EC074FE065E087E00C
S11315900E94EC074FE066E087E00E94EC074FE012
S11315A062E088E00E94EC074FE063E088E00E947C
S11315B0EC074FE064E088E00E94EC074FE061E054
S11315C089E00E94EC074FE062E089E00E94EC07AA
S11315D04FE061E08AE00E94EC074FE062E08AE0BD
S11315E00E94EC074FE063E08AE00E94EC074FE0C2
S11315F064E08AE00E94EC074FE065E08AE00E9424
S1131600EC074FE066E08AE00E94EC07CFC0C430EC
S113161011F0CA30A9F44FE062E08C2F0E94EC076D
S11316204FE063E08C2F0E94EC074FE064E08C2FC6
S11316300E94EC074FE065E08C2F0E94EC0737C056
S1131640C53011F0C930A9F44FE061E08C2F0E943D
S1131650EC074FE062E08C2F0E94EC074FE065E05E
S11316608C2F0E94EC074FE066E08C2F0E94EC0761
S11316701EC0C63011F0C83059F44FE065E08C2F1D
S11316800E94EC074FE066E08C2F0E94EC070FC02D
S11316904FE062E08C2F0E94EC074FE063E08C2F58
S11316A00E94EC074FE064E08C2F0E94EC07CF5FB0
S11316B001C0C4E0CB3008F4AACF78C040EF61E0A9
S11316C085E00E94EC0740EF62E085E00E94EC07B1
S11316D040EF63E085E00E94EC0740EF65E085E0C1
S11316E00E94EC0740EF66E085E00E94EC0740EFC3
S11316F067E085E00E94EC0740EF60E086E00E942E
S1131700EC0740EF65E086E00E94EC0740EF67E0FD
S113171086E00E94EC0740EF60E087E00E94EC075F
S113172040EF62E087E00E94EC0740EF63E087E06F
S11317300E94EC0740EF65E087E00E94EC0740EF71
S113174067E087E00E94EC0740EF60E088E00E94D9
S1131750EC0740EF63E088E00E94EC0740EF65E0AF
S113176088E00E94EC0740EF67E088E00E94EC0705
S113177040EF61E089E00E94EC0740EF62E089E01D
S11317800E94EC0740EF63E085E00E94EC0740EF25
S113179065E089E00E94EC0740EF66E089E00E9482
S11317A0EC0740EF67E089E00E94EC07DF91CF91FE
S11317B008958F929F92AF92BF92CF92DF92EF9251
S11317C0FF920E9403124B015C0183E090E00E94AF
S11317D0560A0E9403126B017C01AB01BC0148193B
S11317E059096A097B0980916B0690916C06880FF0
S11317F0991FA0E0B0E0481759076A077B0748F330
S113180082E090E00E94560A0E9403124B015C01A0
S1131810AB01BC014C195D096E097F0980916B060F
S113182090916C06880F991FA0E0B0E04817590703
S11318306A077B0748F381E090E00E94560A0E9401
S113184003126B017C01AB01BC01481959096A09F7
S11318507B0980916B0690916C06880F991FA0E01C
S1131860B0E0481759076A077B0748F384E090E023
S11318700E94560A0E940312AB01BC014C195D0977
S11318806E097F0980916B0690916C06880F991FF1
S1131890A0E0B0E0481759076A077B0758F3FF90A8
S11318A0EF90DF90CF90BF90AF909F908F9008956E
S11318B080913C0690913D068A30910508F461C000
S11318C09C012A5031092A35310528F46AE070E078
S11318D00E948F142AC0843691057CF02AE030E0FF
S11318E0B9010E948F14E82F492FCB01B9010E943E
S11318F08F14BC018E2F942F18C09C01275F3F4F7B
S11319002930310530F49195819591096AE070E0B0
S11319100CC0873F2FEF920724F0BC0180E090E0D9
S113192004C08AE090E06AE070E0209131063091D2
S11319303206232B99F08BB184608BB9FB01EF5FE6
S1131940FE4F808188B9809131069091320621E062
S11319508227909332068093310608952BB12B7F12
S11319602BB9FC01EF5FFE4F808188B9809131066D
S11319709091320621E082279093320680933106BB
S113198008952091310630913206232B31F0FC0169
S1131990EF5FFE4F808188B9089580913106909160
S11319A0320621E08227909332068093310608950F
S11319B00E94BC1110923D0610923C0610926006E3
S11319C010925F060E94D90B0E949D040E94F201AE
S11319D00E94DF100895EAE7F0E08081806480834C
S11319E080917A0086FDFCCF8091780090917900F7
S11319F008954F925F926F927F928F929F92AF92CF
S1131A00BF92CF92DF92EF92FF920F931F93CF93E7
S1131A10DF9300D000D0CDB7DEB70E9403122B01B4
S1131A203C016FE070E08AE090E00E94AB1182E438
S1131A3096E09F938F9380E793E09F938F930E9408
S1131A40451562E170E08AE090E00E94AB110E94CB
S1131A50C51180916B0690916C060F900F900F90BA
S1131A600F90883E23E0920769F49F938F938AE74F
S1131A7093E09F938F930E9445150F900F900F90C2
S1131A800F9020C0843F31E0930769F49F938F93B4
S1131A9080EA93E09F938F930E9445150F900F90D7
S1131AA00F900F900FC08A3F910561F49F938F931D
S1131AB084EC93E09F938F930E9445150F900F90B1
S1131AC00F900F9000E010E0812C912C5401FAC18A
S1131AD00E94F20189830E94D810882341F08091EA
S1131AE08107909182070E940715F82E02C0FF24F7
S1131AF0FA940E94EB0C8091330690913406892B62
S1131B0099F54981442331F056E6F51619F086E437
S1131B10F81204C083E00E94AE0426C0998191307B
S1131B2031F024E6F21619F034E4F31204C082E032
S1131B300E94AE0419C04981423031F053E7F516D2
S1131B4019F083E5F81204C081E00E94AE040CC0D1
S1131B509981933031F021E6F21619F031E4F31251
S1131B6003C080E00E94AE044DE6F41619F05DE473
S1131B70F51227C08091330690913406892B09F51C
S1131B8060E170E08AE090E00E94AB110E94C51110
S1131B908091350690913606892B29F010923606ED
S1131BA0109235060EC081E090E090933606809343
S1131BB035068BEE93E09F938F930E9445150F900B
S1131BC00F9080E7F81619F090E5F9123BC061E137
S1131BD070E08AE090E00E94AB110E94C5118091F0
S1131BE0330690913406892B71F0109234061092CA
S1131BF033068BB1877F8BB980913306909134067D
S1131C000E94AD121FC081E090E09093340680934F
S1131C1033060E9403124B015C0184189508A60840
S1131C20B7088BB188608BB98091330690913406E4
S1131C300E94AD128BEF93E09F938F930E94451502
S1131C400F900F9080915F0690916006009721F4A9
S1131C508BB18F718BB913C08130910521F48BB195
S1131C6080628BB90CC08230910521F48BB1806401
S1131C708BB905C003971CF08BB180688BB9809138
S1131C80610690916206892BA1F00115110589F472
S1131C9063E070E08AE090E00E94AB1187E094E09A
S1131CA09F938F930E9445150F5F1F4F0F900F90C6
S1131CB09FC00130110589F464E070E08AE090E08F
S1131CC00E94AB1181E494E09F938F930E94451589
S1131CD00F5F1F4F0F900F908BC00230110589F4D6
S1131CE065E070E08AE090E00E94AB118CE794E03C
S1131CF09F938F930E9445150F5F1F4F0F900F9076
S1131D0077C00330110589F466E070E08AE090E062
S1131D100E94AB1187EB94E09F938F930E9445152B
S1131D200F5F1F4F0F900F9063C00430110589F4AB
S1131D3067E070E08AE090E00E94AB1182EF94E0EB
S1131D409F938F930E9445150F5F1F4F0F900F9025
S1131D504FC00530110589F468E070E08AE090E036
S1131D600E94AB118DE295E09F938F930E944515DD
S1131D700F5F1F4F0F900F903BC00630110589F481
S1131D8069E070E08AE090E00E94AB1188E695E09B
S1131D909F938F930E9445150F5F1F4F0F900F90D5
S1131DA027C00730110589F46AE070E08AE090E00A
S1131DB00E94AB1182EA95E09F938F930E94451590
S1131DC00F5F1F4F0F900F9013C00830110581F45F
S1131DD06BE070E08AE090E00E94AB118DED95E03D
S1131DE09F938F930E9445150F900F9000E010E091
S1131DF08091610690916206892B81F017C06981F8
S1131E007A818AE090E00E94AB110E94C511298179
S1131E103A812F5F3F4F3A83298304C043E050E067
S1131E205A83498389819A810C974CF32091350612
S1131E303091360691E04091330650913406452B9B
S1131E4009F090E081E02115310509F080E0892353
S1131E5069F10E94031269837A838B839C836B01EB
S1131E607C01C818D908EA08FB0820916B06309158
S1131E706C06ADECBCEC0E94E4149695879596959F
S1131E808795A3019201280F391F411D511DC216C8
S1131E90D306E406F506B0F00E94930549805A8003
S1131EA06B807C80812C912C54010CC0232B51F02D
S1131EB03EE6F31619F04EE4F41202C00E949305B4
S1131EC00E9477040E94E007882309F401CE0F9052
S1131ED00F900F900F90DF91CF911F910F91FF9072
S1131EE0EF90DF90CF90BF90AF909F908F907F90B6
S1131EF06F905F904F9008950E94BC116DE070E068
S1131F008AE090E00E94AB118AEA90E09F938F935D
S1131F100E945B156EE070E08AE090E00E94AB11D5
S1131F2080913D068F9380913C068F9388E196E0E3
S1131F309F938F930E9445156FE070E08AE090E0D4
S1131F400E94AB1182E496E09F938F9380E793E025
S1131F509F938F930E94451510925E0610925D0622
S1131F6060E170E08AE090E00E94AB110E94C5112C
S1131F7080916B0690916C062DB73EB7265F3F4F5C
S1131F800FB6F8943EBF0FBE2DBF883E33E09307D3
S1131F9069F49F938F938AE793E09F938F930E94B2
S1131FA045150F900F900F900F9020C0843F21E0B3
S1131FB0920769F49F938F9380EA93E09F938F93A2
S1131FC00E9445150F900F900F900F900FC08A3FFD
S1131FD0910561F49F938F9384EC93E09F938F9387
S1131FE00E9445150F900F900F900F9061E170E0E3
S1131FF08AE090E00E94AB118CE790E09F938F936E
S11320000E945B150F900F9010C00E94D810882377
S113201039F080918107909182070E94071501C0D1
S11320208FEF833731F0833521F00E94F2018F3F27
S113203061F30E94490808950E942C0810923D06FD
S113204010923C060E9449080E94D80C0E94F90C88
S11320500E947C0FF9CFCF93C82F8A3019F48DE0FA
S11320600E942B109FB7907802C0992329F1809188
S11320706E068F3FD1F3F894E0916D0681E08E0FE8
S113208080936D06F0E0E159F94FC08380916E06AC
S11320908F5F80936E0680916D068F3F11F41092CE
S11320A06D06E1ECF0E0808180628083992339F051
S11320B0789480E090E005C081E090E002C080E088
S11320C090E0CF910895809180078823E1F32FB7A2
S11320D02078F89480916E073091800790E0831BFC
S11320E091095AF4E0916E0780918007F0E0E81BB3
S11320F0F109E158F84F80810AC0E0916E078091A0
S11321008007F0E0E81BF109E159F84F80819091D4
S11321108007915090938007222309F0789490E0EF
S1132120089510926D0610926E0610926E0710922A
S1132130800710927F0740933706DC01CB01880F9C
S1132140991FAA1FBB1F880F991FAA1FBB1F9C01A1
S1132150AD01220F331F441F551F60E072E18AE76F
S113216090E00E94C514BA01A9014F5F5F4F6F4F01
S11321707F4FDB01CA011AF40196A11DB11DB5956B
S1132180A7959795879501979093C5008093C40070
S1132190E1ECF0E088E18083808180688083E1E87D
S11321A0F7E08CE091E093838283918380830895A8
S11321B09091800781E0911101C080E00895109210
S11321C06E071092800708951F920F920FB60F9218
S11321D011242F938F939F93EF93FF9380916E0617
S11321E0882329F180916D0620916E0690E0821B70
S11321F091095AF4E0916D0680916E06F0E0E81BB7
S1132200F109E259F84F90810AC0E0916D0680917E
S11322106E06F0E0E81BF109E159F94F90818091D5
S11322206E06815080936E069093C60005C0E1EC63
S1132230F0E080818F7D8083FF91EF919F918F915A
S11322402F910F900FBE0F901F9018951F920F9211
S11322500FB60F9211242F933F934F935F936F9375
S11322607F938F939F93AF93BF93CF93EF93FF93FA
S1132270C091C60080913706882349F080916E068C
S11322808F3F29F060E070E08C2F0E942B1080912A
S11322908007803120F081E080937F0718C0CD3023
S11322A009F4CAE0E0916E0781E08E0F80936E0717
S11322B0F0E0E159F84FC083809180078F5F8093ED
S11322C0800780916E07803111F410926E07FF91A0
S11322D0EF91CF91BF91AF919F918F917F916F912A
S11322E05F914F913F912F910F900FBE0F901F90D0
S11322F0189594B1906B94B995B1906195B990E5A6
S11323009CBD883021F0803211F0823019F491E0C4
S11323109DBD01C01DBC803269F028F4883071F085
S1132320803161F00EC0803429F0803851F48CB5CE
S113233081608CBD8CB582608CBD03C08CB581601E
S11323408CBD85B18F7E85B908958EBD0DB407FE11
S1132350FDCF8EB508959F938F937F936F938DE7F1
S113236093E09F938F930E945B150F900F900F90B3
S11323700F900F900F90089588E793E09F938F93A9
S11323800E945B150F900F90089584E793E09F934C
S11323908F930E945B150F900F9008951F928F9357
S11323A08EE693E09F938F930E945B150F900F909E
S11323B00F900F90089587E693E09F938F930E9468
S11323C05B150F900F90089580E693E09F938F9391
S11323D00E945B150F900F9008951092380610928A
S11323E0390610923A0610923B0616BC8CE787BD5C
S11323F092E094BD83E085BDEEE6F0E080818260EA
S1132400808395BB08958FB7282F2078F894609126
S113241038067091390680913A0690913B06222342
S113242009F0789408951F920F920FB60F92112419
S11324308F939F93AF93BF93809138069091390601
S1132440A0913A06B0913B060196A11DB11D80935F
S1132450380690933906A0933A06B0933B06BF9191
S1132460AF919F918F910F900FBE0F901F90189571
S113247081E090E0909341068093400610926506B7
S11324801092660610926706109268068FE392E433
S1132490909389008093880010928B0010928A0098
S11324A083E2809380008AE1809381000895CF9233
S11324B0DF92EF92FF9280913E0690913F06892B26
S11324C0C9F58AB180618AB98BB180618BB92091D9
S11324D040063091410640E050E060E472E48FE051
S11324E090E00E94A31469017A01B90180E090E0B0
S11324F00E94941320916506309166064091670608
S1132500509168060E94221420E030E048EC52E426
S11325100E94F3120E94651321E0C21AD108D092DE
S11325208900C09288006150710970938B00609398
S11325308A000EC0109289001092880010928B00BD
S113254010928A008AB18F7E8AB98BB18F7E8BB943
S1132550FF90EF90DF90CF900895892B79F010923F
S113256089001092880010928B0010928A008AB120
S11325708F7E8AB98BB18F7E8BB908950E945712D2
S113258008958DE48093B3001092B0008DE08093A1
S1132590B10082E08093700087BB789408951F9205
S11325A00F920FB60F9211242F933F934F935F9383
S11325B06F937F938F939F93AF93BF93EF93FF9307
S11325C00E94580CFF91EF91BF91AF919F918F9111
S11325D07F916F915F914F913F912F910F900FBE1B
S11325E00F901F9018950E9407130C94E8130E94F3
S11325F0E11358F00E94DA1340F029F45F3F29F008
S11326000C94D11351110C941C140C94D7130E94E4
S1132610F91368F39923B1F3552391F3951B550BE3
S1132620BB27AA2762177307840738F09F5F5F4FA1
S1132630220F331F441FAA1FA9F335D00E2E3AF0E0
S1132640E0E832D091505040E695001CCAF72BD0F8
S1132650FE2F29D0660F771F881FBB1F2617370749
S11326604807AB07B0E809F0BB0B802DBF01FF277B
S113267093585F4F3AF09E3F510578F00C94D11374
S11326800C941C145F3FE4F3983ED4F3869577953D
S11326906795B795F7959F5FC9F7880F911D969534
S11326A0879597F90895E1E0660F771F881FBB1F90
S11326B0621773078407BA0720F0621B730B840B3D
S11326C0BA0BEE1F88F7E09508950E94011488F074
S11326D09F5798F0B92F9927B751B0F0E1F0660FE2
S11326E0771F881F991F1AF0BA95C9F714C0B13023
S11326F091F00E941B14B1E008950C941B14672FF1
S1132700782F8827B85F39F0B93FCCF38695779551
S11327106795B395D9F73EF490958095709561953A
S11327207F4F8F4F9F4F0895E89409C097FB3EF465
S113273090958095709561957F4F8F4F9F4F99230A
S1132740A9F0F92F96E9BB279395F6958795779588
S11327506795B795F111F8CFFAF4BB0F11F460FF48
S11327601BC06F5F7F4F8F4F9F4F16C0882311F0A0
S113277096E911C0772321F09EE8872F762F05C0B4
S1132780662371F096E8862F70E060E02AF09A954F
S1132790660F771F881FDAF7880F9695879597F944
S11327A0089597F99F6780E870E060E008959FEFCF
S11327B080EC089500240A941616170618060906D4
S11327C0089500240A9412161306140605060895A3
S11327D0092E0394000C11F4882352F0BB0F40F42B
S11327E0BF2B11F460FF04C06F5F7F4F8F4F9F4F6B
S11327F0089557FD9058440F551F59F05F3F71F0ED
S11328004795880F97FB991F61F09F3F79F0879553
S11328100895121613061406551FF2CF4695F1DFDC
S113282008C0161617061806991FF1CF869571056C
S1132830610508940895E894BB2766277727CB01A0
S113284097F908950E9435140C94E8130E94DA1342
S113285038F00E94E11320F0952311F00C94D11369
S11328600C94D71311240C941C140E94F91370F3C4
S1132870959FC1F3950F50E0551F629FF001729F21
S1132880BB27F00DB11D639FAA27F00DB11DAA1F30
S1132890649F6627B00DA11D661F829F2227B00D7D
S11328A0A11D621F739FB00DA11D621F839FA00D08
S11328B0611D221F749F3327A00D611D231F849F58
S11328C0600D211D822F762F6A2F11249F575040AF
S11328D09AF0F1F088234AF0EE0FFF1FBB1F661F2A
S11328E0771F881F91505040A9F79E3F510580F0F3
S11328F00C94D1130C941C145F3FE4F3983ED4F36E
S1132900869577956795B795F795E7959F5FC1F796
S1132910FE2B880F911D9695879597F9089597FB3F
S1132920072E16F4009407D077FD09D00E94F31403
S113293007FC05D03EF4909581959F4F08957095BE
S113294061957F4F0895A1E21A2EAA1BBB1BFD01BE
S11329500DC0AA1FBB1FEE1FFF1FA217B307E4077A
S1132960F50720F0A21BB30BE40BF50B661F771FD2
S1132970881F991F1A9469F76095709580959095B2
S11329809B01AC01BD01CF010895052E97FB1EF4F8
S113299000940E94DC1457FD07D00E94A31407FC86
S11329A003D04EF40C94DC14509540953095219549
S11329B03F4F4F4F5F4F0895909580957095619567
S11329C07F4F8F4F9F4F0895A29FB001B39FC001C7
S11329D0A39F700D811D1124911DB29F700D811D47
S11329E01124911D0895AA1BBB1B51E107C0AA1F06
S11329F0BB1FA617B70710F0A61BB70B881F991F9C
S1132A005A95A9F780959095BC01CD010895CF936F
S1132A10DF93EC012B8120FF33C026FF0AC02F7BFC
S1132A202B838E819F8101969F838E838A8190E080
S1132A3029C022FF0FC0E881F9818081082E000C93
S1132A40990B009719F420622B831AC03196F983ED
S1132A50E8830EC0EA85FB85099597FF09C02B81A1
S1132A60019611F080E201C080E1822B8B8308C0C3
S1132A702E813F812F5F3F4F3F832E83992702C0D2
S1132A808FEF9FEFDF91CF910895A0E0B0E0EBE4EA
S1132A90F5E10C942218AE014B5F5F4FFA0161918E
S1132AA07191AF0180918307909184070E948115F1
S1132AB0E2E00C943E18A0E0B0E0E1E6F5E10C940D
S1132AC02018AE01495F5F4FDA016D917D91AD0130
S1132AD001E817E0F80182819381DC0113962C91BF
S1132AE01397286013962C930E948115D80112968F
S1132AF0ED91FC9113972381277F2383E4E00C94C9
S1132B003C18ABE0B0E0E7E8F5E10C9412186C0176
S1132B107B018A01FC0117821682838181FFCCC16B
S1132B20CE0101963C01F6019381F70193FD859155
S1132B3093FF81917F01882309F4BAC1853239F466
S1132B4093FD859193FF81917F01853229F4B6012C
S1132B5090E00E947817E7CF912C212C312CFFE1D3
S1132B60F315D8F08B3279F038F4803279F083326F
S1132B70A1F4232D20611DC08D3261F0803369F4EE
S1132B80232D216016C0832D8260382EE32DE4604E
S1132B903E2E2AC0F32DF8601DC037FC2DC020ED59
S1132BA0280F2A3040F08E32B9F436FC81C1232D2F
S1132BB02064322E19C036FE06C08AE0989E200D8D
S1132BC01124922E11C0EAE02E9E200D1124222EF3
S1132BD0F32DF0623F2E08C08C3621F4832D8068DB
S1132BE0382E02C0883641F4F70193FD859193FF96
S1132BF081917F018111B3CF982F9F7D955493309C
S1132C0028F40C5F1F4F9FE399830DC0833631F086
S1132C10833771F0833509F059C021C0F8018081F0
S1132C2089830E5F1F4F88248394912C530113C012
S1132C302801F2E04F0E511CF801A080B18036FE4D
S1132C4003C0692D70E002C06FEF7FEFC5010E94E1
S1132C506D174C018201F32DFF773F2E16C028011A
S1132C6022E0420E511CF801A080B18036FE03C060
S1132C70692D70E002C06FEF7FEFC5010E946217FB
S1132C804C01F32DF0683F2E820133FC1BC0822DD2
S1132C9090E088169906B0F4B60180E290E00E94B4
S1132CA078172A94F4CFF50137FC859137FE81918A
S1132CB05F01B60190E00E94781721102A9421E068
S1132CC0821A91088114910471F7E8C0843611F0D6
S1132CD0893641F5F80137FE07C060817181828130
S1132CE093810C5F1F4F08C060817181072E000C17
S1132CF0880B990B0E5F1F4FF32DFF763F2E97FF26
S1132D0009C090958095709561957F4F8F4F9F4F27
S1132D10F0683F2E2AE030E0A3010E94B417882E09
S1132D20861845C0853731F4232D2F7EB22E2AE034
S1132D3030E025C0932D997FB92E8F36C1F018F459
S1132D40883579F0B5C0803719F0883721F0B0C0E4
S1132D50E92FE061BE2EB4FE0DC0FB2DF460BF2E42
S1132D6009C034FE0AC0292F2660B22E06C028E00E
S1132D7030E005C020E130E002C020E132E0F8019B
S1132D80B7FE07C060817181828193810C5F1F4F00
S1132D9006C06081718180E090E00E5F1F4FA30147
S1132DA00E94B417882E8618FB2DFF773F2E36FE1F
S1132DB00DC0232D2E7FA22E891458F434FE0BC08F
S1132DC032FC09C0832D8E7EA82E05C0B82CA32CFE
S1132DD003C0B82C01C0B92CA4FE0FC0FE01E80D3D
S1132DE0F11D8081803321F49A2D997EA92E09C08A
S1132DF0A2FE06C0B394B39404C08A2D867809F069
S1132E00B394A3FC11C0A0FE06C0B21488F4280C2D
S1132E10922C9B180EC0B21460F4B60180E290E0CC
S1132E200E947817B394F7CFB21418F42B1802C089
S1132E30982C212CA4FE10C0B60180E390E00E94DF
S1132E407817A2FE17C0A1FC03C088E790E002C077
S1132E5088E590E0B6010CC08A2D867859F0A1FE71
S1132E6002C08BE201C080E2A7FC8DE2B60190E0D3
S1132E700E947817891438F4B60180E390E00E9428
S1132E8078179A94F7CF8A94F301E80DF11D8081A5
S1132E90B60190E00E9478178110F5CF222009F442
S1132EA042CEB60180E290E00E9478172A94F6CFD1
S1132EB0F6018681978102C08FEF9FEF2B96E2E1A6
S1132EC00C942E18FC010590615070400110D8F745
S1132ED0809590958E0F9F1F0895FC01615070405E
S1132EE001900110D8F7809590958E0F9F1F08953B
S1132EF00F931F93CF93DF93FB01238121FD03C025
S1132F008FEF9FEF2CC022FF16C04681578124818A
S1132F1035814217530744F4A081B1819D012F5F8D
S1132F203F4F318320838C93268137812F5F3F4F1E
S1132F303783268314C08B01EC01FB010084F185E7
S1132F40E02D0995892BE1F6D80116968D919C9177
S1132F501797019617969C938E931697CE01DF913F
S1132F60CF911F910F910895FA01AA27283051F1AA
S1132F70203181F1E8946F936E7F6E5F7F4F8F4FA6
S1132F809F4FAF4FB1E03ED0B4E03CD0670F781F05
S1132F90891F9A1FA11D680F791F8A1F911DA11DEA
S1132FA06A0F711D811D911DA11D20D009F4689423
S1132FB03F912AE0269F11243019305D3193DEF6CB
S1132FC0CF010895462F4770405D4193B3E00FD081
S1132FD0C9F7F6CF462F4F70405D4A3318F0495D6C
S1132FE031FD4052419302D0A9F7EACFB4E0A6954F
S1132FF09795879577956795BA95C9F70097610571
S1133000710508959B01AC010A2E069457954795C6
S113301037952795BA95C9F7620F731F841F951FBB
S1133020A01D08952F923F924F925F926F927F92CC
S11330308F929F92AF92BF92CF92DF92EF92FF92C4
S11330400F931F93CF93DF93CDB7DEB7CA1BDB0B70
S11330500FB6F894DEBF0FBECDBF09942A88398815
S113306048885F846E847D848C849B84AA84B9841C
S1133070C884DF80EE80FD800C811B81AA81B98128
S1133080CE0FD11D0FB6F894DEBF0FBECDBFED013C
S10930900895F894FFCF3F
S1133096FF3F065B4F666D7D077F6F4000000003B0
S11330A6000000002B10631000000B026E02BA022F
S11330B61003B900DC00F7001501DC00F700150168
S11330C64A017FA47F00EF1DE900FFAA5500060907
S11330D6060047616D652053636F72653A202020B0
S11330E625640047616D652053636F72653A20203D
S11330F625640047616D652053636F72653A202528
S1133106640047616D652053636F72653A20202021
S113311620256400436F6D626F20436F756E743AA9
S11331262020256400436F6D626F20436F756E74B3
S11331363A2020202564005468726F7567682066FB
S113314669726520616E6420666C616D65730053F7
S11331566F6D656F6E65206C696B6520796F752080
S11331666279204164656C6500506F6D70656969AC
S11331762062792042617374696C6C6500000000FA
S11331860808088004020440088000000402044081
S11331960804400220011010101000000220044010
S11331A608800440022004400804404002200440F1
S11331B60804400220011010101000000000000056
S11331C60808088004020440020880000201044042
S11331D6088004022001101012200000022004407E
S11331E608044040022004400804404002200440F1
S11331F608044040022001101010000000000000E6
S113320600022001100110011010022002200440C7
S113321602202002200440040440404002044040AE
S113322604040440404000000204404002200440DC
S113323602202020044002044040022004400440AE
S113324604400220011001100110011010100000AA
S113325602202004400220044002200440022001EF
S11332661008808080800000044002200440022070
S1133276202020022001101010101002000000006F
S1133286000001101010022020044040088008802D
S113329608800220202004400880044008808080A2
S11332A6808080088008800110100220200440409D
S11332B60880800110101002202004404008800479
S11332C64004022020202020088080808002020200
S11332D602022002022004404000000000080220EE
S11332E60202020220020200000220011002202033
S11332F6044040020440404008088080808000006A
S1133306547261636B3A2025730043757272656E5D
S1133316742047616D652053706565643A203120D9
S1133326284E6F726D616C3A202564206D732900F6
S113333643757272656E742047616D6520537065BE
S113334665643A20322028466173743A2025642045
S11333566D73290043757272656E742047616D65DD
S11333662053706565643A20332028457874726565
S11333766D653A202564206D7329004D616E756173
S11333866C204D6F64653A204F4E0047616D652091
S11333965061757365640020205F5F5F5F5F5F2027
S11333A62020202020202020202020202020202013
S11333B6202020202020202020205F5F2020202085
S11333C620202020202020202020202020205F5F75
S11333D600202F2020202020205C202020202020B8
S11333E620202020202020202020202020202020D3
S11333F62020207C20205C2020202020202020202B
S1133406202020202020207C20205C007C202024DA
S113341624242424245C20205F5F5F5F5F5F2020D8
S1133426205F5F5F5F5F5F205F5F5F5F20207C20C0
S113343624245F5F5F5F202020205F5F5F5F5F5F04
S113344620207C202424007C2024242020205C248A
S113345624202F2020202020205C207C20202020B7
S113346620205C202020205C207C20242420202076
S1133476205C20202F2020202020205C207C20245B
S113348624007C2024242020202020207C2020248A
S113349624242424245C7C202424242424245C241E
S11334A62424245C7C20242424242424245C7C20BA
S11334B6202424242424245C7C202424007C20240A
S11334C6242020205F5F207C20242420207C2024AC
S11334D6247C202424207C202424207C2024247C56
S11334E620242420207C2024247C20242420207CA6
S11334F6202424205C2424007C2024245F5F2F20A5
S1133506205C7C2024245F5F2F2024247C20242418
S1133516207C202424207C2024247C2024245F5FF7
S11335262F2024247C2024245F5F2F202424205F42
S11335365F00205C2424202020202424205C2424D2
S11335462020202024247C202424207C20242420A1
S11335567C2024247C202424202020202424205C55
S113356624242020202024247C20205C0020205C8D
S11335762424242424242020205C242424242424D5
S113358620205C242420205C242420205C24242065
S11335965C242424242424242020205C242424247D
S11335A6242420205C24240046696E616C20536325
S10D35B66F72653A2025640A0000D4
S9030000FC
