:100000000C94C1010C94DE010C94DE010C94DE0111
:100010000C94DE010C9418020C94DE010C94DE01A9
:100020000C94DE010C94DE010C94DE010C94DE01D4
:100030000C94DE010C94DE010C94DE010C94DE01C4
:100040000C9466080C94DE010C94DE010C94DE0125
:100050000C9482070C9440070C94DE010C94DE0192
:100060000C94DE010C94DE010C94DE010C94DE0194
:100070000C94DE010C94DE010C94DE015072657369
:1000800073206120627574746F6E206F7220277305
:10009000272F27532720746F207374617274206197
:1000A000206E65772067616D650047414D45204FA3
:1000B0005645520043535345323031302F3732309A
:1000C0003120413220627920204361696C696E20C1
:1000D00044656C6761646F202D20343830323739C5
:1000E000343200205C24242020205C242420202082
:1000F00020205C2420202020205C24242020205C40
:100100002424202020202020205C24242020205C67
:10011000242420205C24242424242424205C24243B
:1001200020202020202020205C242424242424009B
:100130007C20242420207C202424202020205C24B7
:1001400024242020207C20242420207C20242420DF
:1001500020202020207C20242420207C20242420D7
:100160005C242420202020205C7C202424202020AB
:10017000202020205C2424202020202424007C20F7
:10018000242420207C2024242020205C24242024BB
:100190002420207C20242420207C20242420202093
:1001A0002020207C20242420207C2024247C202427
:1001B000242424242424247C2024242020202020BF
:1001C000207C2024245F5F2F202424007C202424F2
:1001D00024242424242420205C24245C202024247F
:1001E000207C20242424242424245C20202020205B
:1001F000207C2024242424242424247C202424201F
:1002000020202024247C2024242020205C24247CE2
:1002100020242420207C202424007C20242420202E
:1002200020202424205C24245C202F202024247CD3
:100230002024242020202024242020202020207C52
:100240002024242020202024247C20202424242432
:1002500024245C7C20202424242424245C7C20204E
:100260002424242424245C007C2024245F5F7C201C
:1002700024247C2024242020207C2024247C20244E
:10028000245F5F7C2024242020202020207C202428
:10029000245F5F7C202424202F2020202020205C2D
:1002A00020202F2020202020205C20202F202020F4
:1002B0002020205C007C20202424242424245C7C16
:1002C0002024242020207C2024247C202424242456
:1002D0002424245C2020202020207C202424202072
:1002E0007C20242420205F5F5F5F5F5F2020202030
:1002F0005F5F5F5F5F5F202020205F5F5F5F5F5F0A
:1003000000202F2020202020205C207C20205C202A
:1003100020207C20205C7C202020202020205C20AD
:100320002020202020207C20205C20207C20205C9D
:100330000020205F5F5F5F5F5F2020205F5F2020E5
:100340002020205F5F20205F5F5F5F5F5F5F202076
:10035000202020202020205F5F202020205F5F00C1
:100360001B5B3F323568001B5B3F32356C001B5B0B
:1003700025646D001B5B324A001B5B25643B2564D2
:10038000480011241FBECFEFD8E0DEBFCDBF11E083
:10039000A0E0B1E0E2E2F8E102C005900D92A03ADF
:1003A000B107D9F722E0A0EAB1E001C01D92AA3C52
:1003B000B207E1F70E947C060C940F0C0C9400002D
:1003C000E8E6F0E08081826080838BB382608BBB43
:1003D000ECE6F0E080818F6080831092A0010895A8
:1003E0008091A001181614F58091A1016FB7F894BF
:1003F00091E009C0F901EF55FE4F4081F901E05647
:10040000FE4F40839F5F292F30E04091A001042ED2
:10041000000C550B241735076CF39091A0019150F7
:100420009093A00166231CF4789408958FEF0895AB
:100430001F920F920FB60F9211242F933F934F9359
:100440008F939F93EF93FF9343B14F7080E026C04B
:100450009091A00194300CF5242F30E0082E02C0BA
:10046000359527950A94E2F720FF17C02091A50142
:1004700030E0082E02C0359527950A94E2F720FD5A
:100480000CC0E091A00191E09E0F9093A0010E2E70
:10049000000CFF0BEF55FE4F80838F5F8430C0F25E
:1004A0004093A501FF91EF919F918F914F913F91C3
:1004B0002F910F900FBE0F901F9018951F93CF9301
:1004C000DF93182FD4E036C0CE3011F44FEF01C0C7
:1004D00040E02C2F30E0205E3F4F211B3109ED2FF3
:1004E000F0E0BF016250710981E090E0DC0102C0E0
:1004F000AA0FBB1F6A95E2F7BD016150710926235F
:100500003723339702C0880F991FEA95E2F70197C6
:100510002817390729F4CE3010F44FE001C040EF1E
:100520006D2F8C2F0E948B04CF5F01C0CBE0C031B8
:1005300058F2DF5FD830D0F3DF91CF911F9108954B
:100540001F93CF93DF93CDB7DEB728970FB6F894FC
:10055000DEBF0FBECDBF0E94C70410E031C0E12F47
:10056000F0E0E25FFE4F908180E021C0282F30E074
:10057000492F50E0082E02C0559547950A94E2F79E
:1005800040FF0DC0843010F44FE001C040EFE1E0C7
:10059000F0E0EC0FFD1FE20FF31F408307C0E1E026
:1005A000F0E0EC0FFD1FE20FF31F10828F5F883029
:1005B000E8F2BE016F5F7F4F812F0E94AA041F5F88
:1005C000103168F280E00E945E0228960FB6F8941F
:1005D000DEBF0FBECDBFDF91CF911F910895CF93A6
:1005E000DF93CDB7DEB728970FB6F894DEBF0FBE06
:1005F000CDBF0E94C70480E009C0E1E0F0E0EC0F4D
:10060000FD1FE80FF11D9FEF90838F5F8830A8F3E7
:10061000BE016F5F7F4F8DE00E94AA0480E009C099
:10062000E1E0F0E0EC0FFD1FE80FF11D95E5908390
:100630008F5F8830A8F3BE016F5F7F4F8CE00E9410
:10064000AA04BE016F5F7F4F8EE00E94AA0480E083
:1006500009C0E1E0F0E0EC0FFD1FE80FF11D91E1B2
:1006600090838F5F8830A8F3BE016F5F7F4F8BE070
:100670000E94AA04BE016F5F7F4F8FE00E94AA0410
:1006800028960FB6F894DEBF0FBECDBFDF91CF9195
:1006900008950E94EF021092AD011092AC010895EE
:1006A0001F93CF93DF93D82FCBE039C08FE08C1B03
:1006B0004091AC015091AD01480F511D9A01ADEC34
:1006C000BCEC0E94B208FC01F695E795F695E7951B
:1006D000CF01880F991F880F991F8E0F9F1F4817F2
:1006E0005907E1F4FF27E25EFE4F808190E00D2E76
:1006F00002C0959587950A94E2F780FF0FC0D093CA
:10070000AB0140EF1D2F110F612F8C2F0E948B0426
:1007100061E0610F40EF8C2F0E948B04CF5FC031EE
:1007200028F2DF91CF911F910895EF92FF920F93DE
:100730001F93CF93DF93C0E065C08FE08C1B409187
:10074000AC015091AD01480F511D9A01ADECBCECCC
:100750000E94B2088C0116950795169507950138E9
:1007600008F053C0C8019801220F331F220F331F16
:10077000820F931F4817590709F043C0D0E03EC0CD
:10078000F801FF27E25EFE4F808190E00D2E02C04F
:10079000959587950A94E2F780FF2FC0CB3059F0EA
:1007A000CF3071F0CC3089F0CE30A1F0CD30B9F43B
:1007B000EE24EA9415C00F2EF1E1EF2EF02D10C0BB
:1007C0000F2EF1E1EF2EF02D0BC00F2EF5E5EF2EE1
:1007D000F02D06C00F2EF5E5EF2EF02D01C0E12C17
:1007E0004E2DFD2EFF0C6F2D8C2F0E948B0461E08F
:1007F0006F0D4E2D8C2F0E948B04DF5FD43008F4D8
:10080000BFCFCF5FC03108F498CF8091AC019091F9
:10081000AD0101969093AD018093AC01C0E06BC037
:100820008FE08C1B4091AC015091AD01480F511DE0
:100830009A01ADECBCEC0E94B2089695879596950E
:1008400087959C01220F331F220F331F820F931FA6
:100850004817590709F04EC09A010E94B2088C014E
:100860001695079516950795013808F043C0D0E016
:100870003EC0F801FF27E25EFE4F808190E00D2E22
:1008800002C0959587950A94E2F780FF2FC091E00A
:100890008091AB018D1390E021E085EF8C0F8530C6
:1008A00008F020E0992381F0222371F040EFFD2E23
:1008B000FF0C6F2D8C2F0E948B0461E06F0D40EFB9
:1008C0008C2F0E948B040DC04FE0FD2EFF0C6F2D6E
:1008D0008C2F0E948B0461E06F0D4FE08C2F0E94E3
:1008E0008B04CF3018F084E08093AB01DF5FD4300D
:1008F00008F4BFCFCF5FC03108F492CFDF91CF9122
:100900001F910F91FF90EF90089580E0089580E887
:100910000E94D50708951F93CF93DF938031B0F4E1
:100920006830A0F4142FC62FD82F81E00E94010850
:100930006C2F677080E1689F900111248D2F8F705C
:10094000822B0E940108812F0E940108DF91CF9124
:100950001F9108950F931F93CF938031A0F48B01C3
:10096000C82F83E00E9401088C2F8F700E9401081D
:10097000C0E007C0F801EC0FF11D80810E94010862
:10098000CF5FC830B8F3CF911F910F9108958FE0DA
:100990000E94010808950E9487040E94E00140E03F
:1009A00060E07BE480E090E00E94ED060E94400859
:1009B0000E948B080E949008789408954F925F924D
:1009C0006F927F928F929F92AF92BF92CF92DF925F
:1009D000EF92FF92CF93DF930E9418080E9437088E
:1009E0000E9418080E942E0885E20E94210864E0F7
:1009F00070E08AE090E00E94070881E393E09F9313
:100A00008F930E94210965E070E08AE090E00E94E7
:100A1000070881E093E09F938F930E94210966E08D
:100A200070E08AE090E00E94070885EB92E09F93D7
:100A30008F930E94210967E070E08AE090E00E94B5
:100A4000070888E692E09F938F930E94210968E04F
:100A500070E08AE090E00E9407088AE192E09F93AC
:100A60008F930E94210969E070E08AE090E00E9483
:100A700007088CEC91E09F938F930E9421096AE014
:100A800070E08AE090E00E9407088EE791E09F9373
:100A90008F930E9421096BE070E08AE090E00E9451
:100AA000070880E391E09F938F930E9421096CE0F7
:100AB00070E08AE090E00E94070883EE90E09F9348
:100AC0008F930E9421096EE070E08AE090E00E941E
:100AD000070884EB90E09F938F930E9421090E9466
:100AE000A0020E9456084B015C0188EE93E09093AF
:100AF000AF018093AE018DB79EB744960FB6F894C0
:100B00009EBF0FBE8DBFC0E00E943407882339F01E
:100B10008091C4029091C5020E94E30801C08FEF4A
:100B2000833799F1833589F10E94F0018F3F69F590
:100B30000E9456086B017C012B013C0148185908A2
:100B40006A087B082091AE013091AF01ADECBCEC9E
:100B50000E94B2089695879596958795A0E0B0E09B
:100B600084159505A605B70578F68C2F0E945E02C0
:100B7000D0E02196CF71D078DD2324F42197C06E88
:100B8000DF6F219646015701BFCFDF91CF91FF90D4
:100B9000EF90DF90CF90BF90AF909F908F907F901D
:100BA0006F905F904F9008950E9418080E9449032B
:100BB0000E94F0010E943B0708958F929F92AF928E
:100BC000BF92CF92DF92EF92FF920E9456084B01A4
:100BD0005C0163C00E94F001811104C083E00E94A7
:100BE000500311C0813021F482E00E9450030BC0F9
:100BF000823021F481E00E94500305C0833019F453
:100C000080E00E9450030E943407882339F08091CD
:100C1000C4029091C5020E94E30801C08FEF8136A3
:100C200011F0813421F480E00E94500317C0833713
:100C300011F0833521F481E00E9450030FC0843607
:100C400011F0843421F482E00E94500307C08636FC
:100C500011F0863419F483E00E9450030E94560874
:100C60006B017C012091AE013091AF01ADECBCEC89
:100C70000E94B2089695879596958795A50194014F
:100C8000280F391F411D511DC216D306E406F50673
:100C900020F00E949503460157010E948504882395
:100CA00009F498CFFF90EF90DF90CF90BF90AF9076
:100CB0009F908F9008956EE070E08AE090E00E942F
:100CC00007088AEA90E09F938F930E9421096FE0C2
:100CD00070E08AE090E00E9407088CE790E09F9324
:100CE0008F930E9421090F900F900F900F900E94F8
:100CF000F0018F3FE1F308950E94CB040E94DE04CF
:100D00000E94D4050E94DD050E945B06F9CFCF93B7
:100D1000C82F8A3019F48DE00E9487069FB790781B
:100D200002C0992329F18091B1018F3FD1F3F8944A
:100D3000E091B00181E08E0F8093B001F0E0EE54BD
:100D4000FE4FC0838091B1018F5F8093B10180918C
:100D5000B0018F3F11F41092B001E1ECF0E080811E
:100D600080628083992339F0789480E090E005C018
:100D700081E090E002C080E090E0CF910895809102
:100D8000C3028823E1F32FB72078F8948091B10251
:100D90003091C30290E0831B91095AF4E091B102B3
:100DA0008091C302F0E0E81BF109EE53FD4F808112
:100DB0000AC0E091B1028091C302F0E0E81BF109A2
:100DC000EE54FD4F80819091C30291509093C302E5
:100DD000222309F0789490E008951092B0011092C7
:100DE000B1011092B1021092C3021092C20240935C
:100DF000A601DC01CB01880F991FAA1FBB1F880F1A
:100E0000991FAA1FBB1F9C01AD01220F331F441F56
:100E1000551F60E072E18AE790E00E949308BA01F2
:100E2000A9014F5F5F4F6F4F7F4FDB01CA011AF47B
:100E30000196A11DB11DB595A79597958795019729
:100E40009093C5008093C400E1ECF0E088E18083DA
:100E5000808180688083E4ECF2E080E091E093831D
:100E600082839183808308959091C30281E09111E0
:100E700001C080E008951092B1021092C30208955B
:100E80001F920F920FB60F9211242F938F939F935F
:100E9000EF93FF938091B101882329F18091B001F4
:100EA0002091B10190E0821B91095AF4E091B001C8
:100EB0008091B101F0E0E81BF109EF54FD4F908102
:100EC0000AC0E091B0018091B101F0E0E81BF109A6
:100ED000EE54FE4F90818091B10181508093B10119
:100EE0009093C60005C0E1ECF0E080818F7D8083A7
:100EF000FF91EF919F918F912F910F900FBE0F90C7
:100F00001F9018951F920F920FB60F9211242F93D6
:100F10003F934F935F936F937F938F939F93AF9381
:100F2000BF93CF93EF93FF93C091C6008091A6012A
:100F3000882349F08091B1018F3F29F060E070E093
:100F40008C2F0E9487068091C302803120F081E0BF
:100F50008093C20218C0CD3009F4CAE0E091B1021A
:100F600081E08E0F8093B102F0E0EE54FD4FC0831C
:100F70008091C3028F5F8093C3028091B102803160
:100F800011F41092B102FF91EF91CF91BF91AF9107
:100F90009F918F917F916F915F914F913F912F9191
:100FA0000F900FBE0F901F90189594B1906B94B94D
:100FB00095B1906195B990E59CBD883021F0803263
:100FC00011F0823019F491E09DBD01C01DBC80324A
:100FD00069F028F4883071F0803161F00EC08034FF
:100FE00029F0803851F48CB581608CBD8CB582605D
:100FF0008CBD03C08CB581608CBD85B18F7E85B9F9
:1010000008958EBD0DB407FEFDCF8EB508959F9354
:101010008F937F936F9389E793E09F938F930E94C1
:1010200021090F900F900F900F900F900F9008953F
:1010300084E793E09F938F930E9421090F900F9074
:1010400008951F928F938EE693E09F938F930E9453
:1010500021090F900F900F900F90089587E693E06D
:101060009F938F930E9421090F900F90089580E61F
:1010700093E09F938F930E9421090F900F90089502
:101080001092A7011092A8011092A9011092AA0132
:1010900016BC8CE787BD92E094BD83E085BDEEE68B
:1010A000F0E080818260808395BB08958FB7282F00
:1010B0002078F8946091A7017091A8018091A9010E
:1010C0009091AA01222309F0789408951F920F921B
:1010D0000FB60F9211248F939F93AF93BF9380917C
:1010E000A7019091A801A091A901B091AA01019630
:1010F000A11DB11D8093A7019093A801A093A90100
:10110000B093AA01BF91AF919F918F910F900FBEA5
:101110000F901F90189510928500109284000895EA
:101120001092B2000895052E97FB1EF400940E94C1
:10113000AA0857FD07D00E94C10807FC03D04EF44F
:101140000C94AA0850954095309521953F4F4F4FEC
:101150005F4F089590958095709561957F4F8F4F63
:101160009F4F0895A29FB001B39FC001A39F700D30
:10117000811D1124911DB29F700D811D1124911D9F
:101180000895A1E21A2EAA1BBB1BFD010DC0AA1FC8
:10119000BB1FEE1FFF1FA217B307E407F50720F0E0
:1011A000A21BB30BE40BF50B661F771F881F991F5B
:1011B0001A9469F760957095809590959B01AC01A4
:1011C000BD01CF010895CF93DF93EC012B8120FF68
:1011D00033C026FF0AC02F7B2B838E819F8101960F
:1011E0009F838E838A8190E029C022FF0FC0E8810F
:1011F000F9818081082E000C990B009719F4206268
:101200002B831AC03196F983E8830EC0EA85FB85EB
:10121000099597FF09C02B81019611F080E201C06A
:1012200080E1822B8B8308C02E813F812F5F3F4F4F
:101230003F832E83992702C08FEF9FEFDF91CF91DD
:101240000895A0E0B0E0E7E2F9E00C94E60BAE010F
:10125000495F5F4FDA016D917D91AD0104EC12E0C1
:10126000F80182819381DC0113962C9113972860F9
:1012700013962C930E944709D8011296ED91FC9188
:1012800013972381277F2383E4E00C94020CABE0C7
:10129000B0E0EDE4F9E00C94D80B6C017B018A011D
:1012A000FC0117821682838181FFCCC1CE01019699
:1012B0003C01F6019381F70193FD859193FF8191A4
:1012C0007F01882309F4BAC1853239F493FD8591F1
:1012D00093FF81917F01853229F4B60190E00E944D
:1012E0003E0BE7CF912C212C312CFFE1F315D8F0E8
:1012F0008B3279F038F4803279F08332A1F4232DE7
:1013000020611DC08D3261F0803369F4232D21608E
:1013100016C0832D8260382EE32DE4603E2E2AC055
:10132000F32DF8601DC037FC2DC020ED280F2A30AA
:1013300040F08E32B9F436FC81C1232D2064322E68
:1013400019C036FE06C08AE0989E200D1124922E08
:1013500011C0EAE02E9E200D1124222EF32DF06202
:101360003F2E08C08C3621F4832D8068382E02C0B1
:10137000883641F4F70193FD859193FF81917F01B8
:101380008111B3CF982F9F7D9554933028F40C5F33
:101390001F4F9FE399830DC0833631F0833771F07F
:1013A000833509F059C021C0F801808189830E5F1F
:1013B0001F4F88248394912C530113C02801F2E01D
:1013C0004F0E511CF801A080B18036FE03C0692D7C
:1013D00070E002C06FEF7FEFC5010E94330B4C013C
:1013E0008201F32DFF773F2E16C0280122E0420E26
:1013F000511CF801A080B18036FE03C0692D70E059
:1014000002C06FEF7FEFC5010E94280B4C01F32D46
:10141000F0683F2E820133FC1BC0822D90E08816BD
:101420009906B0F4B60180E290E00E943E0B2A9447
:10143000F4CFF50137FC859137FE81915F01B6014C
:1014400090E00E943E0B21102A9421E0821A91081C
:101450008114910471F7E8C0843611F0893641F5A2
:10146000F80137FE07C060817181828193810C5F32
:101470001F4F08C060817181072E000C880B990BEB
:101480000E5F1F4FF32DFF763F2E97FF09C09095FB
:101490008095709561957F4F8F4F9F4FF0683F2EDD
:1014A0002AE030E0A3010E947A0B882E861845C0FE
:1014B000853731F4232D2F7EB22E2AE030E025C06F
:1014C000932D997FB92E8F36C1F018F4883579F0B5
:1014D000B5C0803719F0883721F0B0C0E92FE0613E
:1014E000BE2EB4FE0DC0FB2DF460BF2E09C034FE2D
:1014F0000AC0292F2660B22E06C028E030E005C0C1
:1015000020E130E002C020E132E0F801B7FE07C080
:1015100060817181828193810C5F1F4F06C0608161
:10152000718180E090E00E5F1F4FA3010E947A0B53
:10153000882E8618FB2DFF773F2E36FE0DC0232DFB
:101540002E7FA22E891458F434FE0BC032FC09C041
:10155000832D8E7EA82E05C0B82CA32C03C0B82CDA
:1015600001C0B92CA4FE0FC0FE01E80DF11D808161
:10157000803321F49A2D997EA92E09C0A2FE06C0BF
:10158000B394B39404C08A2D867809F0B394A3FC75
:1015900011C0A0FE06C0B21488F4280C922C9B182F
:1015A0000EC0B21460F4B60180E290E00E943E0BDF
:1015B000B394F7CFB21418F42B1802C0982C212C36
:1015C000A4FE10C0B60180E390E00E943E0BA2FE94
:1015D00017C0A1FC03C088E790E002C088E590E056
:1015E000B6010CC08A2D867859F0A1FE02C08BE2AC
:1015F00001C080E2A7FC8DE2B60190E00E943E0BA4
:10160000891438F4B60180E390E00E943E0B9A946E
:10161000F7CF8A94F301E80DF11D8081B60190E0C7
:101620000E943E0B8110F5CF222009F442CEB60174
:1016300080E290E00E943E0B2A94F6CFF60186816C
:10164000978102C08FEF9FEF2B96E2E10C94F40B91
:10165000FC010590615070400110D8F7809590957D
:101660008E0F9F1F0895FC01615070400190011082
:10167000D8F7809590958E0F9F1F08950F931F9315
:10168000CF93DF93FB01238121FD03C08FEF9FEFF9
:101690002CC022FF16C04681578124813581421714
:1016A000530744F4A081B1819D012F5F3F4F3183E7
:1016B00020838C93268137812F5F3F4F378326838A
:1016C00014C08B01EC01FB010084F185E02D09952C
:1016D000892BE1F6D80116968D919C91179701966A
:1016E00017969C938E931697CE01DF91CF911F9101
:1016F0000F910895FA01AA27283051F1203181F184
:10170000E8946F936E7F6E5F7F4F8F4F9F4FAF4F09
:10171000B1E03ED0B4E03CD0670F781F891F9A1F1C
:10172000A11D680F791F8A1F911DA11D6A0F711DD0
:10173000811D911DA11D20D009F468943F912AE0DC
:10174000269F11243019305D3193DEF6CF010895C4
:10175000462F4770405D4193B3E00FD0C9F7F6CFF5
:10176000462F4F70405D4A3318F0495D31FD4052BD
:10177000419302D0A9F7EACFB4E0A6959795879553
:1017800077956795BA95C9F7009761057105089532
:101790009B01AC010A2E06945795479537952795DE
:1017A000BA95C9F7620F731F841F951FA01D089576
:1017B0002F923F924F925F926F927F928F929F9261
:1017C000AF92BF92CF92DF92EF92FF920F931F934F
:1017D000CF93DF93CDB7DEB7CA1BDB0B0FB6F89400
:1017E000DEBF0FBECDBF09942A88398848885F8440
:1017F0006E847D848C849B84AA84B984C884DF80B1
:10180000EE80FD800C811B81AA81B981CE0FD11D94
:101810000FB6F894DEBF0FBECDBFED010895F8946A
:02182000FFCFF8
:1018220000000003000000008706BF0600007FA43E
:101832007F00EF1DE900FFAA55000609060000001F
:101842000008080880040204400880000004020422
:101852004008044002200110101010000002200471
:101862004008800440022004400804404002200452
:101872004008044002200110101010000000000077
:1018820000080808800402044002088000020104E3
:1018920040088004022001101012200000022004DF
:1018A2004008044040022004400804404002200452
:1018B2004008044040022001101010000000000007
:00000001FF
