S01700004763634170706C69636174696F6E312E737265635B
S11300000C94C3010C94E0010C94E0010C94E00105
S11300100C94E0010C941A020C94E0010C94E0019D
S11300200C94E0010C9459120C94E0010C94E0013E
S11300300C94E0010C94E0010C94E0010C94E001B8
S11300400C949D110C94E0010C94E0010C94E001DB
S11300500C94B0100C946E100C94E0010C94E0011C
S11300600C94E0010C94E0010C94E0010C94E00188
S11300700C94E0010C94E0010C94E001507265735F
S113008073206120627574746F6E206F7220277301
S1130090272F27532720746F207374617274206193
S11300A0206E65772067616D650047414D45204F9F
S11300B05645520043535345323031302F37323096
S11300C03120413220627920204361696C696E20BD
S11300D044656C6761646F202D20343830323739C1
S11300E0343200205C24242020205C24242020207E
S11300F020205C2420202020205C24242020205C3C
S11301002424202020202020205C24242020205C63
S1130110242420205C24242424242424205C242437
S113012020202020202020205C2424242424240097
S11301307C20242420207C202424202020205C24B3
S113014024242020207C20242420207C20242420DB
S113015020202020207C20242420207C20242420D3
S11301605C242420202020205C7C202424202020A7
S1130170202020205C2424202020202424007C20F3
S1130180242420207C2024242020205C24242024B7
S11301902420207C20242420207C2024242020208F
S11301A02020207C20242420207C2024247C202423
S11301B0242424242424247C2024242020202020BB
S11301C0207C2024245F5F2F202424007C202424EE
S11301D024242424242420205C24245C202024247B
S11301E0207C20242424242424245C202020202057
S11301F0207C2024242424242424247C202424201B
S113020020202024247C2024242020205C24247CDE
S113021020242420207C202424007C20242420202A
S113022020202424205C24245C202F202024247CCF
S11302302024242020202024242020202020207C4E
S11302402024242020202024247C2020242424242E
S113025024245C7C20202424242424245C7C20204A
S11302602424242424245C007C2024245F5F7C2018
S113027024247C2024242020207C2024247C20244A
S1130280245F5F7C2024242020202020207C202424
S1130290245F5F7C202424202F2020202020205C29
S11302A020202F2020202020205C20202F202020F0
S11302B02020205C007C20202424242424245C7C12
S11302C02024242020207C2024247C202424242452
S11302D02424245C2020202020207C20242420206E
S11302E07C20242420205F5F5F5F5F5F202020202C
S11302F05F5F5F5F5F5F202020205F5F5F5F5F5F06
S113030000202F2020202020205C207C20205C2026
S113031020207C20205C7C202020202020205C20A9
S11303202020202020207C20205C20207C20205C99
S11303300020205F5F5F5F5F5F2020205F5F2020E1
S11303402020205F5F20205F5F5F5F5F5F5F202072
S1130350202020202020205F5F202020205F5F00BD
S11303601B5B3F323568001B5B3F32356C001B5B07
S113037025646D001B5B4B001B5B324A001B5B2535
S1130380643B2564480011241FBECFEFD8E0DEBFD4
S1130390CDBF15E0A0E0B1E0EAEAFFE202C00590BB
S11303A00D92A831B107D9F726E0A8E1B5E001C064
S11303B01D92A337B207E1F70E94A60F0C94D3173E
S11303C00C940000E8E6F0E08081826080838BB3C7
S11303D082608BBBECE6F0E080818F6080831092BA
S11303E01805089580911805181614F580911905BB
S11303F06FB7F89491E009C0F901E75EFA4F4081C4
S1130400F901E85EFA4F40839F5F292F30E0409165
S11304101805042E000C550B241735076CF3909126
S1130420180591509093180566231CF47894089548
S11304308FEF08951F920F920FB60F9211242F93EE
S11304403F934F938F939F93EF93FF9343B14F70D9
S113045080E026C09091180594300CF5242F30E0EC
S1130460082E02C0359527950A94E2F720FF17C09D
S113047020911D0530E0082E02C0359527950A9479
S1130480E2F720FD0CC0E091180591E09E0F9093D7
S113049018050E2E000CFF0BE75EFA4F80838F5F6A
S11304A08430C0F240931D05FF91EF919F918F918D
S11304B04F913F912F910F900FBE0F901F90189561
S11304C01F93CF93DF93182FD4E036C0CE3011F4AE
S11304D04FEF01C040E02C2F30E0205E3F4F211B46
S11304E03109ED2FF0E0BF016250710981E090E025
S11304F0DC0102C0AA0FBB1F6A95E2F7BD0161507F
S1130500710926233723339702C0880F991FEA9570
S1130510E2F701972817390729F4CE3010F44FE099
S113052001C040EF6D2F8C2F0E949007CF5F01C058
S1130530CBE0C03158F2DF5FD830D0F3DF91CF91F8
S11305401F9108951F93CF93DF93CDB7DEB72897FC
S11305500FB6F894DEBF0FBECDBF0E94CC0710E0EB
S113056031C0E12FF0E0EE5DFE4F908180E021C0CC
S1130570282F30E0492F50E0082E02C055954795AA
S11305800A94E2F740FF0DC0843010F44FE001C03C
S113059040EFE1E0F0E0EC0FFD1FE20FF31F4083BA
S11305A007C0E1E0F0E0EC0FFD1FE20FF31F108243
S11305B08F5F8830E8F2BE016F5F7F4F812F0E940A
S11305C0AF071F5F103168F280E00E946002289636
S11305D00FB6F894DEBF0FBECDBFDF91CF911F9150
S11305E00895CF93DF93CDB7DEB728970FB6F8946D
S11305F0DEBF0FBECDBF0E94CC0780E009C0E1E0A2
S1130600F0E0EC0FFD1FE80FF11D9FEF90838F5F6B
S11306108830A8F3BE016F5F7F4F8DE00E94AF0763
S113062080E009C0E1E0F0E0EC0FFD1FE80FF11DF0
S113063095E590838F5F8830A8F3BE016F5F7F4F8D
S11306408CE00E94AF07BE016F5F7F4F8EE00E9477
S1130650AF0780E009C0E1E0F0E0EC0FFD1FE80F18
S1130660F11D91E190838F5F8830A8F3BE016F5F25
S11306707F4F8BE00E94AF07BE016F5F7F4F8FE01B
S11306800E94AF0728960FB6F894DEBF0FBECDBF09
S1130690DF91CF9108956DE070E08AE090E00E94D0
S11306A035110E944F1180912A0590912B058A30B3
S11306B0910534F49C01275F3F4F2930310568F4DC
S11306C09F938F9382E391E09F938F930E94CF1423
S11306D00F900F900F900F9008958436910534F485
S11306E09C012E593F4F2935310568F49F938F9310
S11306F083E491E09F938F930E94CF140F900F9007
S11307000F900F9008958D392FEF92076CF49F93FB
S11307108F9383E591E09F938F930E94CF140F9062
S11307200F900F900F9008959F938F9382E691E01E
S11307309F938F930E94CF140F900F900F900F9060
S113074008956EE070E08AE090E00E9435110E9406
S11307504F1180914D0590914E058A3091056CF0B2
S11307609F938F9384E791E09F938F930E94CF147C
S11307700F900F900F900F900CC09F938F9385E86C
S113078091E09F938F930E94CF140F900F900F903E
S11307900F9080914D0590914E0503973CF081E0B8
S11307A090E09093500580934F0508951092500562
S11307B010924F050895CF93DF93CDB7DEB72897F6
S11307C00FB6F894DEBF0FBECDBF10924A0510924B
S11307D049058F3F2FEF920759F46F3F2FEF7207B0
S11307E039F421E030E030932D0520932C0504C02A
S11307F010922D0510922C0528E0EAE1F1E0DE01CB
S1130800119601900D922A95E1F7880F991FE1E066
S1130810F0E0EC0FFD1FE80FF91F808191819093A8
S11308202F0580932E056B30710569F480E090E00C
S1130830A0E0B0E48093510590935205A093530532
S1130840B09354053FC06C30710569F480E090E0CA
S1130850A0E2B1E48093510590935205A09353050F
S1130860B09354052FC06D30710569F480E090E0B9
S1130870A8E4B2E48093510590935205A0935305E4
S1130880B09354051FC06E30710569F480E090E0A8
S1130890A4EBB2E48093510590935205A0935305C1
S11308A0B09354050FC06F30710561F480E090E09F
S11308B0A4ECB2E48093510590935205A0935305A0
S11308C0B09354050E94E11128960FB6F894DEBF48
S11308D00FBECDBFDF91CF9108950895009751F4D5
S11308E088E1E7E9F1E0A0E3B5E001900D928A9593
S11308F0E1F708958130910551F48AE1EFEAF1E0DE
S1130900A0E3B5E001900D928A95E1F7089502976E
S113091049F484E1E9ECF1E0A0E3B5E001900D9243
S11309208A95E1F708950E94F102109256051092FB
S1130930550510921E0510924A05109249050E9411
S11309404B030E94A1030895EF92FF921F93CF934C
S1130950DF93D82FCBE0C5C08FE08C1B40915505A9
S113096050915605480F511D9A01ADECBCEC0E9404
S11309706E14FC01F695E795F695E795CF01880F7F
S1130980991F880F991F8E0F9F1F4817590709F049
S1130990A7C0FF27E352FE4F8081ED2EF12C90E09B
S11309A00D2E02C0959587950A94E2F780FF87C0C3
S11309B080910001082E000C990BE816F906C1F489
S11309C080912A0590912B05019790932B05809394
S11309D02A050E944B0310924E0510924D050E9469
S11309E0A1036FEF7FEF8FEF9FEF0E94DB037CC0CB
S11309F0D093000140EF1D2F110F612F8C2F0E9407
S1130A00900761E0610F40EF8C2F0E949007CB307C
S1130A1011F0CF3099F480912A0590912B0501961D
S1130A2090932B0580932A0510924E0510924D0544
S1130A306C2F70E0C7010E94DB034EC0CC3011F074
S1130A40CE3099F480912A0590912B0502969093CB
S1130A502B0580932A0510924E0510924D056C2F9C
S1130A6070E0C7010E94DB0337C0CD30A9F5809147
S1130A704D0590914E05019690934E0580934D053A
S1130A806C2F70E0C7010E94DB0380914D059091AB
S1130A904E05049754F080912A0590912B050496F5
S1130AA090932B0580932A0517C080912A05909175
S1130AB02B05039690932B0580932A050DC08091F6
S1130AC02A0590912B05019790932B0580932A0575
S1130AD010924E0510924D050E944B030E94A103F3
S1130AE0CF5FC03108F438CFDF91CF911F91FF90D1
S1130AF0EF9008959F92AF92BF92CF92DF92EF92C0
S1130B00FF920F931F93CF93DF9380914F059091A2
S1130B105005892B39F40F2EFFE0FF2EF02DEE2423
S1130B20E39408C00F2EFCE3FF2EF02D0F2EFCE102
S1130B30EF2EF02D8091490590914A0501969093EE
S1130B404A0580934905059734F06FEF7FEF8FEFE7
S1130B509FEF0E94DB0310E00BC18FE0811BE0914B
S1130B605505F0915605AF01480F511D9A01ADECA2
S1130B70BCEC0E946E14EC01D695C795D695C7952A
S1130B800C2F9F01215F3F4F0E946E14969587950D
S1130B90969587958F5F08C0E82FF0E0E352FE4FEB
S1130BA090819F7019F48F5F8138B0F3E82FF0E0E3
S1130BB0E352FE4FD080013820F081E080931E057F
S1130BC0DAC09A01ADECBCEC0E946E149695879540
S1130BD0969587959C01220F331F220F331F820F96
S1130BE0931F4817590709F0C2C000E0B8C091E04C
S1130BF0D91290E081E0011180E0892371F04E2D3B
S1130C00C02ECC0C6C2D80E00E94900761E06C0D2E
S1130C104E2D80E00E94900747C091E082E0D812F8
S1130C2090E081E0013009F080E0892371F04E2DDD
S1130C30C02ECC0C6C2D80E00E94900761E06C0DFE
S1130C404E2D80E00E9490072FC091E084E0D812DE
S1130C5090E081E0023009F080E0892371F04E2DAC
S1130C60C02ECC0C6C2D80E00E94900761E06C0DCE
S1130C704E2D80E00E94900717C091E088E0D812C2
S1130C8090E081E0033009F080E0892369F04E2D83
S1130C90C02ECC0C6C2D80E00E94900761E06C0D9E
S1130CA04E2D80E00E949007FE01FF27E352FE4F85
S1130CB0808190E0002E02C0959587950A94E2F712
S1130CC080FF4CC01F30D9F4809100018F3FB9F4EC
S1130CD080912A0590912B05019790932B05809381
S1130CE02A050E944B0380914D0590914E05892B56
S1130CF031F010924E0510924D050E94A1031B3055
S1130D0059F01F3071F01C3089F01E30A1F01D30F5
S1130D10B9F4BB24BA9415C00F2EF1E1BF2EF02D07
S1130D2010C00F2EF1E1BF2EF02D0BC00F2EF5E5F4
S1130D30BF2EF02D06C00F2EF5E5BF2EF02D01C0FD
S1130D40B12C4B2DC02ECC0C6C2D812F0E94900702
S1130D5061E06C0D4B2D812F0E9490070F5F0430D2
S1130D6008F445CF1F3018F08FEF809300011F5F08
S1130D70103108F4F2CE80915505909156050196F4
S1130D809093560580935505C0E0AFC08FE08C1B4F
S1130D900091550510915605F801E80FF11D9F01CA
S1130DA0ADECBCEC0E946E14AC015695479556957B
S1130DB04795CA01880F991F880F991F840F951FA3
S1130DC0E817F90709F090C09801215F3F4F0E948E
S1130DD06E149695879596958795FC01FF27E352A7
S1130DE0FE4FE080413808F07FC06A01DD245601DF
S1130DF08FEFA81AB80A81E8A816B1040CF074C0E1
S1130E00D0E000E010E06DC0F601E352FE4F8081B7
S1130E10982F92959F708917D1F00115110539F01B
S1130E20F501E352FE4F2081821709F459C00115E0
S1130E30110579F0F501E352FE4F3081F601E452D9
S1130E40FE4F208132134CC000E010E002C001E0EC
S1130E5010E00115110509F4982F4D2F50E0292FAA
S1130E6030E00D2E02C0359527950A94E2F720FF55
S1130E7037C020910001022E000C330B4217530798
S1130E8091F485EF8C0F853070F440EF9D2E990C12
S1130E90692D8C2F0E94900761E0690D40EF8C2F23
S1130EA00E9490071DC09E1571F04F2D9D2E990C28
S1130EB0692D8C2F0E94900761E0690D4F2D8C2FB6
S1130EC00E9490070DC04F2D9D2E990C692D8C2FDB
S1130ED00E94900761E0690D4F2D8C2F0E949007AE
S1130EE0DF5FD43008F490CFCF5FC03108F44ECF29
S1130EF0DF91CF911F910F91FF90EF90DF90CF90F2
S1130F00BF90AF909F90089580911E05882319F09B
S1130F1010921E0581E0089580E80E94031108954F
S1130F201F93CF93DF938031B0F46830A0F4142F73
S1130F30C62FD82F81E00E942F116C2F677080E19B
S1130F40689F900111248D2F8F70822B0E942F1186
S1130F50812F0E942F11DF91CF911F9108950F933C
S1130F601F93CF938031A0F48B01C82F83E00E949C
S1130F702F118C2F8F700E942F11C0E007C0F80131
S1130F80EC0FF11D80810E942F11CF5FC830B8F3A0
S1130F90CF911F910F9108958FE00E942F11089512
S1130FA00E948C070E94E2018FEF87B98CEF8AB907
S1130FB040E060E07BE480E090E00E941B100E942F
S1130FC077110E94C2110E944B12789408954F9297
S1130FD05F926F927F928F929F92AF92BF92CF92C5
S1130FE0DF92EF92FF92CF93DF930E9446110E940B
S1130FF06E110E9446110E94651185E20E945811EB
S113100064E070E08AE090E00E94351181E393E0AF
S11310109F938F930E94E51465E070E08AE090E06E
S11310200E94351181E093E09F938F930E94E51411
S113103066E070E08AE090E00E94351185EB92E072
S11310409F938F930E94E51467E070E08AE090E03C
S11310500E94351188E692E09F938F930E94E514D5
S113106068E070E08AE090E00E9435118AE192E045
S11310709F938F930E94E51469E070E08AE090E00A
S11310800E9435118CEC91E09F938F930E94E5149C
S11310906AE070E08AE090E00E9435118EE791E00A
S11310A09F938F930E94E5146BE070E08AE090E0D8
S11310B00E94351180E391E09F938F930E94E51481
S11310C06CE070E08AE090E00E94351183EE90E0DD
S11310D09F938F930E94E5146EE070E08AE090E0A5
S11310E00E94351184EB90E09F938F930E94E51446
S11310F00E94A20280E090E00E946E046FE070E023
S11311008AE090E00E94351180E395E09F938F93ED
S11311108EE592E09F938F930E94CF140E948D11CD
S11311206B017C0188EE93E09093580580935705FA
S113113061E170E08AE090E00E9435110E944F1155
S113114080915705909158052DB73EB7285E3F4FC3
S11311500FB6F8943EBF0FBE2DBF883E33E0930711
S113116069F49F938F9388E692E09F938F930E94F4
S1131170CF140F900F900F900F9020C0843F21E068
S1131180920769F49F938F938EE892E09F938F93D5
S11311900E94CF140F900F900F900F900FC08A3FB2
S11311A0910561F49F938F9382EB92E09F938F93C9
S11311B00E94CF140F900F900F900F90D0E00E94D8
S11311C06210882341F080916D0690916E060E9412
S11311D09114C82F01C0CFEFC33709F4F6C0C3354B
S11311E009F4F3C0C133F9F488EE93E09093580501
S11311F08093570561E170E08AE090E00E94351128
S11312000E944F11809158058F93809157058F93B9
S113121088E692E09F938F930E94CF140F900F90D3
S11312200F900F9041C0C233F9F484EF91E0909392
S113123058058093570561E170E08AE090E00E94D0
S113124035110E944F11809158058F938091570555
S11312508F938EE892E09F938F930E94CF140F9008
S11312600F900F900F9020C0C333F1F48AEF90E0F9
S1131270909358058093570561E170E08AE090E00F
S11312800E9435110E944F11809158058F938091CF
S113129057058F9382EB92E09F938F930E94CF1414
S11312A00F900F900F900F900E94F2018F3F09F062
S11312B08CC0CD3611F0CD3411F560E170E08AE0D8
S11312C090E00E9435110E944F1180912305909166
S11312D02405892B29F010922405109223053EC081
S11312E081E090E0909324058093230589ED92E0BA
S11312F09F938F930E94CF140F900F902FC0C437E9
S113130011F0C43559F580914B0590914C05019627
S113131090934C0580934B05039724F010924C0551
S113132010924B0580914B0590914C050E946E04E0
S11313306FE070E08AE090E00E9435110E944F1146
S113134080E395E09F938F938EE592E09F938F9334
S11313500E94CF140F900F900F900F90809123054F
S113136090912405892B09F02ACF0E948D114B01FD
S11313705C012B013C014C185D086E087F0820912C
S1131380570530915805ADECBCEC0E946E1496954F
S1131390879596958795A0E0B0E084159505A605F8
S11313A0B70508F00CCF8D2F0E9460028D2F90E0BE
S11313B001968F719078992324F40197806E9F6F22
S11313C00196D82F75016401FACEDF91CF91FF9079
S11313D0EF90DF90CF90BF90AF909F908F907F90D1
S11313E06F905F904F900895CF93DF93EC010E942C
S11313F0CC07C230D105A9F11CF4219771F174C155
S1131400C330D10509F4F3C0249709F4F5C06CC1C5
S11314104FEF63E08C2F0E9490074FEF64E08C2F16
S11314200E949007C53059F44FEF62E08C2F0E9460
S113143090074FEF64E08C2F0E9490070CC0CA30D5
S113144051F44FEF62E08C2F0E9490074FEF65E05C
S11314508C2F0E949007CF5F01C0C4E0CB30C0F254
S113146043C14FE062E084E00E9490074FE063E0F4
S113147084E00E9490074FE064E084E00E949007BB
S11314804FE065E084E00E9490074FE061E085E072
S11314900E9490074FE062E085E00E9490074FE0D1
S11314A065E085E00E9490074FE066E085E00E94D9
S11314B090074FE065E086E00E9490074FE066E009
S11314C086E00E9490074FE065E087E00E94900765
S11314D04FE066E087E00E9490074FE062E088E01A
S11314E00E9490074FE063E088E00E9490074FE07D
S11314F064E088E00E9490074FE061E089E00E9488
S113150090074FE062E089E00E9490074FE061E0BD
S11315108AE00E9490074FE062E08AE00E94900710
S11315204FE063E08AE00E9490074FE064E08AE0C5
S11315300E9490074FE065E08AE00E9490074FE028
S113154066E08AE00E949007CFC0C43011F0CA3030
S1131550A9F44FE062E08C2F0E9490074FE063E013
S11315608C2F0E9490074FE064E08C2F0E9490071C
S11315704FE065E08C2F0E94900737C0C53011F012
S1131580C930A9F44FE061E08C2F0E9490074FE02E
S113159062E08C2F0E9490074FE065E08C2F0E9440
S11315A090074FE066E08C2F0E9490071EC0C63063
S11315B011F0C83059F44FE065E08C2F0E94900779
S11315C04FE066E08C2F0E9490070FC04FE062E06E
S11315D08C2F0E9490074FE063E08C2F0E949007AD
S11315E04FE064E08C2F0E949007CF5F01C0C4E0FD
S11315F0CB3008F4AACF78C040EF61E085E00E94C8
S1131600900740EF62E085E00E94900740EF63E0BE
S113161085E00E94900740EF65E085E00E94900716
S113162040EF66E085E00E94900740EF67E085E0C8
S11316300E94900740EF60E086E00E94900740EF30
S113164065E086E00E94900740EF67E086E00E9434
S1131650900740EF60E087E00E94900740EF62E06F
S113166087E00E94900740EF63E087E00E949007C4
S113167040EF65E087E00E94900740EF67E087E075
S11316800E94900740EF60E088E00E94900740EFDE
S113169063E088E00E94900740EF65E088E00E94E4
S11316A0900740EF67E088E00E94900740EF61E018
S11316B089E00E94900740EF62E089E00E94900771
S11316C040EF63E085E00E94900740EF65E089E029
S11316D00E94900740EF66E089E00E94900740EF87
S11316E067E089E00E949007DF91CF9108958F927F
S11316F09F92AF92BF92CF92DF92EF92FF920E949D
S11317008D114B015C0183E090E00E94F4090E947A
S11317108D116B017C01AB01BC01481959096A099F
S11317207B098091570590915805880F991FA0E077
S1131730B0E0481759076A077B0748F382E090E056
S11317400E94F4090E948D114B015C01AB01BC01A4
S11317504C195D096E097F098091570590915805D0
S1131760880F991FA0E0B0E0481759076A077B0764
S113177048F381E090E00E94F4090E948D116B010E
S11317807C01AB01BC01481959096A097B098091A4
S1131790570590915805880F991FA0E0B0E04817AD
S11317A059076A077B0748F384E090E00E94F40934
S11317B00E948D11AB01BC014C195D096E097F09B2
S11317C08091570590915805880F991FA0E0B0E0CB
S11317D0481759076A077B0758F3FF90EF90DF908B
S11317E0CF90BF90AF909F908F90089580912A05DD
S11317F090912B058A30910508F461C09C012A5010
S113180031092A35310528F46AE070E00E94191480
S11318102AC0843691057CF02AE030E0B9010E94A8
S11318201914E82F492FCB01B9010E941914BC01E6
S11318308E2F942F18C09C01275F3F4F293031050C
S113184030F49195819591096AE070E00CC0873F6E
S11318502FEF920724F0BC0180E090E004C08AE0FE
S113186090E06AE070E020911F0530912005232B61
S113187099F08BB184608BB9FB01EF5FFE4F8081DF
S113188088B980911F059091200521E082279093CB
S1131890200580931F0508952BB12B7F2BB9FC01E4
S11318A0EF5FFE4F808188B980911F0590912005DC
S11318B021E082279093200580931F0508952091AD
S11318C01F0530912005232B31F0FC01EF5FFE4F03
S11318D0808188B9089580911F059091200521E0A9
S11318E082279093200580931F0508950E94461136
S11318F010922B0510922A0510924E0510924D0558
S11319000E94770B0E9493040E94F2010E946910C6
S113191008954F925F926F927F928F929F92AF92AF
S1131920BF92CF92DF92EF92FF920F931F93CF93C8
S1131930DF9300D000D0CDB7DEB70E948D112B010C
S11319403C016FE070E08AE090E00E94351180E392
S113195095E09F938F938EE592E09F938F930E94DF
S1131960CF1462E170E08AE090E00E9435110E9499
S11319704F1180915705909158050F900F900F903B
S11319800F90883E23E0920769F49F938F9388E633
S113199092E09F938F930E94CF140F900F900F901B
S11319A00F9020C0843F31E0930769F49F938F9395
S11319B08EE892E09F938F930E94CF140F900F9024
S11319C00F900F900FC08A3F910561F49F938F93FE
S11319D082EB92E09F938F930E94CF140F900F900D
S11319E00F900F9000E010E0812C912C5401F8C16D
S11319F00E94F20189830E946210882341F0809141
S1131A006D0690916E060E949114F82E02C0FF2478
S1131A10FA948091210590912205892B99F54981A9
S1131A20442331F056E6F51619F086E4F81204C0A2
S1131A3083E00E94A40426C09981913031F024E609
S1131A40F21619F034E4F31204C082E00E94A404F4
S1131A5019C04981423031F053E7F51619F083E596
S1131A60F81204C081E00E94A4040CC09981933050
S1131A7031F021E6F21619F031E4F31203C080E0EC
S1131A800E94A4044DE6F41619F05DE4F51227C093
S1131A908091210590912205892B09F560E170E080
S1131AA08AE090E00E9435110E944F118091230535
S1131AB090912405892B29F0109224051092230576
S1131AC00EC081E090E0909324058093230589ED76
S1131AD092E09F938F930E94CF140F900F9080E712
S1131AE0F81619F090E5F9123BC061E170E08AE064
S1131AF090E00E9435110E944F1180912105909130
S1131B002205892B71F010922205109221058BB1C8
S1131B10877F8BB980912105909122050E9437120D
S1131B201FC081E090E090932205809321050E94DC
S1131B308D114B015C0184189508A608B7088BB178
S1131B4088608BB980912105909122050E943712FB
S1131B5089EE92E09F938F930E94CF140F900F9081
S1131B6080914D0590914E05009721F48BB18F71B2
S1131B708BB913C08130910521F48BB180628BB98C
S1131B800CC08230910521F48BB180648BB905C0FF
S1131B9003971CF08BB180688BB980914F059091AD
S1131BA05005892BA1F00115110589F463E070E05B
S1131BB08AE090E00E94351185EF92E09F938F9325
S1131BC00E94CF140F5F1F4F0F900F909FC00130E2
S1131BD0110589F464E070E08AE090E00E94351118
S1131BE08FE293E09F938F930E94CF140F5F1F4F58
S1131BF00F900F908BC00230110589F465E070E0FE
S1131C008AE090E00E9435118AE693E09F938F93D7
S1131C100E94CF140F5F1F4F0F900F9077C00330B7
S1131C20110589F466E070E08AE090E00E943511C5
S1131C3085EA93E09F938F930E94CF140F5F1F4F09
S1131C400F900F9063C00430110589F467E070E0D1
S1131C508AE090E00E94351180EE93E09F938F9389
S1131C600E94CF140F5F1F4F0F900F904FC005308D
S1131C70110589F468E070E08AE090E00E94351173
S1131C808BE194E09F938F930E94CF140F5F1F4FBB
S1131C900F900F903BC00630110589F469E070E0A5
S1131CA08AE090E00E94351186E594E09F938F933B
S1131CB00E94CF140F5F1F4F0F900F9027C0073063
S1131CC0110589F46AE070E08AE090E00E94351121
S1131CD080E994E09F938F930E94CF140F5F1F4F6E
S1131CE00F900F9013C00830110581F46BE070E081
S1131CF08AE090E00E9435118BEC94E09F938F93DF
S1131D000E94CF140F900F9000E010E080914F05D7
S1131D1090915005892B81F017C069817A818AE0FE
S1131D2090E00E9435110E944F1129813A812F5F62
S1131D303F4F3A83298304C043E050E05A834983E8
S1131D4089819A810C974CF32091230530912405C5
S1131D5091E04091210550912205452B09F090E036
S1131D6081E02115310509F080E0892369F10E94A1
S1131D708D1169837A838B839C836B017C01C818E2
S1131D80D908EA08FB082091570530915805ADECB5
S1131D90BCEC0E946E149695879596958795A30141
S1131DA09201280F391F411D511DC216D306E406A6
S1131DB0F506B0F00E947A0549805A806B807C80D9
S1131DC0812C912C54010CC0232B51F03EE6F316C8
S1131DD019F04EE4F41202C00E947A050E946D04C8
S1131DE00E948407882309F403CE0F900F900F906C
S1131DF00F90DF91CF911F910F91FF90EF90DF90A3
S1131E00CF90BF90AF909F908F907F906F905F9096
S1131E104F9008950E9446116DE070E08AE090E0D2
S1131E200E9435118AEA90E09F938F930E94E514F3
S1131E306EE070E08AE090E00E94351180912B05FD
S1131E408F9380912A058F9386E095E09F938F93DB
S1131E500E94CF146FE070E08AE090E00E94351198
S1131E6080E395E09F938F938EE592E09F938F9309
S1131E700E94CF1460E170E08AE090E00E94351186
S1131E800E944F1180915705909158052DB73EB788
S1131E90265F3F4F0FB6F8943EBF0FBE2DBF883E5E
S1131EA033E0930769F49F938F9388E692E09F93BE
S1131EB08F930E94CF140F900F900F900F9020C01B
S1131EC0843F21E0920769F49F938F938EE892E018
S1131ED09F938F930E94CF140F900F900F900F90A9
S1131EE00FC08A3F910561F49F938F9382EB92E038
S1131EF09F938F930E94CF140F900F900F900F9089
S1131F0061E170E08AE090E00E9435118CE790E096
S1131F109F938F930E94E5140F900F9010C00E941E
S1131F206210882339F080916D0690916E060E94AC
S1131F30911401C08FEF833731F0833521F00E9473
S1131F40F2018F3F61F30E94E70708950E94D007D2
S1131F5010922B0510922A050E94E7070E94760C26
S1131F600E94890C0E940A0FF9CFCF93C82F8A30A0
S1131F7019F48DE00E94B50F9FB7907802C09923A1
S1131F8029F180915A058F3FD1F3F894E0915905D6
S1131F9081E08E0F80935905F0E0E55AFA4FC08333
S1131FA080915A058F5F80935A05809159058F3F20
S1131FB011F410925905E1ECF0E080818062808395
S1131FC0992339F0789480E090E005C081E090E0B6
S1131FD002C080E090E0CF91089580916C06882340
S1131FE0E1F32FB72078F89480915A0630916C066B
S1131FF090E0831B91095AF4E0915A0680916C0693
S1132000F0E0E81BF109E559F94F80810AC0E0913D
S11320105A0680916C06F0E0E81BF109E55AF94F85
S1132020808190916C06915090936C06222309F064
S1132030789490E008951092590510925A051092E0
S11320405A0610926C0610926B0640932505DC012B
S1132050CB01880F991FAA1FBB1F880F991FAA1FA6
S1132060BB1F9C01AD01220F331F441F551F60E0AD
S113207072E18AE790E00E944F14BA01A9014F5F10
S11320805F4F6F4F7F4FDB01CA011AF40196A11D08
S1132090B11DB595A7959795879501979093C50020
S11320A08093C400E1ECF0E088E180838081806863
S11320B08083EDE6F6E08CE091E093838283918364
S11320C08083089590916C0681E0911101C080E0B5
S11320D0089510925A0610926C0608951F920F925A
S11320E00FB60F9211242F938F939F93EF93FF9327
S11320F080915A05882329F18091590520915A0528
S113210090E0821B91095AF4E091590580915A0597
S1132110F0E0E81BF109E65AF94F90810AC0E0911A
S1132120590580915A05F0E0E81BF109E55AFA4F88
S1132130908180915A05815080935A059093C600EE
S113214005C0E1ECF0E080818F7D8083FF91EF9109
S11321509F918F912F910F900FBE0F901F90189504
S11321601F920F920FB60F9211242F933F934F9308
S11321705F936F937F938F939F93AF93BF93CF930B
S1132180EF93FF93C091C60080912505882349F001
S113219080915A058F3F29F060E070E08C2F0E94F7
S11321A0B50F80916C06803120F081E080936B063E
S11321B018C0CD3009F4CAE0E0915A0681E08E0FD0
S11321C080935A06F0E0E55AF94FC08380916C067B
S11321D08F5F80936C0680915A06803111F41092BF
S11321E05A06FF91EF91CF91BF91AF919F918F913B
S11321F07F916F915F914F913F912F910F900FBEFF
S11322000F901F90189594B1906B94B995B190610B
S113221095B990E59CBD883021F0803211F0823070
S113222019F491E09DBD01C01DBC803269F028F411
S1132230883071F0803161F00EC0803429F080382C
S113224051F48CB581608CBD8CB582608CBD03C0AB
S11322508CB581608CBD85B18F7E85B908958EBDA6
S11322600DB407FEFDCF8EB508959F938F937F9392
S11322706F938DE793E09F938F930E94E5140F90E3
S11322800F900F900F900F900F90089588E793E0B0
S11322909F938F930E94E5140F900F90089584E705
S11322A093E09F938F930E94E5140F900F900895ED
S11322B01F928F938EE693E09F938F930E94E51471
S11322C00F900F900F900F90089587E693E09F93DF
S11322D08F930E94E5140F900F90089580E693E089
S11322E09F938F930E94E5140F900F90089510927E
S11322F0260510922705109228051092290516BC70
S11323008CE787BD92E094BD83E085BDEEE6F0E006
S113231080818260808395BB08958FB7282F2078B1
S1132320F894609126057091270580912805909175
S11323302905222309F0789408951F920F920FB66D
S11323400F9211248F939F93AF93BF93809126058F
S113235090912705A0912805B09129050196A11D0A
S1132360B11D8093260590932705A0932805B0936B
S11323702905BF91AF919F918F910F900FBE0F9040
S11323801F90189581E090E090932F0580932E057F
S11323901092510510925205109253051092540553
S11323A08FE392E4909389008093880010928B00CD
S11323B010928A0083E2809380008AE180938100F6
S11323C00895CF92DF92EF92FF9280912C05909125
S11323D02D05892BC9F58AB180618AB98BB18061D9
S11323E08BB920912E0530912F0540E050E060E438
S11323F072E48FE090E00E942D1469017A01B90122
S113240080E090E00E941E13209151053091520506
S113241040915305509154050E94AC1320E030E0E4
S113242048EC52E40E947D120E94EF1221E0C21A8D
S1132430D108D0928900C0928800615071097093CC
S11324408B0060938A000EC010928900109288005D
S113245010928B0010928A008AB18F7E8AB98BB158
S11324608F7E8BB9FF90EF90DF90CF900895892BEA
S113247079F0109289001092880010928B001092CB
S11324808A008AB18F7E8AB98BB18F7E8BB9089509
S11324900E94E11108958DE48093B3001092B0007E
S11324A08DE08093B10082E08093700087BB7894C4
S11324B008951F920F920FB60F9211242F933F93FA
S11324C04F935F936F937F938F939F93AF93BF9338
S11324D0EF93FF930E94F60BFF91EF91BF91AF91A1
S11324E09F918F917F916F915F914F913F912F9128
S11324F00F900FBE0F901F9018950E9491120C948C
S113250072130E946B1358F00E94641340F029F474
S11325105F3F29F00C945B1351110C94A6130C9497
S113252061130E94831368F39923B1F3552391F344
S1132530951B550BBB27AA2762177307840738F02E
S11325409F5F5F4F220F331F441FAA1FA9F335D08B
S11325500E2E3AF0E0E832D091505040E695001C3F
S1132560CAF72BD0FE2F29D0660F771F881FBB1FF9
S1132570261737074807AB07B0E809F0BB0B802DD7
S1132580BF01FF2793585F4F3AF09E3F510578F003
S11325900C945B130C94A6135F3FE4F3983ED4F3BE
S11325A0869577956795B795F7959F5FC9F7880FD7
S11325B0911D9695879597F90895E1E0660F771F29
S11325C0881FBB1F621773078407BA0720F0621BBA
S11325D0730B840BBA0BEE1F88F7E09508950E94E5
S11325E08B1388F09F5798F0B92F9927B751B0F003
S11325F0E1F0660F771F881F991F1AF0BA95C9F783
S113260014C0B13091F00E94A513B1E008950C9468
S1132610A513672F782F8827B85F39F0B93FCCF31B
S1132620869577956795B395D9F73EF490958095FF
S1132630709561957F4F8F4F9F4F0895E89409C01F
S113264097FB3EF490958095709561957F4F8F4FE1
S11326509F4F9923A9F0F92F96E9BB279395F695F7
S1132660879577956795B795F111F8CFFAF4BB0F75
S113267011F460FF1BC06F5F7F4F8F4F9F4F16C0D9
S1132680882311F096E911C0772321F09EE8872F63
S1132690762F05C0662371F096E8862F70E060E01F
S11326A02AF09A95660F771F881FDAF7880F969598
S11326B0879597F9089597F99F6780E870E060E03F
S11326C008959FEF80EC089500240A9416161706C7
S11326D018060906089500240A941216130614060F
S11326E005060895092E0394000C11F4882352F072
S11326F0BB0F40F4BF2B11F460FF04C06F5F7F4F2A
S11327008F4F9F4F089557FD9058440F551F59F010
S11327105F3F71F04795880F97FB991F61F09F3FCA
S113272079F087950895121613061406551FF2CFF3
S11327304695F1DF08C0161617061806991FF1CF43
S113274086957105610508940895E894BB2766276A
S11327507727CB0197F908950E94BF130C94721345
S11327600E94641338F00E946B1320F0952311F03B
S11327700C945B130C94611311240C94A6130E9403
S1132780831370F3959FC1F3950F50E0551F629F1B
S1132790F001729FBB27F00DB11D639FAA27F00DB6
S11327A0B11DAA1F649F6627B00DA11D661F829FDD
S11327B02227B00DA11D621F739FB00DA11D621FC2
S11327C0839FA00D611D221F749F3327A00D611DDF
S11327D0231F849F600D211D822F762F6A2F1124C1
S11327E09F5750409AF0F1F088234AF0EE0FFF1FF4
S11327F0BB1F661F771F881F91505040A9F79E3F4B
S1132800510580F00C945B130C94A6135F3FE4F322
S1132810983ED4F3869577956795B795F795E795A0
S11328209F5FC1F7FE2B880F911D9695879597F9A9
S1132830089597FB072E16F4009407D077FD09D06E
S11328400E947D1407FC05D03EF4909581959F4F1E
S11328500895709561957F4F0895A1E21A2EAA1BE1
S1132860BB1BFD010DC0AA1FBB1FEE1FFF1FA2173C
S1132870B307E407F50720F0A21BB30BE40BF50B39
S1132880661F771F881F991F1A9469F760957095C2
S1132890809590959B01AC01BD01CF010895052E53
S11328A097FB1EF400940E94661457FD07D00E9403
S11328B02D1407FC03D04EF40C94661450954095E7
S11328C0309521953F4F4F4F5F4F089590958095D8
S11328D0709561957F4F8F4F9F4F0895A29FB001D0
S11328E0B39FC001A39F700D811D1124911DB29F40
S11328F0700D811D1124911D0895AA1BBB1B51E16C
S113290007C0AA1FBB1FA617B70710F0A61BB70B5B
S1132910881F991F5A95A9F780959095BC01CD0100
S11329200895CF93DF93EC012B8120FF33C026FF62
S11329300AC02F7B2B838E819F8101969F838E8378
S11329408A8190E029C022FF0FC0E881F98180814B
S1132950082E000C990B009719F420622B831AC0DF
S11329603196F983E8830EC0EA85FB85099597FFC4
S113297009C02B81019611F080E201C080E1822B15
S11329808B8308C02E813F812F5F3F4F3F832E836F
S1132990992702C08FEF9FEFDF91CF910895A0E0B8
S11329A0B0E0E5EDF4E10C94AC17AE014B5F5F4F82
S11329B0FA0161917191AF0180916F069091700657
S11329C00E940B15E2E00C94C817A0E0B0E0EBEE17
S11329D0F4E10C94AA17AE01495F5F4FDA016D91DF
S11329E07D91AD010DE616E0F80182819381DC0151
S11329F013962C911397286013962C930E940B1511
S1132A00D8011296ED91FC9113972381277F23839C
S1132A10E4E00C94C617ABE0B0E0E1E1F5E10C941E
S1132A209C176C017B018A01FC0117821682838149
S1132A3081FFCCC1CE0101963C01F6019381F701DF
S1132A4093FD859193FF81917F01882309F4BAC195
S1132A50853239F493FD859193FF81917F0185320D
S1132A6029F4B60190E00E940217E7CF912C212CA3
S1132A70312CFFE1F315D8F08B3279F038F4803241
S1132A8079F08332A1F4232D20611DC08D3261F0D1
S1132A90803369F4232D216016C0832D8260382E83
S1132AA0E32DE4603E2E2AC0F32DF8601DC037FCF0
S1132AB02DC020ED280F2A3040F08E32B9F436FCB8
S1132AC081C1232D2064322E19C036FE06C08AE04F
S1132AD0989E200D1124922E11C0EAE02E9E200D06
S1132AE01124222EF32DF0623F2E08C08C3621F4DF
S1132AF0832D8068382E02C0883641F4F70193FD97
S1132B00859193FF81917F018111B3CF982F9F7D90
S1132B109554933028F40C5F1F4F9FE399830DC0A5
S1132B20833631F0833771F0833509F059C021C001
S1132B30F801808189830E5F1F4F88248394912C30
S1132B40530113C02801F2E04F0E511CF801A0807C
S1132B50B18036FE03C0692D70E002C06FEF7FEFD5
S1132B60C5010E94F7164C018201F32DFF773F2E19
S1132B7016C0280122E0420E511CF801A080B18049
S1132B8036FE03C0692D70E002C06FEF7FEFC50110
S1132B900E94EC164C01F32DF0683F2E820133FCA9
S1132BA01BC0822D90E088169906B0F4B60180E22D
S1132BB090E00E9402172A94F4CFF50137FC859126
S1132BC037FE81915F01B60190E00E940217211047
S1132BD02A9421E0821A91088114910471F7E8C0C3
S1132BE0843611F0893641F5F80137FE07C060815B
S1132BF07181828193810C5F1F4F08C06081718154
S1132C00072E000C880B990B0E5F1F4FF32DFF76D8
S1132C103F2E97FF09C090958095709561957F4FE1
S1132C208F4F9F4FF0683F2E2AE030E0A3010E94AF
S1132C303E17882E861845C0853731F4232D2F7E04
S1132C40B22E2AE030E025C0932D997FB92E8F361D
S1132C50C1F018F4883579F0B5C0803719F0883799
S1132C6021F0B0C0E92FE061BE2EB4FE0DC0FB2DF3
S1132C70F460BF2E09C034FE0AC0292F2660B22E8C
S1132C8006C028E030E005C020E130E002C020E1C9
S1132C9032E0F801B7FE07C06081718182819381BF
S1132CA00C5F1F4F06C06081718180E090E00E5F71
S1132CB01F4FA3010E943E17882E8618FB2DFF7715
S1132CC03F2E36FE0DC0232D2E7FA22E891458F4DC
S1132CD034FE0BC032FC09C0832D8E7EA82E05C0A5
S1132CE0B82CA32C03C0B82C01C0B92CA4FE0FC06F
S1132CF0FE01E80DF11D8081803321F49A2D997E27
S1132D00A92E09C0A2FE06C0B394B39404C08A2DB0
S1132D10867809F0B394A3FC11C0A0FE06C0B214D7
S1132D2088F4280C922C9B180EC0B21460F4B601DF
S1132D3080E290E00E940217B394F7CFB21418F423
S1132D402B1802C0982C212CA4FE10C0B60180E3DD
S1132D5090E00E940217A2FE17C0A1FC03C088E7FE
S1132D6090E002C088E590E0B6010CC08A2D867818
S1132D7059F0A1FE02C08BE201C080E2A7FC8DE203
S1132D80B60190E00E940217891438F4B60180E37A
S1132D9090E00E9402179A94F7CF8A94F301E80D09
S1132DA0F11D8081B60190E00E9402178110F5CFD9
S1132DB0222009F442CEB60180E290E00E9402177C
S1132DC02A94F6CFF6018681978102C08FEF9FEF98
S1132DD02B96E2E10C94B817FC0105906150704009
S1132DE00110D8F7809590958E0F9F1F0895FC01D0
S1132DF06150704001900110D8F7809590958E0F26
S1132E009F1F08950F931F93CF93DF93FB0123819B
S1132E1021FD03C08FEF9FEF2CC022FF16C0468117
S1132E205781248135814217530744F4A081B1812D
S1132E309D012F5F3F4F318320838C9326813781FF
S1132E402F5F3F4F3783268314C08B01EC01FB01B6
S1132E500084F185E02D0995892BE1F6D8011696B9
S1132E608D919C911797019617969C938E93169724
S1132E70CE01DF91CF911F910F910895FA01AA27F6
S1132E80283051F1203181F1E8946F936E7F6E5FA9
S1132E907F4F8F4F9F4FAF4FB1E03ED0B4E03CD057
S1132EA0670F781F891F9A1FA11D680F791F8A1F3A
S1132EB0911DA11D6A0F711D811D911DA11D20D0A1
S1132EC009F468943F912AE0269F11243019305D5B
S1132ED03193DEF6CF010895462F4770405D41934C
S1132EE0B3E00FD0C9F7F6CF462F4F70405D4A3399
S1132EF018F0495D31FD4052419302D0A9F7EACF61
S1132F00B4E0A6959795879577956795BA95C9F78F
S1132F1000976105710508959B01AC010A2E069482
S1132F205795479537952795BA95C9F7620F731F3B
S1132F30841F951FA01D08952F923F924F925F9278
S1132F406F927F928F929F92AF92BF92CF92DF92B5
S1132F50EF92FF920F931F93CF93DF93CDB7DEB71A
S1132F60CA1BDB0B0FB6F894DEBF0FBECDBF0994AE
S1132F702A88398848885F846E847D848C849B8405
S1132F80AA84B984C884DF80EE80FD800C811B8113
S1132F90AA81B981CE0FD11D0FB6F894DEBF0FBE42
S10D2FA0CDBFED010895F894FFCFB2
S1132FAAFF3F065B4F666D7D077F6F40000000039D
S1132FBA00000000B50FED0F00000B026E02BA020A
S1132FCA10037FA47F00EF1DE900FFAA550006093C
S1132FDA060047616D652053636F72653A202020AD
S1132FEA25640047616D652053636F72653A20203A
S1132FFA25640047616D652053636F72653A202525
S113300A640047616D652053636F72653A2020201E
S113301A20256400436F6D626F20436F756E743AA6
S113302A2020256400436F6D626F20436F756E74B0
S113303A3A2020202564005468726F7567682066F8
S113304A69726520616E6420666C616D65730053F4
S113305A6F6D656F6E65206C696B6520796F75207D
S113306A6279204164656C6500506F6D70656969A9
S113307A2062792042617374696C6C6500000000F7
S113308A080808800402044008800000040204407E
S113309A080440022001101010100000022004400D
S11330AA08800440022004400804404002200440EE
S11330BA0804400220011010101000000000000053
S11330CA080808800402044002088000020104403F
S11330DA088004022001101012200000022004407B
S11330EA08044040022004400804404002200440EE
S11330FA080440400220011010100000000054721D
S113310A61636B3A2025730043757272656E74208D
S113311A47616D652053706565643A203120284EF5
S113312A6F726D616C3A202564206D7329004375B2
S113313A7272656E742047616D65205370656564AB
S113314A3A20322028466173743A202564206D732C
S113315A290043757272656E742047616D65205348
S113316A706565643A2033202845787472656D6504
S113317A3A202564206D7329004D616E75616C20B7
S113318A4D6F64653A204F4E0047616D652050616A
S113319A757365640020205F5F5F5F5F5F20202096
S11331AA2020202020202020202020202020202011
S11331BA20202020202020205F5F20202020202083
S11331CA2020202020202020202020205F5F002093
S11331DA2F2020202020205C202020202020202096
S11331EA20202020202020202020202020202020D1
S11331FA207C20205C202020202020202020202029
S113320A20202020207C20205C007C2020242424D0
S113321A2424245C20205F5F5F5F5F5F2020205F9F
S113322A5F5F5F5F5F205F5F5F5F20207C202424F5
S113323A5F5F5F5F202020205F5F5F5F5F5F20200A
S113324A7C202424007C2024242020205C24242084
S113325A2F2020202020205C207C202020202020B9
S113326A5C202020205C207C202424202020205C38
S113327A20202F2020202020205C207C20242400B1
S113328A7C2024242020202020207C202024242464
S113329A2424245C7C202424242424245C2424241C
S11332AA245C7C20242424242424245C7C202024BC
S11332BA24242424245C7C202424007C2024242008
S11332CA20205F5F207C20242420207C2024247C4E
S11332DA202424207C202424207C2024247C2024B0
S11332EA2420207C2024247C20242420207C2024A4
S11332FA24205C2424007C2024245F5F2F20205C6B
S113330A7C2024245F5F2F2024247C202424207CF6
S113331A202424207C2024247C2024245F5F2F2042
S113332A24247C2024245F5F2F202424205F5F0030
S113333A205C2424202020202424205C24242020EF
S113334A202024247C202424207C202424207C2043
S113335A24247C202424202020202424205C2424A7
S113336A2020202024247C20205C0020205C24248B
S113337A242424242020205C2424242424242020DB
S113338A5C242420205C242420205C2424205C2423
S113339A2424242424242020205C242424242424B3
S11333AA20205C24240046696E616C2053636F728A
S10B33BA653A2025640A0000B5
S9030000FC
