:100000000C94C3010C94E0010C94E0010C94E00109
:100010000C94E0010C941A020C94E0010C94E001A1
:100020000C94E0010C94A9100C94E0010C94E001F4
:100030000C94E0010C94E0010C94E0010C94E001BC
:100040000C946B100C94E0010C94E0010C94E00112
:100050000C947E0F0C943C0F0C94E0010C94E00186
:100060000C94E0010C94E0010C94E0010C94E0018C
:100070000C94E0010C94E0010C94E0015072657363
:1000800073206120627574746F6E206F7220277305
:10009000272F27532720746F207374617274206197
:1000A000206E65772067616D650047414D45204FA3
:1000B0005645520043535345323031302F3732309A
:1000C0003120413220627920204361696C696E20C1
:1000D00044656C6761646F202D20343830323739C5
:1000E000343200205C24242020205C242420202082
:1000F00020205C2420202020205C24242020205C40
:100100002424202020202020205C24242020205C67
:10011000242420205C24242424242424205C24243B
:1001200020202020202020205C242424242424009B
:100130007C20242420207C202424202020205C24B7
:1001400024242020207C20242420207C20242420DF
:1001500020202020207C20242420207C20242420D7
:100160005C242420202020205C7C202424202020AB
:10017000202020205C2424202020202424007C20F7
:10018000242420207C2024242020205C24242024BB
:100190002420207C20242420207C20242420202093
:1001A0002020207C20242420207C2024247C202427
:1001B000242424242424247C2024242020202020BF
:1001C000207C2024245F5F2F202424007C202424F2
:1001D00024242424242420205C24245C202024247F
:1001E000207C20242424242424245C20202020205B
:1001F000207C2024242424242424247C202424201F
:1002000020202024247C2024242020205C24247CE2
:1002100020242420207C202424007C20242420202E
:1002200020202424205C24245C202F202024247CD3
:100230002024242020202024242020202020207C52
:100240002024242020202024247C20202424242432
:1002500024245C7C20202424242424245C7C20204E
:100260002424242424245C007C2024245F5F7C201C
:1002700024247C2024242020207C2024247C20244E
:10028000245F5F7C2024242020202020207C202428
:10029000245F5F7C202424202F2020202020205C2D
:1002A00020202F2020202020205C20202F202020F4
:1002B0002020205C007C20202424242424245C7C16
:1002C0002024242020207C2024247C202424242456
:1002D0002424245C2020202020207C202424202072
:1002E0007C20242420205F5F5F5F5F5F2020202030
:1002F0005F5F5F5F5F5F202020205F5F5F5F5F5F0A
:1003000000202F2020202020205C207C20205C202A
:1003100020207C20205C7C202020202020205C20AD
:100320002020202020207C20205C20207C20205C9D
:100330000020205F5F5F5F5F5F2020205F5F2020E5
:100340002020205F5F20205F5F5F5F5F5F5F202076
:10035000202020202020205F5F202020205F5F00C1
:100360001B5B3F323568001B5B3F32356C001B5B0B
:1003700025646D001B5B4B001B5B324A001B5B2539
:10038000643B2564480011241FBECFEFD8E0DEBFD8
:10039000CDBF14E0A0E0B1E0E2E1F9E202C00590D7
:1003A0000D92AC3DB107D9F726E0ACEDB4E001C049
:1003B0001D92A231B207E1F70E94740E0C948714CB
:1003C0000C940000E8E6F0E08081826080838BB3CB
:1003D00082608BBBECE6F0E080818F6080831092BE
:1003E000DC0408958091DC04181614F58091DD0476
:1003F0006FB7F89491E009C0F901E352FB4F4081D7
:10040000F901E452FB4F40839F5F292F30E0409178
:10041000DC04042E000C550B241735076CF3909167
:10042000DC0491509093DC0466231CF478940895C6
:100430008FEF08951F920F920FB60F9211242F93F2
:100440003F934F938F939F93EF93FF9343B14F70DD
:1004500080E026C09091DC0494300CF5242F30E02D
:10046000082E02C0359527950A94E2F720FF17C0A1
:100470002091E10430E0082E02C0359527950A94BA
:10048000E2F720FD0CC0E091DC0491E09E0F909318
:10049000DC040E2E000CFF0BE352FB4F80838F5FBA
:1004A0008430C0F24093E104FF91EF919F918F91CE
:1004B0004F913F912F910F900FBE0F901F90189565
:1004C0001F93CF93DF93182FD4E036C0CE3011F4B2
:1004D0004FEF01C040E02C2F30E0205E3F4F211B4A
:1004E0003109ED2FF0E0BF016250710981E090E029
:1004F000DC0102C0AA0FBB1F6A95E2F7BD01615083
:10050000710926233723339702C0880F991FEA9574
:10051000E2F701972817390729F4CE3010F44FE09D
:1005200001C040EF6D2F8C2F0E94BD06CF5F01C030
:10053000CBE0C03158F2DF5FD830D0F3DF91CF91FC
:100540001F9108951F93CF93DF93CDB7DEB7289700
:100550000FB6F894DEBF0FBECDBF0E94F90610E0C3
:1005600031C0E12FF0E0E65EFE4F908180E021C0D7
:10057000282F30E0492F50E0082E02C055954795AE
:100580000A94E2F740FF0DC0843010F44FE001C040
:1005900040EFE1E0F0E0EC0FFD1FE20FF31F4083BE
:1005A00007C0E1E0F0E0EC0FFD1FE20FF31F108247
:1005B0008F5F8830E8F2BE016F5F7F4F812F0E940E
:1005C000DC061F5F103168F280E00E94600228960E
:1005D0000FB6F894DEBF0FBECDBFDF91CF911F9154
:1005E0000895CF93DF93CDB7DEB728970FB6F89471
:1005F000DEBF0FBECDBF0E94F90680E009C0E1E07A
:10060000F0E0EC0FFD1FE80FF11D9FEF90838F5F6F
:100610008830A8F3BE016F5F7F4F8DE00E94DC063B
:1006200080E009C0E1E0F0E0EC0FFD1FE80FF11DF4
:1006300095E590838F5F8830A8F3BE016F5F7F4F91
:100640008CE00E94DC06BE016F5F7F4F8EE00E944F
:10065000DC0680E009C0E1E0F0E0EC0FFD1FE80FF0
:10066000F11D91E190838F5F8830A8F3BE016F5F29
:100670007F4F8BE00E94DC06BE016F5F7F4F8FE0F3
:100680000E94DC0628960FB6F894DEBF0FBECDBFE1
:10069000DF91CF9108956DE070E08AE090E00E94D4
:1006A00003100E941D108091EE049091EF048A3097
:1006B000910534F49C01275F3F4F2930310568F4E0
:1006C0009F938F938AE291E09F938F930E9483116F
:1006D0000F900F900F900F9008958436910534F489
:1006E0009C012E593F4F2935310568F49F938F9314
:1006F0008BE391E09F938F930E9483110F900F9053
:100700000F900F9008958D392FEF92076CF49F93FF
:100710008F938BE491E09F938F930E9483110F90AE
:100720000F900F900F9008959F938F938AE591E01B
:100730009F938F930E9483110F900F900F900F90B3
:1007400008956EE070E08AE090E00E9403100E943D
:100750001D108091F0049091F1048A3091056CF0A5
:100760009F938F938CE691E09F938F930E948311C8
:100770000F900F900F900F900CC09F938F938DE769
:1007800091E09F938F930E9483110F900F900F9091
:100790000F908091F0049091F10403973CF081E078
:1007A00090E09093F3048093F20408951092F30480
:1007B0001092F20408950E94F1021092F504109232
:1007C000F4041092E2040E944B030E94A1030895D6
:1007D0001F93CF93DF93D82FCBE0A6C08FE08C1B65
:1007E0004091F4045091F504480F511D9A01ADEC6D
:1007F000BCEC0E940011FC01F695E795F695E79593
:10080000CF01880F991F880F991F8E0F9F1F4817C0
:10081000590709F088C0FF27E157FE4F808190E01B
:100820000D2E02C0959587950A94E2F780FF6AC065
:1008300080910001D81312C08091EE049091EF04D2
:1008400001979093EF048093EE040E944B03109263
:10085000F1041092F0040E94A10369C0D09300013A
:1008600040EF1D2F110F612F8C2F0E94BD0661E0FC
:10087000610F40EF8C2F0E94BD06CB3011F0CF30BE
:1008800071F48091EE049091EF0401969093EF043F
:100890008093EE041092F1041092F00440C0CC302A
:1008A00011F0CE3071F48091EE049091EF04029635
:1008B0009093EF048093EE041092F1041092F004F0
:1008C0002EC0CD3061F58091F0049091F104019635
:1008D0009093F1048093F004049754F08091EE0417
:1008E0009091EF0404969093EF048093EE0417C068
:1008F0008091EE049091EF0403969093EF0480931F
:10090000EE040DC08091EE049091EF040197909356
:10091000EF048093EE041092F1041092F0040E9410
:100920004B030E94A103CF5FC03108F457CFDF9182
:10093000CF911F9108959F92AF92BF92CF92DF9275
:10094000EF92FF920F931F93CF93DF938091F20466
:100950009091F304892B39F40F2EFFE0FF2EF02D38
:10096000EE24E39408C00F2EFCE3FF2EF02D0F2E93
:10097000F4E3EF2EF02D10E0E9C08FE0811BE09151
:10098000F404F091F504AF01480F511D9A01ADEC4C
:10099000BCEC0E940011EC01D695C795D695C79581
:1009A0000C2F9F01215F3F4F0E9400119695879564
:1009B000969587958F5F08C0E82FF0E0E157FE4FCE
:1009C00090819F7019F48F5F8138B0F3E82FF0E0C9
:1009D000E157FE4FD080013820F081E08093E2049F
:1009E000B8C09A01ADECBCEC0E94001196958795B9
:1009F000969587959C01220F331F220F331F820F7C
:100A0000931F4817590709F0A0C000E09BC091E070
:100A1000D91290E081E0011180E0892371F04E2D20
:100A2000C02ECC0C6C2D80E00E94BD0661E06C0DE8
:100A30004E2D80E00E94BD0647C091E082E0D812B2
:100A400090E081E0013009F080E0892371F04E2DC3
:100A5000C02ECC0C6C2D80E00E94BD0661E06C0DB8
:100A60004E2D80E00E94BD062FC091E084E0D81298
:100A700090E081E0023009F080E0892371F04E2D92
:100A8000C02ECC0C6C2D80E00E94BD0661E06C0D88
:100A90004E2D80E00E94BD0617C091E088E0D8127C
:100AA00090E081E0033009F080E0892369F04E2D69
:100AB000C02ECC0C6C2D80E00E94BD0661E06C0D58
:100AC0004E2D80E00E94BD06FE01FF27E157FE4F3C
:100AD000808190E0002E02C0959587950A94E2F7F8
:100AE00080FF2FC01B3059F01F3071F01C3089F08F
:100AF0001E30A1F01D30B9F4BB24BA9415C00F2EDE
:100B0000F1E1BF2EF02D10C00F2EF1E1BF2EF02D20
:100B10000BC00F2EF5E5BF2EF02D06C00F2EF5E50C
:100B2000BF2EF02D01C0B12C4B2DC02ECC0C6C2D46
:100B3000812F0E94BD0661E06C0D4B2D812F0E941C
:100B4000BD060F5F043008F462CF1F5F103108F458
:100B500014CF8091F4049091F50401969093F504DC
:100B60008093F404C0E0EEC08FE08C1BE091F404AD
:100B7000F091F504AF01480F511D9A01ADECBCECAA
:100B80000E94001196958795969587959C01220F56
:100B9000331F220F331F820F931F4817590709F085
:100BA000D0C09A010E9400118C01169507951695E8
:100BB00007959F01215F3F4F0E94001196958795F1
:100BC00096958795FC01FF27E157FE4FE08001389D
:100BD00008F0B7C0112758018FEFA81AB80A81E8AA
:100BE000A816B1040CF0ADC0D0E0C12CD12CA6C029
:100BF000F801E157FE4F8081982F92959F708917D9
:100C0000D1F0C114D10439F0F501E157FE4F208134
:100C1000821709F492C0C114D10481F0F501E157A3
:100C2000FE4F3081F801E257FE4F2081321385C01C
:100C3000C12CD12C03C0CC24C394D12CC114D10419
:100C400009F4982F292F30E00D2E02C035952795F5
:100C50000A94E2F720FF71C021E0809100018D131A
:100C600020E031E085EF8C0F853008F030E0222362
:100C700081F0332371F040EF9D2E990C692D8C2F5C
:100C80000E94BD0661E0690D40EF8C2F0E94BD06F9
:100C90004FC09E1539F14F2D9D2E990C692D8C2F2B
:100CA0000E94BD0661E0690D4F2D8C2F0E94BD068C
:100CB000CF30F1F58091EE049091EF04019790937D
:100CC000EF048093EE040E944B038091F004909116
:100CD000F104892B69F11092F1041092F0040E9442
:100CE000A10326C04F2D9D2E990C692D8C2F0E949B
:100CF000BD0661E0690D4F2D8C2F0E94BD06CF30DF
:100D0000B9F48091EE049091EF0401979093EF0471
:100D10008093EE040E944B038091F0049091F104C3
:100D2000892B31F01092F1041092F0040E94A1037B
:100D3000CF3018F08FEF80930001DF5FD43008F4DC
:100D400057CFCF5FC03108F40FCFDF91CF911F9104
:100D50000F91FF90EF90DF90CF90BF90AF909F905A
:100D600008958091E204882319F01092E20481E052
:100D7000089580E80E94D10F08951F93CF93DF93C9
:100D80008031B0F46830A0F4142FC62FD82F81E042
:100D90000E94FD0F6C2F677080E1689F9001112405
:100DA0008D2F8F70822B0E94FD0F812F0E94FD0FCF
:100DB000DF91CF911F9108950F931F93CF938031AF
:100DC000A0F48B01C82F83E00E94FD0F8C2F8F7041
:100DD0000E94FD0FC0E007C0F801EC0FF11D8081FB
:100DE0000E94FD0FCF5FC830B8F3CF911F910F91D4
:100DF00008958FE00E94FD0F08950E94B9060E9499
:100E0000E2018FEF87B98CEF8AB940E060E07BE4C4
:100E100080E090E00E94E90E0E9445100E94901030
:100E20000E949B10789408954F925F926F927F92E8
:100E30008F929F92AF92BF92CF92DF92EF92FF92EA
:100E4000CF93DF930E9414100E943C100E94141054
:100E50000E94331085E20E94261064E070E08AE070
:100E600090E00E94031081E393E09F938F930E9490
:100E7000991165E070E08AE090E00E94031081E043
:100E800093E09F938F930E94991166E070E08AE04F
:100E900090E00E94031085EB92E09F938F930E9455
:100EA000991167E070E08AE090E00E94031088E604
:100EB00092E09F938F930E94991168E070E08AE01E
:100EC00090E00E9403108AE192E09F938F930E942A
:100ED000991169E070E08AE090E00E9403108CECC8
:100EE00091E09F938F930E9499116AE070E08AE0ED
:100EF00090E00E9403108EE791E09F938F930E94F1
:100F000099116BE070E08AE090E00E94031080E3AA
:100F100091E09F938F930E9499116CE070E08AE0BA
:100F200090E00E94031083EE90E09F938F930E94C5
:100F300099116EE070E08AE090E00E94031084EB6B
:100F400090E09F938F930E9499110E94A2026FE0FC
:100F500070E08AE090E00E94031080E192E09F93AD
:100F60008F930E9483110E945B106B017C0188EEBD
:100F700093E09093F7048093F60461E170E08AE0D7
:100F800090E00E9403100E941D108091F604909141
:100F9000F7042DB73EB72A5E3F4F0FB6F8943EBF19
:100FA0000FBE2DBF883E33E0930769F49F938F9364
:100FB0008DE292E09F938F930E9483110F900F9088
:100FC0000F900F9020C0843F21E0920769F49F9317
:100FD0008F9383E592E09F938F930E9483110F90EC
:100FE0000F900F900F900FC08A3F910561F49F936F
:100FF0008F9387E792E09F938F930E9483110F90C6
:101000000F900F900F90D0E00E94300F882341F096
:1010100080910C0690910D060E944511C82F01C0C9
:10102000CFEFC33709F4CDC0C33509F4CAC0C1330B
:10103000F9F488EE93E09093F7048093F60461E16D
:1010400070E08AE090E00E9403100E941D108091E1
:10105000F7048F938091F6048F938DE292E09F9333
:101060008F930E9483110F900F900F900F9041C0AB
:10107000C233F9F484EF91E09093F7048093F6047F
:1010800061E170E08AE090E00E9403100E941D1070
:101090008091F7048F938091F6048F9383E592E01B
:1010A0009F938F930E9483110F900F900F900F903A
:1010B00020C0C333F1F48AEF90E09093F70480935B
:1010C000F60461E170E08AE090E00E9403100E9463
:1010D0001D108091F7048F938091F6048F9387E71A
:1010E00092E09F938F930E9483110F900F900F9027
:1010F0000F900E94F2018F3F09F063C0CD3611F0CE
:10110000CD3409F560E170E08AE090E00E940310C0
:101110000E941D108091E7049091E804892B29F02A
:101120001092E8041092E7040EC081E090E09093E2
:10113000E8048093E7048EE992E09F938F930E94E6
:1011400083110F900F908091E7049091E804892B10
:1011500009F05ACF0E945B104B015C012B013C014E
:101160004C185D086E087F082091F6043091F70452
:10117000ADECBCEC0E9400119695879596958795ED
:10118000A0E0B0E084159505A605B70590F48D2F75
:101190000E9460028D2F90E001968F7190789923C4
:1011A00024F40197806E9F6F0196D82F750164011A
:1011B0002BCFCE3619F0CE3409F026CF0E949B04F7
:1011C00023CFDF91CF91FF90EF90DF90CF90BF9032
:1011D000AF909F908F907F906F905F904F90089509
:1011E000CF93DF93EC010E94F906C230D105A9F13B
:1011F0001CF4219771F174C1C330D10509F4F3C017
:10120000249709F4F5C06CC14FEF63E08C2F0E9466
:10121000BD064FEF64E08C2F0E94BD06C53059F427
:101220004FEF62E08C2F0E94BD064FEF64E08C2FE1
:101230000E94BD060CC0CA3051F44FEF62E08C2F03
:101240000E94BD064FEF65E08C2F0E94BD06CF5F68
:1012500001C0C4E0CB30C0F243C14FE062E084E0A3
:101260000E94BD064FE063E084E00E94BD064FE0AF
:1012700064E084E00E94BD064FE065E084E00E94E7
:10128000BD064FE061E085E00E94BD064FE062E0F0
:1012900085E00E94BD064FE065E085E00E94BD0646
:1012A0004FE066E085E00E94BD064FE065E086E025
:1012B0000E94BD064FE066E086E00E94BD064FE05A
:1012C00065E087E00E94BD064FE066E087E00E948F
:1012D000BD064FE062E088E00E94BD064FE063E09B
:1012E00088E00E94BD064FE064E088E00E94BD06F1
:1012F0004FE061E089E00E94BD064FE062E089E0D6
:101300000E94BD064FE061E08AE00E94BD064FE00A
:1013100062E08AE00E94BD064FE063E08AE00E943E
:10132000BD064FE064E08AE00E94BD064FE065E044
:101330008AE00E94BD064FE066E08AE00E94BD069A
:10134000CFC0C43011F0CA30A9F44FE062E08C2F56
:101350000E94BD064FE063E08C2F0E94BD064FE067
:1013600064E08C2F0E94BD064FE065E08C2F0E9448
:10137000BD0637C0C53011F0C930A9F44FE061E0B7
:101380008C2F0E94BD064FE062E08C2F0E94BD06AC
:101390004FE065E08C2F0E94BD064FE066E08C2F89
:1013A0000E94BD061EC0C63011F0C83059F44FE08F
:1013B00065E08C2F0E94BD064FE066E08C2F0E94F6
:1013C000BD060FC04FE062E08C2F0E94BD064FE0CB
:1013D00063E08C2F0E94BD064FE064E08C2F0E94DA
:1013E000BD06CF5F01C0C4E0CB3008F4AACF78C0FF
:1013F00040EF61E085E00E94BD0640EF62E085E0DD
:101400000E94BD0640EF63E085E00E94BD0640EF0C
:1014100065E085E00E94BD0640EF66E085E00E9441
:10142000BD0640EF67E085E00E94BD0640EF60E04A
:1014300086E00E94BD0640EF65E086E00E94BD06A2
:1014400040EF67E086E00E94BD0640EF60E087E085
:101450000E94BD0640EF62E087E00E94BD0640EFBB
:1014600063E087E00E94BD0640EF65E087E00E94F0
:10147000BD0640EF67E087E00E94BD0640EF60E0F8
:1014800088E00E94BD0640EF63E088E00E94BD0650
:1014900040EF65E088E00E94BD0640EF67E088E02D
:1014A0000E94BD0640EF61E089E00E94BD0640EF6A
:1014B00062E089E00E94BD0640EF63E085E00E94A3
:1014C000BD0640EF65E089E00E94BD0640EF66E0A2
:1014D00089E00E94BD0640EF67E089E00E94BD06FA
:1014E000DF91CF9108958F929F92AF92BF92CF924A
:1014F000DF92EF92FF920E945B104B015C0183E050
:1015000090E00E94F0080E945B106B017C01AB012F
:10151000BC01481959096A097B098091F604909128
:10152000F704880F991FA0E0B0E0481759076A0731
:101530007B0748F382E090E00E94F0080E945B1075
:101540004B015C01AB01BC014C195D096E097F09BF
:101550008091F6049091F704880F991FA0E0B0E005
:10156000481759076A077B0748F381E090E00E941B
:10157000F0080E945B106B017C01AB01BC014819B3
:1015800059096A097B098091F6049091F704880F44
:10159000991FA0E0B0E0481759076A077B0748F396
:1015A00084E090E00E94F0080E945B10AB01BC0157
:1015B0004C195D096E097F098091F6049091F7043A
:1015C000880F991FA0E0B0E0481759076A077B070A
:1015D00058F3FF90EF90DF90CF90BF90AF909F9027
:1015E0008F9008958091EE049091EF049C012A5011
:1015F00031092A35310528F46AE070E00E94CD10E7
:101600002AC0843691057CF02AE030E0B9010E94BE
:10161000CD10E82F492FCB01B9010E94CD10BC019C
:101620008E2F942F18C09C01275F3F4F2930310522
:1016300030F49195819591096AE070E00CC0873F84
:101640009F4F2CF080E090E060E070E004C08AE002
:1016500090E06AE070E02091E3043091E404232BF1
:1016600099F08BB184608BB9FB01EF5FFE4F8081F5
:1016700088B98091E3049091E40421E0822790935B
:10168000E4048093E30408952BB12B7F2BB9FC0174
:10169000EF5FFE4F808188B98091E3049091E4046C
:1016A00021E082279093E4048093E30408950E944C
:1016B00014101092EF041092EE041092F1041092A4
:1016C000F0040E94730A0E94DB030E94F2010E9450
:1016D000370F08954F925F926F927F928F929F92F1
:1016E000AF92BF92EF92FF921F93CF93DF93CDB74C
:1016F000DEB728970FB6F894DEBF0FBECDBF0E94AD
:101700005B102B013C016FE070E08AE090E00E94EA
:10171000031080E192E09F938F930E94831162E116
:1017200070E08AE090E00E9403100E941D108091FA
:10173000F6049091F7040F900F90883E23E09207F3
:1017400069F49F938F938DE292E09F938F930E9411
:1017500083110F900F900F900F9020C0843F31E0C5
:10176000930769F49F938F9383E592E09F938F9300
:101770000E9483110F900F900F900F900FC08A3F1F
:10178000910561F49F938F9387E792E09F938F93E6
:101790000E9483110F900F900F900F90E12CF12C6D
:1017A0001D821E821F821886EEC10E94F20189836B
:1017B0000E94300F882341F080910C0690910D0615
:1017C0000E944511182F01C01FEF4981442321F0C9
:1017D000163611F0163421F483E00E94E80320C08D
:1017E0005981513021F0143611F0143421F482E083
:1017F0000E94E80315C08981823021F0133711F06F
:10180000133521F481E00E94E8030AC099819330E6
:1018100021F0113611F0113419F480E00E94E80330
:101820001D3611F01D3439F58091E5049091E604E0
:10183000892B09F560E170E08AE090E00E940310D6
:101840000E941D108091E7049091E804892B29F0F3
:101850001092E8041092E7040EC081E090E09093AB
:10186000E8048093E7048EE992E09F938F930E94AF
:1018700083110F900F90103711F0103599F580916A
:10188000E7049091E804892B69F561E170E08AE052
:1018900090E00E9403100E941D108091E504909139
:1018A000E604892B41F01092E6041092E5048BB116
:1018B000877F8BB917C081E090E09093E604809316
:1018C000E5040E945B106D837E838F8398878BB1C4
:1018D00088608BB98EEA92E09F938F930E94831168
:1018E0000F900F908091F0049091F104009721F4F3
:1018F0008BB18F718BB913C08130910521F48BB1FD
:1019000080628BB90CC08230910521F48BB1806468
:101910008BB905C003971CF08BB180688BB980919F
:10192000F2049091F304892BA9F0E114F10491F4ED
:1019300063E070E08AE090E00E9403108AEB92E09E
:101940009F938F930E948311AFEFEA1AFA0A0F90C8
:101950000F90AEC0B1E0EB16F10491F464E070E0DA
:101960008AE090E00E94031084EF92E09F938F93AF
:101970000E9483112FEFE21AF20A0F900F9098C085
:1019800032E0E316F10491F465E070E08AE090E063
:101990000E9403108FE293E09F938F930E94831124
:1019A0004FEFE41AF40A0F900F9082C053E0E5164F
:1019B000F10491F466E070E08AE090E00E94031088
:1019C0008AE693E09F938F930E9483118FEFE81A2A
:1019D000F80A0F900F906CC094E0E916F10491F4AE
:1019E00067E070E08AE090E00E94031085EA93E0EF
:1019F0009F938F930E948311AFEFEA1AFA0A0F9018
:101A00000F9056C0B5E0EB16F10491F468E070E079
:101A10008AE090E00E94031080EE93E09F938F9302
:101A20000E9483112FEFE21AF20A0F900F9040C02C
:101A300036E0E316F10491F469E070E08AE090E0AA
:101A40000E9403108BE194E09F938F930E94831177
:101A50004FEFE41AF40A0F900F902AC057E0E516F2
:101A6000F10491F46AE070E08AE090E00E940310D3
:101A700085E594E09F938F930E9483118FEFE81A7E
:101A8000F80A0F900F9014C098E0E916F10481F461
:101A90006BE070E08AE090E00E94031080E994E03F
:101AA0009F938F930E9483110F900F90E12CF12C44
:101AB0008091F2049091F304892B79F017C0698129
:101AC0007A818AE090E00E9403100E941D10A98193
:101AD000BA811196BA83A98304C023E030E03A8327
:101AE000298349815A814C3051054CF32091E704F8
:101AF0003091E80491E04091E5045091E604452BD3
:101B000009F090E081E02115310509F080E089239A
:101B100091F10E945B1069837A838B839C834B01D4
:101B20005C018D819E81AF81B885881A990AAA0AC5
:101B3000BB0A2091F6043091F704ADECBCEC0E9496
:101B400000119695879596958795A3019201280F88
:101B5000391F411D511D82169306A406B50698F043
:101B60000E949B0449805A806B807C801D821E826B
:101B70001F82188608C0232B31F01E3611F01E3448
:101B800011F40E949B040E94B106882309F40DCE33
:101B900028960FB6F894DEBF0FBECDBFDF91CF9170
:101BA0001F91FF90EF90BF90AF909F908F907F908C
:101BB0006F905F904F9008950E9414106DE070E058
:101BC0008AE090E00E9403108AEA90E09F938F934E
:101BD0000E9499116EE070E08AE090E00E9403108C
:101BE0008091EF048F938091EE048F938BEC94E0BF
:101BF0009F938F930E9483116FE070E08AE090E0E2
:101C00000E94031080E192E09F938F930E948311C2
:101C100060E170E08AE090E00E9403100E941D10D5
:101C20008091F6049091F7042DB73EB7285F3F4F9F
:101C30000FB6F8943EBF0FBE2DBF883E33E093072A
:101C400069F49F938F938DE292E09F938F930E940C
:101C500083110F900F900F900F9020C0843F21E0D0
:101C6000920769F49F938F9383E592E09F938F93FC
:101C70000E9483110F900F900F900F900FC08A3F1A
:101C8000910561F49F938F9387E792E09F938F93E1
:101C90000E9483110F900F900F900F9061E170E000
:101CA0008AE090E00E9403108CE790E09F938F936E
:101CB0000E9499110F900F9010C00E94300F88233E
:101CC00039F080910C0690910D060E94451101C0DB
:101CD0008FEF833731F0833521F00E94F2018F3F7F
:101CE00061F30E94140708950E94FD061092EF040C
:101CF0001092EE040E9414070E94570B0E946A0B78
:101D00000E94DC0DF9CFCF93C82F8A3019F48DE0F3
:101D10000E94830E9FB7907802C0992329F1809189
:101D2000F9048F3FD1F3F894E091F80481E08E0F2D
:101D30008093F804F0E0E650FB4FC0838091F904F3
:101D40008F5F8093F9048091F8048F3F11F4109213
:101D5000F804E1ECF0E0808180628083992339F01F
:101D6000789480E090E005C081E090E002C080E0DF
:101D700090E0CF91089580910B068823E1F32FB76F
:101D80002078F8948091F90530910B0690E0831B40
:101D900091095AF4E091F90580910B06F0E0E81BF7
:101DA000F109E65FF94F80810AC0E091F905809161
:101DB0000B06F0E0E81BF109E650FA4F80819091A4
:101DC0000B06915090930B06222309F0789490E033
:101DD00008951092F8041092F9041092F9051092E7
:101DE0000B0610920A064093E904DC01CB01880F30
:101DF000991FAA1FBB1F880F991FAA1FBB1F9C01F9
:101E0000AD01220F331F441F551F60E072E18AE7C6
:101E100090E00E94E110BA01A9014F5F5F4F6F4F40
:101E20007F4FDB01CA011AF40196A11DB11DB595C2
:101E3000A7959795879501979093C5008093C400C7
:101E4000E1ECF0E088E18083808180688083ECE0D1
:101E5000F6E08CE091E09383828391838083089500
:101E600090910B0681E0911101C080E008951092DD
:101E7000F90510920B0608951F920F920FB60F925C
:101E800011242F938F939F93EF93FF938091F904E5
:101E9000882329F18091F8042091F90490E0821BB5
:101EA00091095AF4E091F8048091F904F0E0E81BFC
:101EB000F109E750FA4F90810AC0E091F80480914F
:101EC000F904F0E0E81BF109E650FB4F90818091A6
:101ED000F90481508093F9049093C60005C0E1ECA9
:101EE000F0E080818F7D8083FF91EF919F918F91B2
:101EF0002F910F900FBE0F901F9018951F920F9269
:101F00000FB60F9211242F933F934F935F936F93CC
:101F10007F938F939F93AF93BF93CF93EF93FF9351
:101F2000C091C6008091E904882349F08091F904AA
:101F30008F3F29F060E070E08C2F0E94830E80912B
:101F40000B06803120F081E080930A0618C0CD3066
:101F500009F4CAE0E091F90581E08E0F8093F9055C
:101F6000F0E0E650FA4FC08380910B068F5F8093BC
:101F70000B068091F905803111F41092F905FF915B
:101F8000EF91CF91BF91AF919F918F917F916F9181
:101F90005F914F913F912F910F900FBE0F901F9027
:101FA000189594B1906B94B995B1906195B990E5FD
:101FB0009CBD883021F0803211F0823019F491E01C
:101FC0009DBD01C01DBC803269F028F4883071F0DD
:101FD000803161F00EC0803429F0803851F48CB526
:101FE00081608CBD8CB582608CBD03C08CB5816076
:101FF0008CBD85B18F7E85B908958EBD0DB407FE69
:10200000FDCF8EB508959F938F937F936F938DE748
:1020100093E09F938F930E9499110F900F900F90D0
:102020000F900F900F90089588E793E09F938F9300
:102030000E9499110F900F90089584E793E09F9369
:102040008F930E9499110F900F9008951F928F9374
:102050008EE693E09F938F930E9499110F900F90BB
:102060000F900F90089587E693E09F938F930E94BF
:1020700099110F900F90089580E693E09F938F93AE
:102080000E9499110F900F9008951092EA041092F7
:10209000EB041092EC041092ED0416BC8CE787BDA3
:1020A00092E094BD83E085BDEEE6F0E08081826041
:1020B000808395BB08958FB7282F2078F89460917E
:1020C000EA047091EB048091EC049091ED042223DA
:1020D00009F0789408951F920F920FB60F92112471
:1020E0008F939F93AF93BF938091EA049091EB04F9
:1020F000A091EC04B091ED040196A11DB11D809357
:10210000EA049093EB04A093EC04B093ED04BF9128
:10211000AF919F918F910F900FBE0F901F901895C8
:1021200083E2809380008AE1809381001092850091
:102130001092840008958DE48093B3001092B00053
:102140008DE08093B10082E08093700087BB78942B
:1021500008951F920F920FB60F9211242F933F9361
:102160004F935F936F937F938F939F93AF93BF939F
:10217000EF93FF930E94F20AFF91EF91BF91AF910D
:102180009F918F917F916F915F914F913F912F918F
:102190000F900FBE0F901F90189597FB072E16F407
:1021A000009407D077FD09D00E940F1107FC05D0DD
:1021B0003EF4909581959F4F0895709561957F4F5E
:1021C0000895052E97FB1EF400940E94F81057FD09
:1021D00007D00E94231107FC03D04EF40C94F81092
:1021E00050954095309521953F4F4F4F5F4F089543
:1021F00090958095709561957F4F8F4F9F4F089573
:10220000A29FB001B39FC001A39F700D811D112437
:10221000911DB29F700D811D1124911D0895AA1B5F
:10222000BB1B51E107C0AA1FBB1FA617B70710F0C1
:10223000A61BB70B881F991F5A95A9F780959095F3
:10224000BC01CD010895A1E21A2EAA1BBB1BFD0102
:102250000DC0AA1FBB1FEE1FFF1FA217B307E40785
:10226000F50720F0A21BB30BE40BF50B661F771FDD
:10227000881F991F1A9469F76095709580959095BD
:102280009B01AC01BD01CF010895CF93DF93EC0119
:102290002B8120FF33C026FF0AC02F7B2B838E812A
:1022A0009F8101969F838E838A8190E029C022FFBF
:1022B0000FC0E881F9818081082E000C990B0097EE
:1022C00019F420622B831AC03196F983E8830EC07B
:1022D000EA85FB85099597FF09C02B81019611F0CE
:1022E00080E201C080E1822B8B8308C02E813F8178
:1022F0002F5F3F4F3F832E83992702C08FEF9FEFC1
:10230000DF91CF910895A0E0B0E0E9E8F1E10C940D
:102310006014AE014B5F5F4FFA0161917191AF01A3
:1023200080910E0690910F060E94BF11E2E00C947E
:102330007C14A0E0B0E0EFE9F1E10C945E14AE0192
:10234000495F5F4FDA016D917D91AD010CE016E0C0
:10235000F80182819381DC0113962C9113972860F8
:1023600013962C930E94BF11D8011296ED91FC9107
:1023700013972381277F2383E4E00C947A14ABE046
:10238000B0E0E5ECF1E10C9450146C017B018A01A2
:10239000FC0117821682838181FFCCC1CE01019698
:1023A0003C01F6019381F70193FD859193FF8191A3
:1023B0007F01882309F4BAC1853239F493FD8591F0
:1023C00093FF81917F01853229F4B60190E00E944C
:1023D000B613E7CF912C212C312CFFE1F315D8F067
:1023E0008B3279F038F4803279F08332A1F4232DE6
:1023F00020611DC08D3261F0803369F4232D21608E
:1024000016C0832D8260382EE32DE4603E2E2AC054
:10241000F32DF8601DC037FC2DC020ED280F2A30A9
:1024200040F08E32B9F436FC81C1232D2064322E67
:1024300019C036FE06C08AE0989E200D1124922E07
:1024400011C0EAE02E9E200D1124222EF32DF06201
:102450003F2E08C08C3621F4832D8068382E02C0B0
:10246000883641F4F70193FD859193FF81917F01B7
:102470008111B3CF982F9F7D9554933028F40C5F32
:102480001F4F9FE399830DC0833631F0833771F07E
:10249000833509F059C021C0F801808189830E5F1E
:1024A0001F4F88248394912C530113C02801F2E01C
:1024B0004F0E511CF801A080B18036FE03C0692D7B
:1024C00070E002C06FEF7FEFC5010E94AB134C01BB
:1024D0008201F32DFF773F2E16C0280122E0420E25
:1024E000511CF801A080B18036FE03C0692D70E058
:1024F00002C06FEF7FEFC5010E94A0134C01F32DC6
:10250000F0683F2E820133FC1BC0822D90E08816BC
:102510009906B0F4B60180E290E00E94B6132A94C6
:10252000F4CFF50137FC859137FE81915F01B6014B
:1025300090E00E94B61321102A9421E0821A91089B
:102540008114910471F7E8C0843611F0893641F5A1
:10255000F80137FE07C060817181828193810C5F31
:102560001F4F08C060817181072E000C880B990BEA
:102570000E5F1F4FF32DFF763F2E97FF09C09095FA
:102580008095709561957F4F8F4F9F4FF0683F2EDC
:102590002AE030E0A3010E94F213882E861845C07D
:1025A000853731F4232D2F7EB22E2AE030E025C06E
:1025B000932D997FB92E8F36C1F018F4883579F0B4
:1025C000B5C0803719F0883721F0B0C0E92FE0613D
:1025D000BE2EB4FE0DC0FB2DF460BF2E09C034FE2C
:1025E0000AC0292F2660B22E06C028E030E005C0C0
:1025F00020E130E002C020E132E0F801B7FE07C080
:1026000060817181828193810C5F1F4F06C0608160
:10261000718180E090E00E5F1F4FA3010E94F213D2
:10262000882E8618FB2DFF773F2E36FE0DC0232DFA
:102630002E7FA22E891458F434FE0BC032FC09C040
:10264000832D8E7EA82E05C0B82CA32C03C0B82CD9
:1026500001C0B92CA4FE0FC0FE01E80DF11D808160
:10266000803321F49A2D997EA92E09C0A2FE06C0BE
:10267000B394B39404C08A2D867809F0B394A3FC74
:1026800011C0A0FE06C0B21488F4280C922C9B182E
:102690000EC0B21460F4B60180E290E00E94B6135E
:1026A000B394F7CFB21418F42B1802C0982C212C35
:1026B000A4FE10C0B60180E390E00E94B613A2FE13
:1026C00017C0A1FC03C088E790E002C088E590E055
:1026D000B6010CC08A2D867859F0A1FE02C08BE2AB
:1026E00001C080E2A7FC8DE2B60190E00E94B61323
:1026F000891438F4B60180E390E00E94B6139A94EE
:10270000F7CF8A94F301E80DF11D8081B60190E0C6
:102710000E94B6138110F5CF222009F442CEB601F3
:1027200080E290E00E94B6132A94F6CFF6018681EB
:10273000978102C08FEF9FEF2B96E2E10C946C140F
:10274000FC010590615070400110D8F7809590957C
:102750008E0F9F1F0895FC01615070400190011081
:10276000D8F7809590958E0F9F1F08950F931F9314
:10277000CF93DF93FB01238121FD03C08FEF9FEFF8
:102780002CC022FF16C04681578124813581421713
:10279000530744F4A081B1819D012F5F3F4F3183E6
:1027A00020838C93268137812F5F3F4F3783268389
:1027B00014C08B01EC01FB010084F185E02D09952B
:1027C000892BE1F6D80116968D919C911797019669
:1027D00017969C938E931697CE01DF91CF911F9100
:1027E0000F910895FA01AA27283051F1203181F183
:1027F000E8946F936E7F6E5F7F4F8F4F9F4FAF4F09
:10280000B1E03ED0B4E03CD0670F781F891F9A1F1B
:10281000A11D680F791F8A1F911DA11D6A0F711DCF
:10282000811D911DA11D20D009F468943F912AE0DB
:10283000269F11243019305D3193DEF6CF010895C3
:10284000462F4770405D4193B3E00FD0C9F7F6CFF4
:10285000462F4F70405D4A3318F0495D31FD4052BC
:10286000419302D0A9F7EACFB4E0A6959795879552
:1028700077956795BA95C9F7009761057105089531
:102880009B01AC010A2E06945795479537952795DD
:10289000BA95C9F7620F731F841F951FA01D089575
:1028A0002F923F924F925F926F927F928F929F9260
:1028B000AF92BF92CF92DF92EF92FF920F931F934E
:1028C000CF93DF93CDB7DEB7CA1BDB0B0FB6F894FF
:1028D000DEBF0FBECDBF09942A88398848885F843F
:1028E0006E847D848C849B84AA84B984C884DF80B0
:1028F000EE80FD800C811B81AA81B981CE0FD11D94
:102900000FB6F894DEBF0FBECDBFED010895F89469
:02291000FFCFF7
:10291200FF3F065B4F666D7D077F6F40000000033F
:1029220000000000830EBB0E00007FA47F00EF1D9D
:10293200E900FFAA55000609060047616D652053AC
:10294200636F72653A20202025640047616D65201F
:1029520053636F72653A202025640047616D6520DC
:1029620053636F72653A2025640047616D65205399
:10297200636F72653A20202020256400436F6D62E8
:102982006F20436F756E743A2020256400436F6D8B
:10299200626F20436F756E743A2020202564000018
:1029A20000000808088004020440088000000402B5
:1029B2000440080440022001101010100000022000
:1029C20004400880044002200440080440400220E1
:1029D2000440080440022001101010100000000002
:1029E2000000080808800402044002088000020176
:1029F200044008800402200110101220000002206E
:102A020004400804404002200440080440400220E0
:102A12000440080440400220011010100000000091
:102A2200547261636B3A205468726F75676820460E
:102A3200697265202620466C616D6573004375726C
:102A420072656E742047616D652053706565643AE6
:102A5200203120284E6F726D616C3A202564206D02
:102A620073290043757272656E742047616D65202B
:102A720053706565643A20322028466173743A20A7
:102A82002564206D73290043757272656E74204748
:102A9200616D652053706565643A2033202845785E
:102AA2007472656D653A202564206D7329004D614D
:102AB2006E75616C204D6F64653A204F4E00476120
:102AC2006D65205061757365640020205F5F5F5FF4
:102AD2005F5F202020202020202020202020202076
:102AE200202020202020202020202020205F5F2066
:102AF20020202020202020202020202020202020D4
:102B0200205F5F00202F2020202020205C2020201A
:102B120020202020202020202020202020202020B3
:102B22002020202020207C20205C2020202020200B
:102B3200202020202020202020207C20205C007CBF
:102B420020202424242424245C20205F5F5F5F5FF4
:102B52005F2020205F5F5F5F5F5F205F5F5F5F20BE
:102B6200207C2024245F5F5F5F202020205F5F5F46
:102B72005F5F5F20207C202424007C2024242020EE
:102B8200205C2424202F2020202020205C207C2058
:102B920020202020205C202020205C207C20242457
:102BA200202020205C20202F2020202020205C209C
:102BB2007C202424007C2024242020202020207C0F
:102BC20020202424242424245C7C2024242424243F
:102BD200245C242424245C7C2024242424242424EF
:102BE2005C7C20202424242424245C7C20242400B3
:102BF2007C2024242020205F5F207C20242420208D
:102C02007C2024247C202424207C202424207C203A
:102C120024247C20242420207C2024247C2024247E
:102C220020207C202424205C2424007C2024245F77
:102C32005F2F20205C7C2024245F5F2F2024247CB3
:102C4200202424207C202424207C2024247C202452
:102C5200245F5F2F2024247C2024245F5F2F2024E4
:102C620024205F5F00205C242420202020242420B4
:102C72005C24242020202024247C202424207C2046
:102C82002424207C2024247C20242420202020246E
:102C920024205C24242020202024247C20205C006A
:102CA20020205C2424242424242020205C24242486
:102CB20024242420205C242420205C242420205C42
:102CC2002424205C242424242424242020205C2462
:102CD200242424242420205C24240046696E616C70
:0C2CE2002053636F72653A2025640A00DD
:00000001FF
